:020000040000FA
:060000000212980207BB8A
:03002B000210BF01
:03003300020E704A
:03004300020F5B4E
:030053000206ECB6
:03006B00020E562C
:100083000207500101FF0503011E181E181E181E4A
:1000930018DA16D4161E18BB26000000001D270010
:1000A3000000000C0000000C00010000EC1900002F
:1000B30000000000A01A0000000000000000000083
:1000C300FFFF0BBB044E8800010101005405000033
:1000D30000A505E80364006400B8010202000800FB
:1000E30000050207051E02051E0A03B80B020102E2
:1000F300F1FF0296511800020206123031323334F6
:10010300353637383941424344454600286E756CCD
:100113006C20706F696E74657229003F3F3F000069
:1001230000807F0000803FF9021550B743BA5100A9
:1001330000204100E7DB2E0000A040100000000873
:100143000000000A0000001212E460461212B760B9
:100153003DE9687008F618F618F618F622748067F9
:10016300F712017E090909748067F7221212B7603A
:100173001D1212E47005191919801A121131701F1A
:1001830012115BC37003E667331919194007181876
:10019300182208080874FFF618F618F618F6221243
:1001A300115B6017121323702192F012132D701933
:1001B300501720F014080808090909E7F61819E789
:1001C300F61819E7F61819E7F62212132D60E6E878
:1001D30069701F0808E62480F608E436F618547F91
:1001E300B47F0CE654806007F6E418F618F622187C
:1001F3001822E9C6CC08C6CD08C6CE08C6CFC0E0D3
:10020300E8C0E0EAC0E0EBC0E009E9F809E7FA0971
:10021300E7FBE6F918E6F8C3EC98ED99EE9AEBC222
:10022300E7F5F0EFC2E795F0500E600CEBCFFBEA79
:10023300CEFAE9CDF9E8CCF8EAA2E7D2E7FAEB3354
:10024300FB13F5F0EEA2E7D2E7FEEF33FFC5F013A1
:10025300A2E730E601B313C5F0C3C0E0C0F07F00EE
:10026300C39BFB605B9418600C401AD0E023F9D069
:10027300E0F802034D8AF0E9486003D2F0E4AFF0FE
:10028300FAF9F8803BEB30E40D89F0EA6003D2F031
:10029300E4AFF0F9CAF8EB30E30D88F0EF6002D277
:1002A300F0AFF0E4CAC9F8EB54076014FBC3EA13D8
:1002B300FAE913F9E813F8EF135002D2E0FFDBED8C
:1002C300D0E0C0E030E739C3E49FFFF5F0EC98FCE1
:1002D30042F0ED99FD42F0EE9AFE42F0D0E0F9D003
:1002E300E0F8E5F0607AE923F9EE20E742D80280EE
:1002F30067C3EF33FFEC33FCED33FDEE33FE80EAEF
:10030300EC28FCED39FDEE3AFED0E023F9D0E0F81D
:100313004002801BC3EE13FEED13FDEC13FCEF1341
:100323005002D2E0FF08B800067F7F74FF802EEFF3
:100333003350178CF020F00260100CBC000C0DBD84
:1003430000080EBE000408E860DFE933E813FFEE9F
:100353002313FE4F4D4C8008E95480FFE4FEFDFC5F
:10036300EE33EF33F47004FCFD7E80D0E0FBD0E08D
:10037300FAD0E0F8D0E0CFC618CEC618CDC618CC58
:10038300C6F9221212B77004181818221212E47058
:100393000D74FFF61819F61819F61819F622E75412
:1003A3008066F612132D700F12132370F014F608E3
:1003B300F608F608F680D1121323700CF608F60837
:1003C300768008E6447F80EC12115E700C121134C3
:1003D30060BFE65480F6E480BB121134700519192E
:1003E3001980A5E869700C763F18768018F618F620
:1003F300E8F922E6CDC0E018ECC0E0E633CD33CD1A
:10040300D313F6E719FCE7191933CC33C3947F40B0
:100413000ECD9D502408E65480F6E418F6800FF4C0
:10042300043D14501408E6447FF6187680E418F669
:1004330018F6D0E0FCD0E0FD22CCD313CCFD18E4B9
:10044300C6CBC0E018E4C6CAC0E00808ED08C6334E
:10045300E613F618E433C675F003C3CA97CA09CB8B
:1004630097CB199C40047D08802EBD000302052F05
:1004730016B6FF050606081618C3CA33CACB33CB14
:1004830033CA27CA09CB37CB193CC37D08803E1832
:100493007D0820E75CC633C6CA33CACB33CB33DD12
:1004A300F1D5F0EB30E77BCA97CA09CB974ACB1952
:1004B3009C406F4B7025E620E0218066187D08C3C1
:1004C300CA97CA09CB97CB199CD3C633C6CA33CABA
:1004D300CB33CB3350C9DDE7D5F0E1D3E4C636C621
:1004E30008C636C608C636C608C636C618181880E3
:1004F30031C3CA97CA09CB97CB199CB34097C6336C
:10050300C6CA33CACB33CB33DD34D5F02EC6A2E013
:10051300C640C8CA27CA09CB37194A70BECB3CB4F8
:1005230080B90808E63308E633601F181818D0E0CE
:10053300FAD0E0FBD0E0FCD0E0FD22187D08CA270A
:10054300CA09CB37CB193CD3808013F618E4B67FA6
:1005530011F618B6FF0EF618C60470D20808768096
:1005630080CAF618F618F680C5001212B7604F124B
:1005730012E46012E7548066F612113170111213FF
:1005830023703B090909F4F618F618F618F6221237
:10059300115B701512132D08080860EAE6447FF614
:1005A30018768018E4F618F62212132D601612132B
:1005B300237012E4F608F608F608E65480F60909F3
:1005C3000918181822EAC0E0EBC0E0ECC0E0EDC067
:1005D300E0E687F0A4FBACF008E687F0A42CFCE48B
:1005E30035F0FA1809E687F0A42C4B60027401CAAF
:1005F30035F0FCE433FB09E687F0D2F7A42CCB35C6
:10060300F0FC1908E687F0A42BCC35F0FBE433FDAE
:100613000819E687F0D2E7A42C4ACB35F0CD340095
:10062300FC09E687F0D2E7A42DCC35F0FDE433FADC
:100633000918E687F0D2F7A42CCD35F0CA3400FCB4
:1006430008E687F0D2E7D2F7A42ACC35F07A7E20E9
:10065300E70B0ACB33CBCD33CDCC33CC33CB3350B9
:10066300147004ED30E00ED2F1E4CD3DCDCC3CCCA2
:100673003B5005DA05C2F1EB547FC63308E63392EB
:10068300F0FBE73309E733C39A502D2B70190C0D98
:100693004C4D70151806E608C333700D20F10AA2FD
:1006A300F013F6E418800B4024E4F630F002768071
:1006B30018F618F618F68024D33B14501074FFA2D2
:1006C300F013F6187680E418F618F6800FA2F013EC
:1006D300F618E63303F618ECF618EDF6D0E0FDD085
:1006E300E0FCD0E0FBD0E0FA22C0E074F2120ADBB7
:1006F300A2AFE433FED2AFE5A7FFE5A1F5085F544F
:1007030010600612210C75A1EFE5085F540860081C
:1007130012211275A1F7802BEFA2E0C0D0E508A249
:10072300E092F01211E6158182F05017906198E083
:10073300F890087EE0C398A2D265D0335002E8F067
:1007430075A1FEEEA2E092AF7F01020B3AC0E07406
:10075300F2120ADBA2AFE433FED2AF9061A4E0F859
:10076300759B00E59158540860087591F712215A5A
:10077300802AE59158541060087591EF122160802A
:100783001BE8A2E0C0D0E591A2E092F01211E615B9
:100793008182F05007E0C2E0F01222A49061A3E04E
:1007A300F8E5E9585404600E12227A75E9FB90616A
:1007B30093E0A2E640F2808BC0E074F2120ADBA25F
:1007C300AFE433FED2AF9061A5E0F8E5BF5854041F
:1007D300600675BFFB1222BC020746C3E498F8E427
:1007E30099F912081F8026C3E49AFAE49BFBE920D7
:1007F300E7E912081FE498F8E499F922C3E498F8AA
:10080300E499F912081FE498F8E499F9C3E49AFA11
:10081300E49BFB22EB20E7CFE920E7E0B90010BB24
:100823000008E88AF084F8AAF022E4FBC8FA22EB75
:1008330070227B10C833C8C933C9335007C39AC366
:10084300DBF280069A50012ADBEAC833F4C8C933C5
:10085300F4C9FA2275F008E4C833C8C933C933C9E7
:100863009AC99B5004C92AC93BD5F0ECFBC833F4A1
:10087300C8E4C9FA221208B820F01430E72B74FF39
:10088300FCFBFA747F8022E4FCFBFA7480801AB4C8
:100893008008BC00F2BB00EF800F50EBF9E4C39A71
:1008A300FAE49BFBE49CFCE499C6CC18C6CB18C6BF
:1008B300CA18C6F922E4C9C608CAC608CBC6D333C8
:1008C3000308CCC63392F0C3947F402E941840198A
:1008D300C9B90704CACBCC225025C309CA33CACB32
:1008E30033CBCC33CC33D9F422F4600DC9CCC3134E
:1008F300CB13CBCA13CAD9F6CC22E4FCFBFA2214DD
:10090300FCFBFA22080808EAC0E0EBC0E086F0E747
:10091300A4FA180986F0E7A42AFA180986F0E7A4CE
:100923002AFA180986F0E7A42AFA1986F0E7A4FB45
:10093300E5F02AFA190886F0E7A42BFBE5F03AFA6A
:10094300190886F0E7A42BFBE5F03AFA1818098694
:10095300F0E7A4C5F02BFBE43AFA1908E7C5F0C6A3
:10096300A426F6E5F03BFBE43AFA1886F0E7A4F692
:10097300E5F00826F6E43B08F6E43A08F6D0E0FB97
:10098300D0E0FA22080808E630E71112119912099B
:100993009F080808C64480C618181822181818E9B2
:1009A300799EC608CAC608CBC608CCC6C3702079D0
:1009B30096CACBCC7019798ECBCC70137986CC7058
:1009C3000EF9802ACA33CACB33CBCC33CC3319309C
:1009D300E7F2CCCBCA3350147004EA30E00DE4CA1A
:1009E3003ACACB3BCBCC3CCC500209C3E913C6CCAF
:1009F300182313C6CB18C6CA18C6F922E4CFC0E021
:100A0300E4CEC0E0E4CDC0E0E4CCC0E075F020C3A8
:100A1300E633F608E633F608E633F608E633F61867
:100A23001818EC33FCED33FDEE33FEEF33FFC3EC6C
:100A33009709ED9709EE9709EF97191919400FFFD9
:100A4300EC97FC09ED97FD09EE97FE191906D5F011
:100A5300BEECF709EDF709EEF709EFF7191919D00D
:100A6300E0FCD0E0FDD0E0FED0E0FF222518C582F7
:100A7300C0E0E51934FFC583C0E0E518C3958224BF
:100A8300F810AF0885831985821880088583198536
:100A93008218D2AFCEF0A3E520F0A37808E608F0E1
:100AA300A3DEFAEFF0A3E58124FAF8E608F0A3E663
:100AB30008F0A3E608F0A30808E608F0A3E608F0A8
:100AC300A315811581D0E0FED0E0F81581158115BD
:100AD30081E8C0E0EEC0E022C0D02518C582C0E0A6
:100AE300E51934FFC583C0E0E518C3958224F310EC
:100AF300AF08858319858218800885831985821834
:100B0300D2AFC8F0A3E9F0A3EAF0A3EBF0A379080E
:100B1300E709F0A3D8FAECF0A3EDF0A3EEF0A3EF0E
:100B2300F0A3D0E0F0A3D0E0F0A3D0E0F0A3E52061
:100B3300F0A3E5F0F0A322851983851882E0C0E0D5
:100B4300A3E0F9A3E0FAA3E0FBA37808E0F608A387
:100B5300DFFAE0FCA3E0FDA3E0FEA3E0FFA3E0C017
:100B6300E0A3E0C0E0A3E0F5D0A3E0F520A3E0A379
:100B7300F5F010AF088583198582188008858319DD
:100B8300858218D2AFD082D083D0E0F8D0E0321281
:100B93001318B90003020BD4E490030178D5790A42
:100BA3008002F0A3D8FCD9FA900CD5AA82AB83902B
:100BB300008678C579018015E493A3AC82AD838A5E
:100BC300828B83F0A3AA82AB838C828D83D8E9D9ED
:100BD300E775823C7583A8740312101E7582C27573
:100BE3008325740012101EE80375F0108E1A8F1BF4
:100BF30085821F85831E851882851983E0CEA3E035
:100C0300CF851F82851E83EBC9EAC8EDCBECCAC32F
:100C1300E833C8E933C9EA33CAEB33CBC3EA9EF5F9
:100C23001DEB9FF51CB35004AB1CAA1DEC33CCED9C
:100C330033CDD5F0DAAE1AAF1B221212B7601C12F5
:100C430012E4601712132D70071213237001D322BD
:100C5300C0D01213237006D0D0B322C32233D0D016
:100C6300501430E0F6C3E7960809E7960809E796BB
:100C73000809E796B32220E0D5E6970809E6970826
:100C830009E6970809E697B3221212B7601B1212FE
:100C9300E4601612132D7007121323600CB322C0E5
:100CA300D01213237005D0D022C32233D0D05013D7
:100CB30030E0EBC3E7960809E7960809E7960809C9
:100CC300E7962220E0E4E6970809E6970809E69705
:100CD3000809E69722D083D082ECC0E0EDC0E0E4BF
:100CE30093A3FCE493A3FDED4C600D120DB0EC2433
:100CF300FFFCED34FFFD80EFE493A3FCE493A3FD3D
:100D0300ED4C600D120EE0EC24FFFCED34FFFD8092
:100D1300EFD0E0FDD0E0FCE493A3C0E0E493C0E0B7
:100D230022851983851882E0A3FEE0A3F5207808C5
:100D3300E0A3F608DFFAE0A3FFE0A3C0E0E0A3C06E
:100D4300E0E0A3C0E0E0A3C0E0E0A3C0E010AF0890
:100D53008582188583198008858218858319D2AF07
:100D6300D083D082021024D083D082E9C0E0E49300
:100D7300A3C386F0C5F095F0F908E493A386F0C504
:100D8300F095F0700BE493A3C3994005E904800246
:100D9300A3E475F002A42582F582E5F03583F5839B
:100DA300D0E0F9E493A3C0E0E493C0E022C0E0C341
:100DB300E49396087401939618400FE493667008C1
:100DC30008740193661870007019A3A3C3E4939683
:100DD300087401939618A3A3400DD0E0D0E0D0E0AF
:100DE300020D14A3A3A3A3A3A3D0E022D083D08294
:100DF300C5F0E493A3C5F0C395F0F5F0E493A3C362
:100E030095F04005E5F0048001E475F002A4258225
:100E1300F582E5F03583F583E493A3C0E0E493C062
:100E2300E0227404800474028000CCC0E0EDC0E0D2
:100E3300E518C39CCCAD1950011D10AF068C188D5D
:100E43001980068C188D19D2AF120FA0D0E0FDD0F7
:100E5300E0FC22C0E074F2120ADBE589A2E1500350
:100E6300121FE6758900C2C57F01020B3AC0E07408
:100E7300F2120ADBE58BA2E05003121FE6758B002A
:100E8300C2E880E474028000CCC0E0EDC0E0E51865
:100E9300C39CCCAD1950011D10AF068C188D198061
:100EA300068C188D19D2AF120F7ED0E0FDD0E0FC76
:100EB300221212B760251212E4602012132D700360
:100EC300021323080808E76670101819E766700A0A
:100ED3001819E76670041819E76622F422C0E0C007
:100EE300F088F0E493667008087401936618700044
:100EF300A8F0A3A3700BD0F0D0E0D0E0D0E0020DB7
:100F030014A3A3D0F0D0E022D083D082CCC0E0E4FD
:100F130093A36006120FC11470FAE493A360061240
:100F230010F01470FAD0E0FCE493A3C0E0E493C0A3
:100F3300E022C008C3E096F50808A3E0964208083B
:100F4300A3E096420808A3E0964208A2D265D033F4
:100F5300E5087001D3D00822C0E074F2120ADBA2C4
:100F6300AFE433FED2AFC2C0E5D1A2E450031220F6
:100F730088EEA2E092AF7F01020B3ACAC0E0E4938D
:100F8300A3C582CCC582C583CDC583F0A3C582CC5E
:100F9300C582C583CDC583DAE5D0E0CA22CAC0E0E5
:100FA300E0A3C582CCC582C583CDC583F0A3C5822A
:100FB300CCC582C583CDC583DAE6D0E0CA22C0E0C2
:100FC300E493A3D39C5010E493A3C39C400AD0E0C2
:100FD300D0E0D0E0020F28A3A3A3D0E02270090839
:100FE3000808226016181818C6C333C608C633C6C5
:100FF30008C633C608C633C6D5E0EA22C008C3E034
:1010030096F50808A3E096420808A3E0964208086C
:10101300A3E09645087001D3D00822C09FF59FE452
:1010230073D09F22D083D082C09FE493C0E0740129
:1010330093C0E0740293F59F227404800A740380C2
:1010430006740280027401C0E0F404121057D0E069
:101053001212F3222518F58210AF08F51840021575
:10106300198008F51840021519D2AF85198322C0DB
:10107300D0251810AF08F518500205198008F51887
:1010830050020519D2AFD0D022BB0102E722C082A1
:10109300C08389828A83BB0003E08002E493D08308
:1010A300D082226016080808C6C313C618C613C622
:1010B30018C613C618C613C6D5E0EA22C0E0C0D0CE
:1010C300E8C0E0E5A8D2AFC2C7A2E792AFD0E0F88C
:1010D300D0D0D0E032C3E0C696F608A3E0C696F6B9
:1010E30008A3E0C696F608A3E0C696F622C0E0E49D
:1010F30093A36C7009D0E0D0E0D0E0020F28A3A343
:10110300D0E022251810AF08F51840021519800801
:10111300F51840021519D2AF22E066701008A3E05B
:1011230066700A08A3E066700408A3E06622181834
:1011330018E6084608700AE608C3337005E633F478
:10114300220822E76670100809E766700A0809E7B3
:101153006670040809E76622191919E70947097037
:101163000AE709C3337005E733F4220922C3E09683
:1011730008A3E09608A3E09608A3E096A2D265D060
:101183003322C3E096F008A3E096F008A3E096F0BC
:1011930008A3E096F022181818E4C396F608E4961C
:1011A300F608E496F608E496F622E026F608A3E0AD
:1011B30036F608A3E036F608A3E036F622E026F07A
:1011C30008A3E036F008A3E036F008A3E036F022E7
:1011D300E627F60809E637F60809E637F60809E6CA
:1011E30037F622C0E0E8C0E0E58124FCF8E6A2E798
:1011F300D0E0F8D0E022E657F60809E657F60809EA
:10120300E657F60809E657F622E056F608A3E05635
:10121300F608A3E056F608A3E056F622E647F608DA
:1012230009E647F60809E647F60809E647F6227095
:101233000422600D18C6C333C608C633C6D5E0F40E
:101243001822E056F008A3E056F008A3E056F00891
:10125300A3E056F022C3E09608A3E09608A3E09625
:1012630008A3E09622C6F4C608C6F4C608C6F4C6A8
:1012730008C6F4C622600D08C6A2E713C618C61333
:10128300C6D5E0F322C3E7960809E7960809E7966F
:101293000809E7962275D000758140751801751904
:1012A3000300020B92E6F008A3E6F008A3E6F008B9
:1012B300A3E6F022E6084608C3134608336002E6B5
:1012C30033F422600C08C6C313C618C613C6D5E090
:1012D300F422E0F608A3E0F608A3E0F608A3E0F69C
:1012E30022E7094709C3134709336002E733F422AE
:1012F300CAC0E0E6F0A308DAFAD0E0FA22EAF0A3E3
:10130300EBF0A3ECF0A3EDF022E0FAA3E0FBA3E003
:10131300FCA3E0FD22E5C754F84401F5C779012297
:10132300E7C33319471947194722E6C33318461849
:10133300461846222518F582E43519F58322C2AFF3
:1013430075D69F020000221210277D8302121027F8
:101353002D8402121027E58402121027AD85021294
:1013630010278A86021210271087021210271F8760
:10137300021210272A87021210273388021210271D
:10138300448802121027BA88021210274C890212CD
:101393001027A489021210276A8A021210279B8A37
:1013A30002121027E08A02121027ED8A0212102778
:1013B300818C02121027E48D02121027008F021273
:1013C30010276A91021210277591021210277F913C
:1013D300021210278A9102121027949102121027E9
:1013E3009E9102121027A99102121027B4910212A2
:1013F3001027E591021210270992021210272D924D
:1014030002121027929202121027D692021210276C
:10141300F29202121027699302121027A19302126B
:101423001027ED93021210274A94021210272C96CC
:1014330002121027B2960212102783970212102766
:10144300939A02121027E89A02121027149B021291
:101453001027609C02121027B09C02121027059DD2
:1014630002121027069E021210279E9E02121027B8
:10147300209F02121027C09F021210273C2900123E
:1014830010277529001210274F2B001210278E2BBF
:1014930000121027D82B001210277D2C00121027C2
:1014A300DC2C00121027102D001210277D2D0012A6
:1014B30010279A2E00121027A22F0012102738305F
:1014C300001210277F330012102728340012102730
:1014D30004350012102765350012102782360012DA
:1014E3001027AC38001210276339001210276D390A
:1014F30000121027A03900121027673A0012102794
:10150300023B00121027673B00121027903B00128A
:101513001027B23B00121027E13D00121027B83EFE
:1015230000121027FC3E00121027693F00121027FB
:101533002440001210275640001210279A40001230
:101543001027CD40001210272241001210277741A7
:10155300001210270B42001210276D4200121027B1
:10156300D542001210277E44001210276645001250
:101573001027A84600121027D648001210279649B4
:1015830000121027C54B00121027684C00121027B9
:10159300A64C00121027524E00121027664E00125E
:1015A3001027704E001210279A4E00121027A64ED5
:1015B30000121027C54E001210277C4F001210276F
:1015C300BB4F00121027C54F00121027795000128D
:1015D30010277851001210277152001210270E5352
:1015E30000121027B05300121027C7530012102700
:1015F300FE53001210271C540012102760540012CF
:1016030010278554001210276B5500121027D75549
:10161300001210275156001210276057001210278E
:101623009F5800121027015900121027BB590012AE
:101633001027DE5900121027B25A00121027FD5A44
:10164300001210273F5B00121027965B0012102731
:10165300CD5B00121027FB5B00121027345C0012D5
:101663001027595C00121027E15C00121027045F59
:1016730000121027635F00121027F75F0012102774
:10168300636000121027B760001210276ECB03129D
:101693001027ADCB0312102745BA011210279FBAAA
:1016A30001121027FBBA0112102747BB01121027A2
:1016B30062BB0112102793BB01121027B0BB0112AA
:1016C3001027BCBB0112102730BD0112102749BDE2
:1016D30001121027B0BD01121027C3BD011210273C
:1016E300D1BD0112102785BE0112102769BF011257
:1016F30010276FC001121027F5C001121027FFC079
:10170300011210276CC10112102783C10112102787
:10171300B5C101121027EEC10112102718C2011220
:10172300102779C20112102799C201121027B7C2DC
:1017330001121027FDC20112102723C40112102722
:1017430070C4011210279FC40112102715C501127E
:1017530010273DC50112102776C50112102784C535
:1017630001121027DCC5011210272BC60112102706
:101773006AC6011210279AC601121027C6C60112A3
:101783001027D1C601121027EFC601121027B1C7C7
:1017930001121027BBC701121027F6C70112102729
:1017A3000CC80112102715C8011210276AC80112AC
:1017B30010277EC8011210278CC9011210279FC958
:1017C30001121027B4C90112102756CA011210279B
:1017D300D9CA0112102797CB01121027A2CB0112ED
:1017E3001027C8CC01121027E4CC0112102736CDE4
:1017F3000112102775CD011210278ACD011210276F
:10180300CCCD0112102719D00112102797D0011245
:1018130010270AD1011210272CD30112102744D309
:101823000112102747D30112102753D30112102797
:1018330067D3011210276FD301121027A2D301120D
:10184300102752D401121027C8D4011210273BD5F8
:1018530001121027EFD501121027A4D60112102769
:10186300C3D60112102763D7011210276FD70112B5
:1018730010279AD7011210279DD70112102707D8D6
:10188300011210272FD90112102707DA011210278E
:1018930092DA01121027ABDB0112102768DC011268
:1018A3001027A1DC01121027D2DC0112102772DDF0
:1018B30001121027A2DD011210277DDE011210276D
:1018C30016DF01121027A1DF0112102752E00112C7
:1018D3001027D4E00112102706E10112102747E177
:1018E30001121027E0DB0212102745DC0212102739
:1018F30082DC02121027D1DC02121027E7DE02126B
:101903001027CAE00212102734E4021210276FE4F2
:101913000212102791E402121027F4E40212102796
:1019230028E5021210274BE50212102778E5021270
:101933001027D4E5021210271BD00212102799D0CA
:1019430002121027CFD0021210273BD10212102708
:10195300AED202121027CAD2021210270FD30212DC
:1019630010279DD302121027F6D30212102723D576
:101973000212102735D60212102792D60212102710
:10198300FED6021210275FD702121027A0D7021229
:1019930010274DD8021210275FD9021210278AD9B7
:1019A30002121027D5D9021210271CDA02121027AF
:1019B300AEDA0212102769DB0212102777FE01123A
:1019C300102788FE01121027D9FE011210271EFFCF
:1019D30001121027C8FF01121027B0C603121027E7
:1019E30035BB031210278DBC031210273F7500125D
:1019F3001027E475001210270476001210272476AE
:101A03000012102738760012102790760012102744
:101A1300C07600121027417800121027E7780012D1
:101A23001027C979001210271A7A001210275D7A3D
:101A330000121027A07A00121027067B001210272D
:101A4300277B00121027B37B00121027E47B0012C0
:101A53001027587C00121027067E00121027E07E04
:101A630000121027227F001210277C7F00121027FC
:101A7300D5FD02121027F6FD021210272CFF0212C9
:101A8300102756FF021210276EC803121027E9C849
:101A930003121027F4C8031210273AF20112102779
:101AA3003DF201121027F7F20112102722F301125F
:101AB300102769F3011210278EF301121027AFF3D9
:101AC30001121027E3F3011210271CF4011210274F
:101AD30045F5011210277CF5011210279CF5011220
:101AE300102737F601121027FCF60112102733F7DF
:101AF30001121027A8F8011210274BF90112102721
:101B030044FA011210276DFA01121027C1FA0112CB
:101B1300102787FB01121027B5FB011210274AFD7E
:101B230001121027CBFD01121027FEFD0112102711
:101B330020E6021210272AE60212102776E6021286
:101B43001027E4E60212102705E7021210271CE70C
:101B530002121027CCE70212102760EA02121027A4
:101B630069EA02121027BCEA02121027E5EA021200
:101B730010274CEB02121027DDEB021210271FEC8B
:101B83000212102769EC02121027C8EC0212102768
:101B930059ED0212102798ED02121027D7ED021209
:101BA3001027E2B8011210271EEE0212102730EEA2
:101BB300021210274FEE0212102758EE02121027BE
:101BC3000EEF021210274EEF02121027F1920312AA
:101BD3001027C49303121027DE9303121027EF93E9
:101BE30003121027049603121027239603121027BB
:101BF3004BB70312102781B703121027CAB703127A
:101C030010271AB903121027F1600012102730624F
:101C1300001210276C62001210272B640012102789
:101C23002C8302121027E766001210272B6700127D
:101C33001027B468001210274C6900121027B469EA
:101C430000121027556A00121027976A00121027F6
:101C5300D76A00121027626C00121027D26D00128F
:101C63001027F76F001210272570001210274C70F1
:101C730000121027557000121027B07000121027A1
:101C8300437100121027617400121027E2740012CE
:101C93001027DFFF01121027A6FF02121027869ECE
:101CA30003121027999E03121027369F0312102741
:101CB300719F031210278C9F03121027B19F0312E9
:101CC3001027F69F0312102727A00312102758A0EE
:101CD30003121027DEA10312102713C103121027CA
:101CE30049C10312102765C103121027A7C10312AC
:101CF3001027B7C1031210274CC203121027EBA100
:101D03000312102753A203121027E2A20312102773
:101D1300DEA3031210270AA40312102705A503123A
:101D2300102793C002121027EBC00212102795C18F
:101D3300021210273DC2021210279AC20212102764
:101D4300F3C20212102707C302121027D1C40212D2
:101D530010274CC50212102776C50212102733C76D
:101D6300021210274EC7021210279DC70212102716
:101D7300B3C702121027C0C702121027F4C70212FA
:101D830010270AC80212102790C8021210279FC8F2
:101D930002121027F8C80212102752C90212102784
:101DA300A0C902121027AACA0212102725CD0212B7
:101DB3001027BFCD0212102701CE0212102796CE94
:101DC30002121027B3CE02121027B6CE021210272A
:101DD300B9CE021210272CCF0212102747CF0212BE
:101DE300102773CF02121027AECF02121027B1CFE4
:101DF30002121027C4CF02121027EBCF02121027B2
:101E0300EBCA03121027F7CA0312102731CB0312B0
:101E13001027C2B002121027EDB002121027B9B179
:101E2300021210273EB202121027A7B20212102785
:101E3300F3B20212102772B30212102704B4021273
:101E4300102790B402121027D2B4021210273EB901
:101E530002121027BEBA02121027FDBA021210276F
:101E6300C6BB021210277ABC021210272ABE021226
:101E73001027B6BE021210277CE10112102736E2AA
:101E830001121027A8E201121027B7E2011210274E
:101E930031E301121027A0E301121027AAE4011273
:101EA3001027D3E40112102773E501121027C1E5AF
:101EB3000112102731E60112102765E701121027DE
:101EC30041E801121027B2E8011210272FEA01128C
:101ED3001027F1EA011210278CEB01121027E7EB10
:101EE3000112102752EC0112102756ED0112102790
:101EF30017EF01121027B6EF0112102728F0011275
:101F03001027E5F00112102701AB0312102755AB80
:101F130003121027ADAB03121027F8AB03121027DF
:101F23005AAC03121027F3AC031210275BAD031254
:101F3300102767AD03121027F5B40312102726B537
:101F430003121027E0B50312102746B60312102719
:101F5300B7B603121027C7A80312102753AA0312F8
:101F63001027CABF03121027F4BF0312102754C04F
:101F7300031210278EC003121027DDC0031210278F
:101F8300A3C703121027B4C70312102754C80312A0
:101F930010277DB9031210278BB903121027E4CC45
:101FA3000312102755CA0312102765CA03121027FC
:101FB30080CA03121027E1CA03121027AEC5031209
:101FC300102733C60312102797C6031210279CC489
:101FD30003121027BEC40312102728C503121027AB
:101FE30033C50312102777C503121027008003128D
:101FF30010278F80031210279D8003121027DE8085
:1020030003121027F880031210278281031210276E
:10201300A78103121027C48103121027E181031241
:1020230010271582031210273A8203121027828287
:1020330003121027FD82031210270D8403121027A9
:102043007C97031210278A97031210270498031210
:102053001027E89803121027A19A03121027C2CC65
:1020630003121027B3F80212102720F902121027C7
:10207300E1F90212102751FA021210275AFB021239
:102083001027D2FC0212102736FD021210278BFDF7
:102093000212102794FD02121027A3FD021210272B
:1020A300B6FD02121027CCFD02121027CC840312B6
:1020B30010272185031210271D87031210274F872E
:1020C300031210277187031210278A870312102720
:1020D300A38703121027AD88031210274889031220
:1020E300102769BE031210278DBE03121027A6BE48
:1020F30003121027D9BE031210270ABF0312102799
:1021030038BF031210279ABF03121027A9BF031267
:102113001027B3BF03121027C0BF03121027A2ADAD
:1021230003121027C8AD0312102705AE03121027A0
:1021330014AE0312102733AE031210279BAE031203
:102143001027A4AE0312102703AF0312102727AFE3
:1021530003121027E6AF03121027F3AF0312102761
:1021630004B003121027FBCB0312102718CC031261
:102173001027BF89031210271D8B031210272A8BE8
:10218300031210273D8B031210275C8B03121027B9
:10219300728B03121027868B03121027FB8B0312FB
:1021A3001027608C03121027108D03121027E58D62
:1021B30003121027F58D03121027048E0312102724
:1021C3001CC90312102740C90312102768C9031240
:1021D300102790C90312102732B00312102759B0E9
:1021E300031210277AB003121027DFB0031210274F
:1021F30098B203121027B1B203121027BDB2031213
:102203001027D1B203121027EFB203121027F9B22D
:102213000312102703B30312102716B30312102758
:1022230069B303121027A2B303121027D1B3031209
:1022330010271FB4031210276EB40312102789B49A
:102243000312102793B403121027A4B40312102708
:10225300EAB403121027907F0012102777EF0212BF
:102263001027A1EF02121027BDEF02121027D0EFA3
:1022730002121027E6EF0212102743F00212102772
:1022830076F002121027B2F402121027D8F50212C8
:1022930010270BF60212102757F60212102783F7A6
:1022A30002121027ABF702121027C0F702121027F1
:1022B300D0F70212102714F80212102775F8021231
:1022C300102785F80212102756C20312102771C275
:1022D300031210279AC203121027B4C20312102745
:1022E300D9C203121027F8C20312102710C3031216
:1022F30010273EC30312102758C303121027B7CB6E
:1023030003121027069B031210270D9B031210279D
:10231300199C03121027499C031210276F9C031268
:102323001027929C03121027B49C03121027EE9CD3
:1023330003121027549D031210278D9D031210279B
:10234300D99D03121027069E03121027269E0312FF
:102353001027DCBC03121027EEBC03121027D9BDD3
:102363000312102766BE0312102789C30312102716
:10237300FBC30312102739C4031210277AC40312B4
:10238300102729A50312102745A50312102794A58A
:1023930003121027B0A503121027E1A5031210277B
:1023A300F1A503121027DDA603121027E7A60312D7
:1023B3001027F4A60312102704A80312102718A845
:1023C3000312102721A8031210273D8E0312102792
:1023D3008292031210278792031210276DCC0312E7
:1023E3001027B5C903121027DFC90312102737CCF2
:1023F300031210279ACC03121027E17F0012102733
:1024030073A00212102791A502121027AAB7011276
:10241300102707B701121027B4B50112102765B3AF
:1024230001121027F6B201121027AEB201121027C3
:1024330011B20112102704B20112102712AF0112B8
:10244300102764AC01121027058302121027C182E2
:102453000212102738AB011210278CAA0112102781
:10246300868202121027608202121027DDA8011251
:10247300102798A6011210271FA601121027C6A520
:10248300011210275AA50112102731A50112102796
:1024930024A301121027F0A201121027BDA20112DA
:1024A3001027A1A201121027C7A1011210277FA193
:1024B30001121027B49F01121027349F0112102715
:1024C300319F011210273C9E011210270A9E011210
:1024D3001027479D01121027729B01121027039B9F
:1024E30001121027D59A01121027478202121027D2
:1024F300F381021210274F8102121027C5800212A6
:102503001027648002121027D29A01121027BF9A53
:1025130001121027579A01121027469A0112102709
:10252300128002121027279901121027F198011225
:102533001027B49801121027559801121027008014
:102543000212102754640012102724980112102736
:10255300DF9401121027D093011210275F93011209
:102563001027249301121027EF9201121027E392F0
:10257300011210274392011210278A91011210278A
:102583005D8F01121027E98C01121027A78C01120D
:102593001027728B01121027278B01121027598ADB
:1025A30001121027B089011210274C89011210273C
:1025B30086890112102700B9011210270CEE0200C0
:1025C300000080FBE47300013636010100010201C3
:1025D30000010301000104010606050200000701D2
:1025E30000340801000F090401010D0100FF0E086A
:1025F300000017020000190100FF1A0100011B016E
:1026030000FE1C0100081D0200001F010001200143
:102613000001210200002301000F24020000260113
:10262300000127010008280200FF2A0100072B01EF
:1026330002402C0100002D0100012E0100012F0199
:1026430000FF30010B1C310800003A0100083B0178
:10265300000F2F01000001017101010101011101AE
:1026630001013101010101018001100161013B0000
:10267300140063017301720162014301000113013C
:1026830006013D01350004011201000100010001B2
:10269300000104010401330133013C01440132010F
:1026A30036000001000165010001350081010001D0
:1026B3000501820183010001030071003001600004
:1026C30011007000310220035004800010006100EB
:1026D30000001400630073007200620043000000F6
:1026E30013000600000000000400120000000000B8
:1026F3000000000004000400370037003C024400DF
:1027030000000000000000006500000035008100AB
:1027130000000500000083000000010371030103B2
:102723000103010301030103220302030103100355
:10273300000300030003000300030003000342033C
:102743000003240306030003000304031203250309
:1027530023032503230304030403000300030003EB
:10276300440300030003230300036503210035032F
:102773008103000305030003000300030302710246
:1027830030016002110270020102020202028002A1
:10279300100261023A004100630273027202620294
:1027A3004302000213023800000200020402120274
:1027B3000002000200020002040204023700370094
:1027C3003C024402000239000002000265020002DA
:1027D30035028102000205028202830200023600F2
:1027E3000100060000000F000000000000000000D0
:1027F3000000000003FFFF00000403FFFF0000FFD1
:10280300FF0FF4010005C4040320000100030B00C3
:102813000000000000000003010F0100B41E0200CD
:102823002A1E0300301E0400361E05003C1E06004F
:10283300481E1100601E1400661E15005A1EFFFF7D
:102843000000341764173A1740175E1752174C17D6
:102853006A1770177617821746172E17281703EA79
:10286300F5E5D5D5C5B5A595958585757565655585
:10287300554545353525251515050A001502CA1494
:1028830005DC1407D0140CAC140DBE14FF000000BB
:10289300160F00000B150B020002220F3200000678
:1028A3001E1830183618FE163C18F81604177E1832
:1028B3009C18A218841890188A180C0E020B040B8B
:1028C3000A0708000F00383C3E363B3B352B432CB0
:1028D3000001191618161615230300000349484270
:1028E3004D1817250502303017181921301B1D1FED
:1028F30030303016181920231A1C1E307218421853
:10290300481854184E1858177C17961888178E179E
:10291300020402010101010902000000000000009D
:10292300BE040A040015000E00280008040C0A0364
:102933000908FF1E1E0F040C0574F7120A6FE990B5
:1029430003B0F0900365E4F01223529003B5E4F072
:10295300A3F09003B1F0A3F012163812235890039A
:1029630034E4F0A3F090293893FA79021223B802E1
:1029730055D274F2120A6FEAFEEBFF54806069903D
:1029830003B0E0F9121B728A088B09EA4509604F0C
:102993007C0080010CEC75F003A4F8A9F0747D2889
:1029A300F582742839F583E493F4602CE493F88575
:1029B30008828B83E06870DCAA08EC75F003A4F846
:1029C300747E28F582742839F583E493C0E074019A
:1029D30093F583D0821225C7AA08AB09121B66EEB2
:1029E300FAEF6480FB022B42EF5420601D12155A4C
:1029F3008A088B09EA4509600A1214BEAA08AB09C2
:102A0300121B66EEFAEF642080DAEEA2E0501A9011
:102A1300036AE0640F700B7900121488E9600312F3
:102A23002B45EE6401FAEF80BB54207003022B1098
:102A3300750C001240178B09EA450970107C027D62
:102A4300007A207B009003B0E0F9121CBC7C007973
:102A5300047A007B001215368A088B0980188508D2
:102A630082850983A3A3A3A3A3A3A3A3A37401F0B0
:102A7300850A08850B09E5084509606D7C00790422
:102A8300AA08AB091215368A0A8B0B750C01E508E7
:102A93002404F8E509123DBB24FFF0A3E034FF1240
:102AA30060AE70CC850882850983A3A3A3A3A3A3E7
:102AB300A3A3A3A3E0640170A5850882850983A36A
:102AC300A3A3A3A3A3E05404709485088285098378
:102AD300A3A3A3A3A3A3A3A3A37406F07AB7850810
:102AE30082850983122C7180871215067C00790177
:102AF3007A007B001215368B09EA45097009E50C4B
:102B030070057A20124F71EE6420022A28EF5402D6
:102B1300600B121632EEFAEF64020229E7EF540457
:102B23006019125108125028790190036312538CD3
:102B33001213CEEEFAEF64040229E77A007B000257
:102B43002D78900D2512340F1214A022C082C08359
:102B530074EA121106851882851983AA82AB8379D8
:102B63004B12238E74081213377402F07409121374
:102B730037AA82AB83795012238E7413121337E46E
:102B830012555B1223AC741602453574F7120A6FA3
:102B930074E1121106EAFEEBFFEE4F6033851882F3
:102BA300851983AC82AD8312157E7406121337E048
:102BB300601E7417121337E0FD7401121337E0FC23
:102BC300EEFAEFFB7900121BA2E9600479A48002FC
:102BD30079000255CD74F6120A6FEAFEEBFF8E827E
:102BE3008F83A3A3A3A3A3A3E05440601B125A4A59
:102BF300122D3F60067AFF7BFF801A8E828F83122D
:102C030041C1FAA3E0FB80031215A274FE6A7003AC
:102C130074FF6B6041125A4A124FB51215F6E98ED2
:102C2300828F836006122C6AE48005122C6A740179
:102C3300F07C8E7D148E828F8312538C1223B2E923
:102C4300F5087015EE4F60097901EEFAEFFB1215E6
:102C530012A908024FE67508CDAA088E828F831247
:102C63002C71E960DF80EAE0240D12469022E02413
:102C73000C124690E0F912149A2274F6120A6FE9C4
:102C8300FEEAFF7A0F7B00121B60EA4B60198A820F
:102C93008B83740CF0EEA3A3F0EF8A828B83A3F0F3
:102CA3001250117900802FEEF912153C8A088B0916
:102CB300A808A909E849601C88828983A3A3A3A360
:102CC300A3A3A3A3A37406125CD5E0F9121452EED6
:102CD300F91215187910024FE6C082C08390036A77
:102CE300E0640F7014EA4B6010900365E0640860C1
:102CF30005E064047003122CFF02455FEAFCEBFD60
:102D03007A017B009003B0E0F9121CB622C082C0A6
:102D1300837900EA241DF582EB1241BE24FD600B8A
:102D230014600824FD600424FD70010902455F8ED0
:102D3300828F83A3A3A3A3A3A3A3A3A3122D43229D
:102D4300124206FB1215F6E9228E828F83A3A3A3F8
:102D5300A3A3A3A3A3A3122D436402228E828F8372
:102D6300A3A3A3A3A3A3A3A3A3124556900356E02F
:102D730068221210727F06020D2474F4120A6F7413
:102D8300FD1211068A088B098A828B83A3A3E0F9BB
:102D930012153C8A0A8B0BAE0AAF0BEE4F7003027F
:102DA3002E84850882850983A3E064F16030850859
:102DB30082850983A3E064CD602485088285098325
:102DC300A3E0641A6018850882850983A3E064E997
:102DD300600C850882850983A3E064E170087900AB
:102DE300121512E9706C850882850983A3E0C0E09F
:102DF3007402121337D0E012453AEEF0A3EF123803
:102E030065851882851983AA82AB8370051213B670
:102E130080031215DE7402121337E064E970338EF7
:102E2300828F83122E90750A01780A121048750A50
:102E3300E9780A121048E508240CF582E5091233F3
:102E430057123842FCA3E0FD8A828B8312385C124E
:102E530010728E828F83A3A3A3A3A3A3A3A3A3E030
:102E6300640270108E828F83A3A3A3A3A3A3A3A33F
:102E7300A37406F0850882850983A3A3E0F91215DC
:102E830018121506900D29122B48023414E0F8A3EA
:102E9300E0F9E8FAE9FB2274F4120A6FEAFEEBFFA9
:102EA3007508008E828F83A3A3A3A3A3E06042755A
:102EB30008088E828F83A3A3A3A3A3A3A3A312446F
:102EC300698B0BEA450B601075082C8E828F83A3E8
:102ED300A3A3A3A3E0D2E0F08E828F83A3A3A3A333
:102EE300A3E0540364016003022F83430811022FFC
:102EF30083EE24181234216033EE241A1234217025
:102F03000F122D5F7003A3E069707575082280703E
:102F1300EE241BF582EF122F88241AF582EF123864
:102F23006DEE2419125A7E1214408054122D4C70E7
:102F330003750801122D5F7003A3E0697006E508AD
:102F4300D2E1F508E50860158E828F83A3A3E070B4
:102F530006E508D2E58004E508D2E6F508122D322D
:102F630064017006E508D2E0F5088E828F83A3A37F
:102F7300E0600D122F9664016006E508C2E0F508D3
:102F8300A9080234191241AC122F8F22E0FCA3E0EE
:102F9300FDEE221241A61241DEF91215E4E922C028
:102FA30082C08379018A828B83A3A3E0C394024006
:102FB30001198A828B83A3A3A3A3E0C394024002D3
:102FC30079008A828B83A3A3A3A3A3A3A3A3A3E0D0
:102FD30064F87003A3E0F460458A828B83A3A3A300
:102FE300A3A3A3A3A3A3E064F97003A3E0F4602E57
:102FF3008A828B83A3A3A3A3A3A3A3A3A3E064FABB
:103003007003A3E0F460178A828B83A3A3A3A3A313
:10301300A3A3A3A3E064FB7003A3E0F4700279000D
:103023008A828B83A3A3A3E0F8900353E068600232
:10303300790002455F74F0120A6F74DE121106EA1A
:10304300FEEBFF8E828F83A3A3A3A3E0600E900DFC
:1030530027124FDD6006900D27122B4874031213BD
:1030630037AC82AD838E828F83A3A3A312505F12EA
:103073005898E9600F7403121337AA82AB831214B2
:10308300B8E97008790112236402334CEE241B1251
:1030930041B174101213371250287409121337E018
:1030A3006021741A121337E0FD7404121337E0FC25
:1030B3008E828F8312538A7901121BA2E9600479ED
:1030C3000280C37403121337AA82AB831214B2E9CA
:1030D300F50A7409121337E0702A90034DE0602457
:1030E3007422550A6422601C7442550A644270CFEC
:1030F300742012133712336A600A742012133712C2
:10310300336370BBE9A2E650417403121337AA82FA
:10311300AB831214A6E970030230877420121337AD
:103123001241C16403700F7420121337A3124FCFDF
:10313300A3E0640D60147403121337AA82AB8312E5
:103143001608E96401700302334CEE242C12335445
:103153001236787003A3E069701C750800780812B2
:1031630010487808121048EE242E125A7E1233703B
:1031730012385C1210727409121337E070030232B2
:103183002912337012538C12165C8A088B09EA4594
:103193000970030232C67404121337E0F88E828F6B
:1031A30083A3A3E028F8A3E03400F9E8240D123345
:1031B3005B8A828B83A3A3A3E068601CE88A828B6B
:1031C30083A3A3A3F090890212130C8508828509B7
:1031D30083A3A3A3A31213007904E912133712588C
:1031E300752AF8A3E034008882F583A3AA82AB830F
:1031F300121B4E8A0C8B0D8C0E8D0F850882850950
:1032030083A3A3A3A3780C120FFF400302334C90B4
:1032130088FA780C1211AD850882850983A3A3A3CC
:10322300A3780C1212A8900365E064046008E064BC
:1032330009600302334CE50AA2E54003023304EEBE
:10324300242E123421851882851983F0EE242F123F
:103253003421C0E07401121337D0E0F0EE243012B1
:103263003421C0E07402121337D0E0F07414121347
:1032730037E064017027740E1213371241B7EE243E
:1032830012123421687003A3E0697011740C1213D5
:1032930037122D5970077414121337E4F0EE2424F7
:1032A300123354120E257404121337AC82AD837497
:1032B30007121337AA82AB831213BC740412107261
:1032C30002334C9003AAE0640160030232297420A4
:1032D30012133712336A7009E50AA2E65003023269
:1032E300297410121337E0F47003A3E0F4605AEE6C
:1032F300FCEFFD7403121337AA82AB831214C4804C
:1033030048A2E65044742012133712539B701A7468
:103313001A121337E0640270307403121337AA824F
:10332300AB8379001215D280207420121337123325
:10333300637016741A121337E06404700C7403126A
:103343001337AA82AB831215CC7422025747EE249B
:103353000BF582EF1241AC22F582E9125041F822BB
:10336300125A5CE06407221241DE640622EE242A2C
:103373001241A9122F8F24121241A92274F4120AA6
:103383006FEAFEEBFF8C088D09900602E0600F12D6
:103393002D5F7003A3E069700512142E804F79002E
:1033A30012537F12145E8A828B83E58245836035D4
:1033B300A3A3A3A3A3A3E05418602AE508241BF541
:1033C30082E509123357120E29123A551233571256
:1033D3000E29EE2418125A7E1233F212147074045A
:1033E300121072800879001233F212143480278E7F
:1033F300828F83A3A3A3A3A3A3A3A3A3122F8F2487
:103403000BF582EF12340B223400F583124206FBD4
:103413002274031210727F04020D24EE2417F58226
:10342300EF1250412274F7120A6F74F7121106EA71
:10343300FEEBFF900365E06403600DE06401600848
:10344300E0640960030234F28E828F83A3E0707E0E
:103453007C007D007A027B0012235EEE2402FAEFE9
:10346300123DC21241B790035612502879531223CA
:103473009479001234F7E06409600312388A8518DE
:10348300828519837401124FFE9003657404F074EE
:1034930001121337AA82AB83794A12238E74011265
:1034A3001337AC82AD837A5B7B0312237C90035684
:1034B30012588E7A03123894900350E0A2E350041A
:1034C300D2F08002C2F0124FEB122B45801E8E8287
:1034D3008F83A3AE82AF83FC7D007A037B1012231C
:1034E3005E8E828F83E0F91234F7E4F01214EE74E7
:1034F300090255CF90036312340F1213CE90036564
:1035030022C082C083900334124FDD701F90036585
:10351300E014600924FC600A14600C800F90033CE3
:103523008032900338802D90033A8028E849600860
:1035330090033512383C700C8A828B83A3E0F91216
:1035430013C2801B900335123AF1700512162680C0
:103553000E9003D2124FDD6006124FCF1225C70221
:10356300455F74F4120A6F74FB1211068A088B0903
:103573007A0F7B00121B608A0A8B0BAE0AAF0BEE2D
:103583004F700302366C8E828F8312555979501215
:10359300238E850882850983A3E060030236549055
:1035A3000363E0F47003A3E0F46034900363E06426
:1035B300FE7003A3E0F46027851882851983123611
:1035C300787003A3E0696017850882850983A37473
:1035D300EA1238727A637B037950122394807285DE
:1035E3001882851983125A3D1250287A567B037923
:1035F3005312238E9003561250591250287A597B36
:1036030003794B12238E7A587B0379E112238E9030
:10361300036AE0C3940F5021900358E0C0E07402A2
:10362300121337D0E0F074041213377401F004124C
:103633001337AA82AB831223A6750A00780A1210E5
:1036430048780A121048900D4BE0F91238531210C3
:1036530072850882850983123671A3F0900365741D
:1036630003F0EEFAEFFB1250117405023416A3E0D7
:103673008E828F8322125A41E06822124697227467
:10368300F5120A6F74D81211068A088B098A828B85
:1036930083A3A3A31241E37415121337AC82AD8342
:1036A3008A828B83A3A3A3A3A3A3A3A3123842FA5F
:1036B300A3E0FB1214F47415121337E0706B850842
:1036C30082850983A3A3A3A3A3A3A3A3E0C3940B0A
:1036D30040578E828F83A3A3A3A3A3A3A3A3E064D2
:1036E300027046EE240B123421F4703D900365E022
:1036F3006402603AE064066035900334124FDD6083
:103703000512383C604F900365E064086005E0648F
:103713000470167417121337E0F9741C121337ACC4
:1037230082AD8312537F1214FA7428025F5B9003F5
:1037330034124FDD701F750800780812104878089E
:10374300121048EE2410123354125A96123EAA1243
:10375300385C1210728E828F831252FB123DD41288
:1037630041B77402121337125028EE240D1234217C
:10377300C0E07404121337D0E0123865F508A3E0F3
:10378300F509740F78081212C67405121337E50889
:10379300F07419121337E0C0E07406121337D0E047
:1037A300F0741B121337E0C0E07407121337D0E034
:1037B300F07416121337E0C0E07409121337D0E027
:1037C300F07417121337E0C0E07408121337D0E017
:1037D300F0EE2410123421C0E0740A121337D0E043
:1037E300F0741A121337E0C0E0740B121337D0E0F1
:1037F300F07427121337E0C0E0740C121337D0E0D3
:10380300F0741C121337A982AA8389088A09750ADE
:103813000078081210407C087D007410121337AA38
:1038230082AB83124B8C121072851882851983AA7E
:1038330082AB831213C802372C123AF7640122E0D9
:10384300F98A828B83A3A3A3A3A3A3A3A3A3E022A5
:1038530090036312589290035912340F1215B474E3
:103863000222F0EE240B12503E22125041FA22F0B3
:103873007A567B03795312387D221223947A597B2B
:1038830003794B1223942290036312340F121656BA
:10389300227B0012235E9003591258927A047B0014
:1038A30012235E22F0125AA12274F2120A6F74F8E4
:1038B300121106EAFEEBFF8C0A8D0B890C85188228
:1038C300851983AC82AD83758388758296740812DB
:1038D3000FA0F50DEEFCEFFD851882851983AA82F2
:1038E300AB8312525C7003750D019003B1803BEE04
:1038F300FCEFFDE508240BFAE509340012525B6086
:103903001E850882850983A3A3E0650C70118508D1
:1039130082850983E0650A7004A3E0650B6038E5DE
:10392300082414F582E509123357123DCCE5084506
:10393300096024E50DA2E040B6850882850983E08D
:10394300650A7004A3E0650B70D585088285098339
:10395300A3A3E0650C70C8AA08AB097408022D750F
:10396300C082C0839003B102455C74F7120A6F9062
:1039730003B11242068012EA2414F582EB12335784
:103983001241E3121C02EEFAEFFBEA4B70E99003DB
:10399300B1E4F0A3F00255D27F07020D2474F112B3
:1039A3000A6FEAFEEBFF890A8C088D098E828F83EA
:1039B300E08C828D83124473AE82AF83E0124C4C51
:1039C300124BBDC4124C4C123A5EE054038C828DF0
:1039D30083124BBBA2E2E4338C828D83124BBA1366
:1039E3001313541F124C4C124BB9A2E7E4338C82CD
:1039F3008D83A3A3A3A3123A5E8E0C8F0D750E00C5
:103A0300780C1210407C087D00E508240712580149
:103A130012107212586C8E0C8F0D780C1210407CA1
:103A2300037D00E508240F125801121072E50AC342
:103A3300940F40148E828F83A3A3A3E0C0E0123AB5
:103A430055123357D0E08006123A55125CC9F00282
:103A5300399BE5082412F582E50922A3A3124477D2
:103A63000EAF832274F4120A6F74F9121106EAFE80
:103A7300EBFF8908900334124FDD600E123AF170A8
:103A830009EEFAEFFB121620805F900363E06E707D
:103A930003A3E06F70537401650860097A777B03B1
:103AA30012525C70447A007B0212401B8B0BEA4576
:103AB3000B703690036612130C85188285198312D6
:103AC300130090036CE0C0E07404121337D0E0F0ED
:103AD30074051213377401F0740612133712555913
:103AE300121392E9609B1213987407023416123A68
:103AF300F7640222125A5DA3A3A3A3A3A3E0227433
:103B0300F5120A6F8A088B098A828B83A3AE82AF70
:103B130083E0F91213E68E828F83E064EB600C85F9
:103B23000882850983A3E064E17009850882850919
:103B330083A3E4F0122B45750A01780A1210488515
:103B43000882850983A3E0F50878081210487900F4
:103B5300123853121072121506025F5EEAF0A3EBDD
:103B6300F002455F74F6120A6F9003B4E0701B7C99
:103B73000079017A007B00121536EA4B600C8A82C9
:103B83008B83124FDD6003121494024FE6C082C090
:103B930083124003401079FF121530E9F890293061
:103BA300E493C398500479018002790002455F745D
:103BB300F0120A6F8A088B09890B750C008A828BB5
:103BC30083A3A3A3A3A3A3A3A3E0F912153C8A0E83
:103BD3008B0FAE0EAF0F750A01EE4F6003023C90E0
:103BE300850882850983A3A3A3A3A3A312588E8563
:103BF3000882850983A3A3A3A3A3A3A312498C12B9
:103C0300538C1215248A0C8B0DAE0CAF0DEE4F7036
:103C130003023DB38E828F83A3A3A3A3E4F0A3F097
:103C2300E508240B123DBFE0C0E0123351D0E0F0B1
:103C33001215FCEE240CF582EF124FB1E508240EA9
:103C4300F582E5091241B4EE240EF582EF125025F8
:103C5300750C01EE2406F8EF123DBB547FF0A3E090
:103C630054FC125AF3E054046003023D16900D2DE8
:103C730012497D740778081212328E828F83A3A3B0
:103C8300A3A3A3A3E04508F0A3E04509F08E828F28
:103C930083A3A3A3A3123DCA740778081212C6E52F
:103CA300085407F508E50B607A8E828F83A3A3A3DC
:103CB300A3A3A3A3A3A37402124BBE240D12468C89
:103CC300E0A2E2500B900351125059A3A3125028C3
:103CD300E5087003023D88EE2406F8EF3400F9E8A6
:103CE300FAE9FB8A828B83E0547FFCA3E054FCFD5A
:103CF300E50824FFF508E434FFF509740778081292
:103D03001232EC4508F8ED4509F98A828B8312508B
:103D13002880728E828F83A3A3A3A3A3A3E04480EE
:103D2300023C8FE5087005750A0080598E828F83E7
:103D3300A3A3A3A3A3A3E054206012121B5AEA5423
:103D43007F245F8E828F83A3A3A3A380238E828F7E
:103D530083A3A3A3A3A3A3E05410600A121B5AEAEC
:103D6300540F240A80DD8E828F83A3A3A3A374013F
:103D7300F0A3E4123DD474041240128B09EA4509FE
:103D83007003124FA4E50CA2E050288E828F83A308
:103D9300A3A3A31255BFF9EEFAEFFB12152AE960AC
:103DA30012124FD3600312419CEEFAEFFB121C0276
:103DB300750A00A90A02574A12511C22FAE509346E
:103DC30000FB8A828B8322A3A3E0F508A3E0F50915
:103DD30022123DD82212581DA3A3A3A3A32274F435
:103DE300120A6F74F71211067E0012153CEA4B702B
:103DF30003023EA38A828B83A3A3A3A3A3A3A3A3A8
:103E0300A3E064066003023EA38A828B83A3A3A379
:103E1300A3A3A3A3E0FF8A828B8312469FE0C0E0A3
:103E23007408121337D0E01241D71252621250288D
:103E330012154EEF5408606685188285198312584F
:103E43008E7A007B0012151E8B0BEA450B704F9088
:103E530003631242C71223BE7C007D007A007B00FD
:103E630080288E828F831241C1F47003A3E0F46033
:103E73002D900363123EAA12538C1220B2E9641AE6
:103E8300601C7C007D00EEFAEFFB12151E8A0A8B84
:103E93000BAE0AAF0BEE4F70C979001223C47E013B
:103EA300EEF97409023416123EAE22E0FCA3E0FDE3
:103EB3008E828F8322C082C083EA4B70059003B544
:103EC30080068A828B83A3A31240C760258A828BD4
:103ED30083A3A3A3A3A3A3A3E0540860E5EC4D60CD
:103EE300158A828B831241C16C7003A3E06D70D27B
:103EF30080047A007B0002455F74F2120A6FEAFEC7
:103F0300EBFF890A8C088D097A107B00121BFCEAEF
:103F13004B603F8A828B83A3A3A3A3A3A3A3A3A3DF
:103F2300E41241C5A3E50A125A63A3123F5F8A82D2
:103F33008B83A3A3A3A3E4F0A31241D1A3F012584C
:103F4300F7EA240CF582EB124463123F58A3A3F063
:103F5300A3F0022D78A3F08A828B8322A3A3E50822
:103F6300F0A3E509F02274F4120A6FEAFEEBFF896D
:103F7300088C0A8D0BEE4F60557401650870147937
:103F830001121530E9F8902934E493C398500F795E
:103F930011806A74046508702F12400340F18E8209
:103FA3008F83A3A3A3A3A3A3A3A3A3E5081244738B
:103FB300A3125FE88E828F83A3A3E4F0A3F09003A0
:103FC300B5124FDD6021800D7402650860D079C1A0
:103FD300802BE0F8A3125052A3A31240C788828912
:103FE30083A3A370ED80039003B5EEF0A3EF12401B
:103FF300128B0BEA450B7003124FA479000234199C
:104003007904121530E9F890293BE493C39822F020
:10401300124017227A207B009003B0E0F9121CC8EB
:1040230022C082C083E9F879009003B5801D8A829B
:104033008B83A3A3A3A3A3A3A3A3A3E06860057493
:10404300FF687001098A828B83A3A31240C770DEC5
:1040530002455F74F7120A6FEA4B70059003B5804F
:10406300068A828B83A3A31240C760248A828B8330
:10407300A3A3A3A3A3A3A3A3A3E06970E4EC601485
:104083008A828B83E0240D12587FA2E240D38004FE
:104093007A007B000255D2C082C0839003B58006AC
:1040A3008A828B83A3A31240C760128A828B83A365
:1040B300A3A3A3A3A3A3A3E06970E580047A007B71
:1040C3000002455F12340FEA4B2274F2120A6F8A20
:1040D3000A8B0B8C0C8D0D750800750900EA450BD6
:1040E300602E9003B580068E828F83A3A312411A9C
:1040F300601EAC0CAD0DEEFAEFFB850A82850B83D7
:104103001225C7E9640170DFEEF8EFF98808890921
:10411300AA08AB09022D78E0FEA3E0FFEE4F22745C
:10412300F7120A6F9003B51241B77C007D00800D32
:10413300E8FCE9FD88828983A3A31241B7E84960BB
:1041430030EA687002EB6970E79003B512538CE8AC
:104153006A7002E96B88828983A3A370081241B74E
:104163009003B580091241B78C828D83A3A31250AB
:10417300280255D274F7120A6FEAFEEBFFEE4F6086
:10418300151215481241E9124FD3600312419CEEF8
:10419300FAEFFB121C020255D2EE240C1241A912B3
:1041A30041FE22EE241DF582EF3400F58322F582D1
:1041B300EF1241AC12455622F582EF1241AC124187
:1041C300DE221241C922125A6BA3A3A3A3221241D6
:1041D300C9A3A322123F591241DE22125A56E022EA
:1041E300E0FEA3E0FF228E828F83E0241C12469020
:1041F3001241FE8E828F831241FE22124206FB126F
:104203001C0222E0FAA3E022C082C083EAFCEBFD99
:10421300EC4D700479058044EC24FBF582ED34FF0A
:10422300124FDB7007124262E0F46005121B6680D6
:10423300E39003B0E0C0E0124262D0E0F090293195
:10424300E493F97AB77B03121B90E96401700B7A4C
:10425300007B20124FA879008002790402455FECAD
:1042630024FFF582ED34FFF5832274F4120A6FA262
:10427300AFE433F508C2AF9003B712411A6038EECA
:1042830024FBF582EF34FF124FDB7A007B2090038F
:10429300B06005124FAB8005E0F9121B9CE4F50AF0
:1042A300F50B780A121044EEFCEFFD7AB77B03128C
:1042B3001B8A7402121072E508A2E092AFEEFAEFC5
:1042C300FB023419125892851882851983AA82AB8E
:1042D300832274F2120A6F74FC121106EAFEEBFFDA
:1042E300750AFE750BFF12150CE96005791102447E
:1042F30058EE24151234216037900D41E0C4335435
:10430300E0F8E0333354FC48C0E0EE241512335494
:10431300D0E01244731244698B09EA4509601175B0
:104323000AFFEE240F1234214404125036D2E0F077
:104333008E828F83122D3D6006EE2412124460EEAE
:1043430024131234217010902937E493C0E0EE2433
:1043530013123354D0E0F08E828F83E0A2E750042F
:104363005403801CEE24141234217015900342E090
:10437300C0E0EE2414123354D0E0F0900342E00482
:10438300F0EE2411123421640170169005F9E060F7
:104393000D90034DE0700A8E828F83E07003124408
:1043A3005D8E828F83E064017013EE240B1241BB98
:1043B30064027009EE240F1234214440F085188200
:1043C300851983AC82AD83EEFAEFFB1215728A086E
:1043D3008B0974FE650A700374FFF470098E828F73
:1043E30083A3A312580DEA450960668E828F83E08A
:1043F300C0E07401121337D0E0F0740212133712C5
:1044030058FB740112133785820C85830D780C12C7
:104413001044EE240F123354120E29EE240E1234DC
:1044230021F50C780C121048900356120E297407CC
:10443300121337E0F9AC0AAD0B12156C74071210A6
:1044430072E9FE74106E700BAA08AB09121C02808D
:10445300027E10EEF97404022D75EE2411F582EF3D
:104463001241ACE4F022A312340F79FF12242A2262
:1044730012447722F08E828F83A322C082C083747A
:10448300DE1211068A828B83A3A3A3A31241B774FE
:104493000E121337E8F0A3E912454D740C121337CB
:1044A300124546240DF582EB123424C0E0741A122F
:1044B3001337D0E0F012575AEB1241B474201213A1
:1044C300371245462415F582EB123424C0E07408F4
:1044D300121337D0E0F0EA241CF582EB1241B474D6
:1044E300121213371245462411F582EB123424C0FD
:1044F300E07409121337D0E012453A74FFF07401E7
:1045030012133774FFF0740212133774FFF090899B
:1045130002120E257404121337AC82AD8374071292
:104523001337AA82AB831213BC740412107279007E
:104533007422121072802512453E22F0851882855E
:10454300198322E8F0A3E9F0EA22123F59A31245A6
:104553005522A3E0F8A3E0F92212538CD083D08232
:1045630002102474EC120A6F74EE1211068A128B75
:1045730013ECFEEDFF8909742612133712580D74DC
:1045830028121337E0F51074291213371246817479
:104593002B121337E0F50EA3E0F50F7508107A1E02
:1045A3007B00121BFC7402121337124FB5740212F4
:1045B3001337124FDD700302467A851882851983FB
:1045C300AA82AB837950124E9012538C7402121349
:1045D3003712469FA3124FB57410121337125FEAB6
:1045E3007402121337E0240B12468C7402F0121378
:1045F3003712469F7402F0121337125A4E1258FBA9
:1046030074021213371253A1E509F074021213371F
:10461300E0240C12468CE510F07402121337124694
:1046230089E512F0A3E513F07408121337E50CF0D3
:10463300A3E50DF0740A121337E510F0850E828599
:104643000F83C082C083740D121337AC82AD83D045
:1046530083D0827403120FA0F97402121337AA8253
:10466300AB83121512E964017005750800800874A4
:10467300021213371241A2A9087412025824E0F55A
:104683000CA3E0F50D22E0241C12469022F8A3E0CF
:10469300124697223400F98882898322125394A305
:1046A300A3A3A3A32274EE120A6FEAFEEBFF8C0806
:1046B3008D098E828F83A37408125071E060088E77
:1046C300828F83A37410F012341E60098E828F834D
:1046D300A3E02408F0EE241512342160088E828FA3
:1046E30083A3E004F08E828F83A3A3A3A3A3A3E0F9
:1046F30060198E828F83A3A3A3A3A3A3A3E0C333D1
:104703002402F88E828F83A3E028F0EE2411123462
:10471300216005750B0E8003750B008E828F83A3BA
:10472300C082C083EE240D123421D083D082F8E0FE
:1047330028250B8C828D83F0EE2411123421600521
:10474300124B9C28F0850882850983E0C394754049
:104753000975080075090002488AE0FA7B001259BE
:10476300A9700302488AEEFAEFFB121578EA85086E
:1047730082850983124FB6EE2402F8EF12367E12B9
:1047830049841248C6F0EE24040808EF12367E125C
:104793004DC6A31248C6A3A3F0EE24131248ACF0EF
:1047A300EE24141248ACA3F0750A08EE2416123452
:1047B300216010EE241812588BE5082408125A8C35
:1047C300750A1012341E6016EE241A12588B850ACD
:1047D3000CE508250C125A8C7408250AF50A8E82FA
:1047E3008F83A3A3A3A3A3A3E06059EE2407F5102B
:1047F300EF3400F511851082F583E0C0E012489391
:10480300123357D0E01248B6E0C0E0124893123397
:1048130057D0E01248B6A312489F12104085108269
:10482300851183E0C333FCE433FD850A0CE50825D9
:104833000C125801121072851082851183E0C33364
:10484300250AF50AEE2415123421600BC0E0124844
:1048530093123357D0E0F012335112489F12104095
:10486300EE240D123421FC7D00850B0A8E828F838A
:10487300A3E0F8E50828F8E5093400F9E8250AFA81
:10488300E9125804121072AA08AB097F0A020D2418
:10489300850A0CE508250CF582E50922E0F50CA351
:1048A300E0F50D750E00780C221241A91248D0A331
:1048B300A3A322F0050A8E828F83A3A3A3A3A3A39A
:1048C300A3A322A3A3125AF7A31248D022124DCABC
:1048D300A3A32274F6120A6F8A828B83E0FC9003EF
:1048E3005312497D74027808121232EC4508FCAD6C
:1048F30009EA241212497774067808121232EC4539
:1049030008FCED4509FDEA2415F582EB1234246019
:1049130004780180027800E4C8F9ED49FDEA241126
:10492300F582EB123424F508880974097808121209
:1049330032ED4509FDEA2416124977740B78081203
:104943001232ED4509FDEA2417124977740C7808F1
:10495300121232ED4509FD8A828B83A3A3A3A3A37D
:10496300A312497D740A7808121232ECFAED450954
:10497300FB024FE6F582EB1241ACE0F50875090046
:1049830022E085088285098322A3E0F985088285D0
:1049930009832274EE120A6F8A0A8B0BECFEEDFF79
:1049A300750F01E9C3940850057900024B898E8283
:1049B3008F83E9F0124DEFE96003750F00124DD3B9
:1049C3008E828F83124E1DEE12575BEF124E12C072
:1049D300E0EE2411123354D0E0124E0AC0E0EE246C
:1049E30012123354D0E01244737408125815A3A35F
:1049F300A3E06015124DBBEE2413F582EF12502590
:104A03008E828F83A3E02408F08E828F83A3A3A3D7
:104A1300A3A3A3A3A3E060218E828F83A38582082F
:104A2300858309124DFEEE2415F582EF125025857C
:104A33000882850983E02408F08E828F83A3A3A3D1
:104A4300A3A3E0601A8E828F83A3858208858309DE
:104A5300124DE28E828F83A3A3A3A3A3124BAEEEC8
:104A63002419124460EE241B124460A3125069E01F
:104A73007003024B1DEE2419F8EF3400F98E828F78
:104A830083A3858208858309E0FAE50A2AF582E58E
:104A93000B12342488828983124BAEFAE50A2AF575
:104AA30082E50B123424C0E0EE241A123354D0E012
:104AB300124BAE88828983E06059F890293AE493D7
:104AC300C398500575110C8008EE2419123421F592
:104AD300118E828F83A3E0F8E50A28F50CE50B120B
:104AE3004B92121040E511C333FCE433FD7AD97BBA
:104AF3000B124B8C121072EE241B12335474D9F028
:104B0300A3740BF0E511C333F8850882850983E0AC
:104B1300288006EE2418125CC6F08E828F83A3E0F1
:104B2300F88E828F83E0C39850030249ACA3E0FA66
:104B33008A08E50A2508F8E50B3400F9EE241DF58B
:104B430082EF125131124BBEC39AC0E0EE2417120A
:104B53003354D0E012502E602BEE2417F8EF3400BC
:104B6300F9880889098882F583E024F21251122416
:104B73000EFAA3E03400FB88828983124FB5124BEF
:104B83009CC398F0A90F02488E121B36740322347B
:104B930000F50D750E00780C2290034EE0F91225F6
:104BA300B6E9F8850882850983E022F085088285C5
:104BB3000983E004F022A3A3A3A3A3F08E828F832F
:104BC300E02274F4120A6F8A088B09EA124C53F03C
:104BD300EA1313543F124C4CA3A3A3F0EAC41313D8
:104BE300124C53A3A3F0EB124C45124C5D7409789D
:104BF3000A1212C6124C43124C5C740A780A12123F
:104C0300C6E50A5401C0E0EC2418F582ED123357CF
:104C1300D0E0124C62740B780A1212C6124C43A3F2
:104C2300124C5C740C780A1212C6124C43A3A3A351
:104C3300A3A3A3A3A3F0740D78081212C6022F83B3
:104C4300E50A54018C828D8322540F8C828D83223A
:104C530054038C828D83A3A322A3A3A3A3A3A3F0B2
:104C63008A0A8B0B22C082C08379008A828B83A33A
:104C7300A3A3A3A3A3E090034D600FE070228A8255
:104C83008B83A3A3E07019098016E060138A828BDB
:104C930083125383900356E06A7003A3E06B70E7BB
:104CA30002455F74F0120A6F8A0A8B0B890C8C0819
:104CB3008D09124DEF124DD3850882850983124E5B
:104CC3001DE50812575BE509124E12C0E0E5082402
:104CD30011F582E509123357D0E0124E0AC0E012F3
:104CE3003A55123357D0E0125139740812515260B9
:104CF30011124DBBE508241312512D125139E02432
:104D030008F0850882850983A3A3A3A3A3A3A3A370
:104D1300E06017850882850983A3124DFAE508240C
:104D23001512512D124BBE2408F085088285098384
:104D3300A3A3A3A3A3E06019850882850983A3AE77
:104D430082AF83124DE2850882850983124BB90431
:104D5300F0AA08AB0912158AE9F50D705685088289
:104D6300850983A3A3A3A3A3A3124DC67014E0FADA
:104D73008A0EE50A250EF8E50B12501AE50CC39AC4
:104D83008021124DFAE8240EF8E912501A90034ECE
:104D9300E0F91225B68E828F83E0F8E50CC39824E0
:104DA300F2C399C0E0E5082417F582E509123357E9
:104DB300D0E0F0A90D02574AE50A2408F8E50B34C0
:104DC30000F922124DCA22E0850882850983A322B5
:104DD300850A82850B83A3A3124E33E0F9EA22E00E
:104DE300F8E50A28F582E50B125041228A828B836B
:104DF30012574F12158422AE82AF83E0F8E50A28DA
:104E0300F8E50B3400F922124E46A3A3A3E02212C5
:104E130041ACE8124E3FA3A3E022A3A3A3A3A3A301
:104E2300A3A3A3124E3F124E33A3A3E0F9EAF82241
:104E3300E0FA850A82850B83A3A3A322F0A3E912D8
:104E43004E4622F0850A82850B83A3A3A3A322C027
:104E530082C0837AC57B0379E212238E7AC57B03F2
:104E630002455FC082C08390035602455CC082C086
:104E73008374FE121106851882851983AA82AB8377
:104E8300794B124E9012538C740202453512238EC5
:104E930085188285198322C082C083794A12238EA2
:104EA30002455F74F6120A6F9003CDE0FE04F0EE44
:104EB300F912153C8B09EA450970EDEE60EAF90237
:104EC3004FE674F0120A6FEAFEEBFF8C088D098936
:104ED3000A7410121337E0F50B7411121337E0F54F
:104EE3000C12165CEA4B7013E50C7042A90AAC086D
:104EF300AD09EEFAEFFB121674806EE50A6021EA43
:104F03002402F582EB123424850A082508F8E434D8
:104F13000013E813F070098A828B83A3A37401F052
:104F2300E50C6045E50B70068A828B83E4F074011F
:104F3300650C7035E50B9003D47004E4F0802AE02F
:104F430004F0900D2EE0F89003D4E0C398401AE4E7
:104F5300F0900359E06E7003A3E06F700CEEFAEF6C
:104F6300FB79011213E0124F6F02574A7A017B005B
:104F73009003B0E0F9121CC222C082C08374016A9C
:104F83007001EB70077A01124FA68012900D251263
:104F93004FB5EA4B6005122CFF8003124F6F024599
:104FA3005F7A207B009003B0E0F9121B9622340055
:104FB300F583EAF0A3EBF022C082C083900D2702B1
:104FC3003B5FC082C083900D29023B5F125A5D2272
:104FD300EE240CF582EF3400F583124556E849229E
:104FE3001210727F02020D24A2F0E4338518828529
:104FF30019831250077952122394221250077942CF
:1050030012239422F0AA82AB8322AA08AB0990034D
:10501300B0E0F9121B6C223400F9E508241DF58277
:10502300E5091241ACE8F0A3E9F022125819A3A351
:10503300E022A3F0EE241512503E22F582EF340055
:10504300F583E02212504B223400F583E0F8A3E00D
:10505300F98882898322E0F812505F22A3E0F98E57
:10506300828F83A3A322F0EE24181241A922F0EE2B
:1050730024161241A92274F4120A6FEAFEEBFF7A96
:10508300007B04124F731251081250289003657469
:1050930009F01215968A088B09AC08AD09EE2413A2
:1050A30012335412538C12525C640170487A0F12FB
:1050B30050FB60418A828B837402125112FAA3E07F
:1050C300FB8A828B83A3E0FC8A828B83A3A3E0FB0E
:1050D300EC850882850983A3A3124FB6888289834E
:1050E300125390124984125035FAA3E0FB794A1205
:1050F300239412500D0234197B00121B608A088B13
:1051030009EA450922900336124556900D2922F0EB
:10511300EE241DF8EF12511C22124697E022125181
:1051230025223400F5837401F022F582E50912414A
:10513300ACE8F0A3E92212513D2212514122F0853D
:105143000882850983A322125141A3A3A3A3221298
:10515300514AA3A3E0221255631215EA22EE241743
:10516300F582EF125125121596EE241A1241A9EA7F
:10517300F0A3EBF02274F4120A6F74F31211068990
:1051830008EAFEEBFF7C0D7D007900851882851906
:1051930083AA82AB83121B42EE241D123354125A8C
:1051A3004EA3E0F8741F58600A7901122364790052
:1051B300025253E8A2E55008740C1213377401F03D
:1051C300E8A2E75008740B1213377401F0E8A2E663
:1051D300740A50081213377401F08008121337E071
:1051E30064017005EE24138003EE241512588B74AA
:1051F30002121337AA82AB8312237C123351125249
:1052030061125028740A121337E064017033122DAF
:1052130032703B1215A28A0A8B0BA80AA90BEE2443
:105223000B123421687003A3E0697022121596EA09
:10523300FCEBFD7402121337AA82AB8312525C603B
:105243000D851882851983AA82AB831213DAA90804
:10525300740D023416EEFAEFFB122376E922E01204
:10526300526622F8A3E0F98518828519832274F621
:10527300120A6F74F31211068A088B09ECFEEDFF14
:105283007C0D7D007900851882851983AA82AB8302
:10529300125BF3A3A3A3A3A3A3A3A3A31252FB127F
:1052A3005304F8A2E55008740B1213377401F0E8A5
:1052B300A2E75008740A1213377401F0E8A2E6EE6D
:1052C300500424138002241512588B7402121337CE
:1052D3001252EDA3A3E0C0E0740C121337D0E01216
:1052E300555B1213D4740D024FE3AA82AB831223CE
:1052F3007C85088285098322E0125266E8F0A3E9DF
:1053030022F01241A6125A52A3E02274F7120A6F36
:1053130074E1121106EAFEEBFF8E828F8312539023
:10532300A3A3A3E0A2E050518E828F83122E928A10
:10533300828B83A3A3A3A3A3A3E054FE1253A88A3F
:10534300828B831253A1E0F98A828B83E0241CFAB7
:10535300A3E0123DC212538C121590E9701B741D09
:1053630012133712539B7011851882851983AC82EF
:10537300AD83EEFAEFFB1215D80255CD8E828F83E3
:10538300A3A3A3A3A3A3A3A3A312340F22125394EF
:1053930022125A56A3A3A3221241DE640422E0245C
:1053A3001B1246902212453EAC82AD8322E9F87966
:1053B30000740468600A740A686005740368700105
:1053C3000902102474F6120A6F8A828B837420F008
:1053D300A3A37401F01213868A088B09AE08AF09E0
:1053E300EE4F60108E828F837401F09003A3E07000
:1053F30003125160EEFAEFFB024FE6C082C08390C6
:1054030003B97401F0E9A2E350037403F0E9A2E1E4
:105413005004E0D2E2F002455F74F6120A6F79009D
:105423007C008A088B097808120D6AF8FF074F542D
:105433004D544D544D544D5446544A544F54435473
:105443000C80097C0480050C80F67C089003B9E08D
:105453005C6003098003EC600109024FE674F612F5
:105463000A6F8A828B83E07012A3124FDD600C8A6D
:10547300828B8312538B12252680047A007B0002D1
:105483004FE674F5120A6F74F31211068A088B093A
:10549300ECFEEDFF750A12EA450970057900025525
:1054A30054900356E065087004A3E0650970141274
:1054B3001596EAFCEBFD1252587005750A0180033C
:1054C300750A00851882851983E4F004121337E501
:1054D30008F0A3E50912555B12134AE96027740328
:1054E300121337AA82AB83122466E964017016751E
:1054F3000A017403121337AC82AD83125258602130
:10550300750A00801C7412650A70169003A2E06489
:1055130002700EEEFCEFFDAA08AB09121362E970EC
:10552300DFEEFCEFFDAA08AB09121662E9F8740A74
:10553300687005750A01801774A0687012EEFCEF9D
:10554300FDAA08AB0912166EAA08AB09121680A9A8
:105553000A740D025F5B740212555F2212556322B7
:1055630012453EAA82AB832274F7120A6FEAFEEB5E
:10557300FF8E828F83A3A3A3A3A3A3A3A3E060159A
:10558300EE24151233541233FF121602E96401702C
:1055930004790180258E828F83A3A3A3A3A3A3A34E
:1055A300E06015EE24131233541255BFFAA3E0FB47
:1055B300121602E9640160D979008013123EAEA38A
:1055C300A3A3A3A3A3A3A3A3E022741F1210727F18
:1055D30001020D2474F0120A6F74FD1211068A0879
:1055E3008B09ECFEEDFF890B7413121337E0F50CF6
:1055F300750A0174011213377404125A866048E560
:105603000C601DEA2417F582EB125CC9125A748AE6
:10561300828B83E0D2E7F0EA2414F582EB12446331
:1056230012575AEB1250477403125FECEE888289CB
:1056330083A3A3F0EF88828983A3A3123F58123F69
:105643005F121380E9F50AA90A740302574774EC41
:10565300120A6F74F51211068A0A8B0B890C8C0ED1
:105663008D0F741F121337E0F50D7420121337E0FA
:10567300F510A3E0F5117E01EE121337740AF0E979
:105683007007E50DC333240AF012582C7003025738
:105693002E1258417409F0A3E50CC43354E0450DB0
:1056A300125853E50C702D7C008023ECC333F8E4CF
:1056B30033F9E51028F8E51139F9888289831257FF
:1056C3003B88828983123671F0A30EAF830CECC33F
:1056D300950D40D7E5082417F582E50912512112EB
:1056E3001596E508241AF582E509124FB1740312E1
:1056F3001337AC82AD83AA0AAB0B122460E960199D
:10570300E5082416F582E509125735121337A882E6
:10571300A983E5082418125021850882850983127C
:105723005FE8AA08AB09121380E9FEEEF9740B02D5
:105733005824125125740322E08E828F83F0A3AE86
:1057430082AF83221210727F08020D24124206F9DF
:10575300EA2400E439FB22EA240BF5822274EE12D8
:105763000A6F8A0C8B0D890E8C088D097412121323
:1057730037E0F50F741312133712580D90056812A2
:105783004FDD6077E50FC333F8E433F9E8240EFA0D
:10579300E93400FB121B608A108B11AE10AF11EEBF
:1057A3004F60588E828F8374D4F0A3A3E50CF0A3CB
:1057B300E50D125815E50EF0AC08AD09EE2405FA17
:1057C300EF125A8FEE240D123354E50FF0850A08B9
:1057D300850B09750A007808121040E50FC333FCE6
:1057E300E433FDEE240EFAEF125804121072EEFAAF
:1057F300EFFB900568125A4E1225C702488EFAE550
:10580300093400FB121B36740322E0F50AA3E0F50A
:105813000B221258192212581D22124477A3A3A354
:10582300221210727F0C020D24851882851983AA17
:1058330082AB831215EA8A088B09EA450922EA2416
:105843000BF582EB125041FEA3E0FF8E828F832281
:10585300F0A3AE82AF83AC0EAD0FEEFAEFFB12589E
:10586300652212237C12586C22EE2408FEEF3400CA
:10587300FF22E0FA8E828F83A3A3E022FEA3E0340B
:1058830000FF8E828F83E0221241A912589222E0F8
:10589300FCA3E0FD2212340F12157E2274F6120AC5
:1058A3006FEAFEEBFF9003BA801388828983E06E70
:1058B3007003A3E06F603A88828983A3A3124FDD4C
:1058C30070E87A047B00121BFC8A088B09A808A9DC
:1058D30009E849601C888289831258FB9003BA1235
:1058E300538C88828983A3A3124FB59003BA1250B5
:1058F30028024FE68A828B83EEF0A3EFF02274F442
:10590300120A6F7E009003BA80070E88828983A3F0
:10591300A3124FDD70F4EEC333FAE433FB1259A93B
:10592300607E7F009003BA80248882898312588E18
:10593300EFC333FAE433FBE5082AF582E5093BF5C7
:1059430083ECF0A3EDF00F88828983A3A3124FDDCC
:1059530070D79003AB122D6C7003A3E069780870C5
:1059630019121044EEF50A780A1210487C777D0369
:1059730079009003AB1259B4801A121044EEF50A61
:10598300780A1210487C777D0379009003AB125399
:105993008C1216147403121072AA08AB09121C029B
:1059A300121398023419121BFC8A088B09EA450961
:1059B3002212340F12161A22C082C08380128A82E6
:1059C3008B83A3A31241B79003BA125028121C026F
:1059D3009003BA1240C770E602455F74F6120A6F6D
:1059E3009003631241E39003CE125A3D1250287A7A
:1059F300CE7B0379501223949003CE122F8BFAEFB0
:105A0300FB12167A9003CE1241E390056A124FDD22
:105A130060257A067B00121B60EA4B601A8A828B30
:105A23008374D5F0A3A3E4125A6304125A74900545
:105A33006A125A4E1225C7024FE6125A4122E0F863
:105A4300A3E0F9900363228E828F83125A522212AB
:105A53005A5622E0F8125A5C22A3E0F58388822288
:105A6300125A6722125A6B22F08A828B83A3A3A352
:105A730022125A67A3EEF0A3EFF022F582EF125041
:105A830041F922125159EA4B22FAE5093400FB127B
:105A9300237C22125060A3A3A3A3A3A3A322902930
:105AA30032E4932401F8E43400F97A027B0022748F
:105AB300F7120A6F7E00800412609F0E125BC340D0
:105AC300F77E00EE125ADE74FEF0A304125AF3E4DA
:105AD300F00EEEC3940340EB0255D275F003A4F825
:105AE300A9F074BC28F8740339F988828983A32246
:105AF300125AF722F0888289832274F7120A6F7F81
:105B03000080010F90292FE493F8EFC3985026EFFC
:105B1300125CAF6A7003A3E06B70E812604C6C70A8
:105B230003A3E06D600A74FF6C700374FF6D70D3A0
