:020000040000FA
:030000000200A259
:10006B000200E100000080FB1200CCB9000302008B
:10007B008CE4900001780379018002F0A3D8FCD9BD
:10008B00FA75820575830174001200AE75826E7568
:10009B00830074001200AE75D0007581BF759F0090
:1000AB00020073C09FF59FE473D09F22D083D08250
:1000BB00C09FE493C0E0740193C0E0740293F59F7A
:1000CB00227901221200B77801001200B75101000A
:1000DB001200B7870100C0E0C0D0C082C083E589A1
:1000EB00A2E15003538AFD9000017401F0A3740048
:1000FB00F0D083D082D0D0D0E0321200DB1200CF10
:10010B008009C2F0A2F0E433F87900900001E064BA
:10011B00017004A3E0640070F2D2F0A29030F00101
:10012B00B39290D2F0A29130F001B392917AF47B1A
:10013B00011200D5900001E064017004A3E064009B
:10014B0070C0D2F080BEEAF8EBF98014EA24FFFA13
:10015B00EB34FFFBEA4B70F4E824FFF8E934FFF9CA
:10016B00E84960067A4C7B0480EA0200B453F4EC55
:10017B0043FE13C290C291C2940200B453FEFB53D0
:08018B00F4FB53F6FB0200B483
:04000005000000A255
:00000001FF
