:020000040000FA
:1000000002002700000080FB120051B9000302002B
:100010001175829575830074001200337582037523
:100020008300740012003375D0007581BF759F0086
:10003000020008C09FF59FE473D09F22D083D08236
:10004000C09FE493C0E0740193C0E0740293F59FF5
:100050002279012212003C60000012003C66000080
:1000600043FE130200397C007D008019E82401F86A
:10007000E93400F9C3E89417E9940240EFEC240155
:10008000FCED3400FDC3EC9AED9B5006780079003E
:1000900080E202003943FD80120054D287C2907A78
:1000A000E87B0312005AC287D2907AE87B031200E1
:0300B0005A80E88B
:0400000500000027D0
:00000001FF
