:020000040000FA
:1000000002002700000080FB120051B9000302002B
:10001000117582D8758300740012003375820375E0
:100020008300740012003375D0007581BF759F0086
:10003000020008C09FF59FE473D09F22D083D08236
:10004000C09FE493C0E0740193C0E0740293F59FF5
:100050002279012212003C60000012003CCC00001A
:10006000780079008008E82401F8E93400F9C3E851
:100070009AE99B40F1780079008008E82401F8E9CA
:100080003400F9C3E89AE99B40F1780079008008D0
:10009000E82401F8E93400F9C3E89AE99B40F178D3
:1000A0000079008008E82401F8E93400F9C3E89AEF
:1000B000E99B40F1780079008008E82401F8E934F0
:1000C00000F9C3E89AE99B40F102003943FE13D2DC
:1000D00090D291D29402003912005AD2F0A29030FC
:1000E000F001B392907A107B27120054D2F0A291C3
:1000F00030F001B392917A107B27120054D2F0A213
:100100009430F001B392947A107B2712005480CB84
:0400000500000027D0
:00000001FF
