:020000040000FA
:0600000002123E0207A7F8
:03002B000210754B
:03003300020DF5C6
:03004300020F1198
:030053000206D8CA
:03006B00020DDBA8
:1000830002073C0101FF01010503010F10FEFF8E72
:100093001A8E1A8E1A8E1A4A1944198E1AE12700DB
:1000A300000000A528000000000C0000000C000167
:1000B300FFFF0B01057F88000102009A0500000085
:1000C3000D066400020200080000050207051E0277
:1000D300051E020A0A03B80B02803E0102F1FF1457
:1000E3009651180002020630313233343536373830
:1000F3003941424344454600286E756C6C20706F4D
:10010300696E74657229003F3F3F000000807F00E5
:1001130000803FF9021550B743BA51000020410057
:10012300E7DB2E0000A04010000000080000000ADA
:1001330000000012128A604612125D603DE9687089
:1001430008F618F618F618F622748067F712016A93
:10015300090909748067F72212125D601D12128A61
:100163007005191919801A121111701F121126C363
:100173007003E6673319191940071818182208087D
:100183000874FFF618F618F618F6221211266017EF
:100193001212C9702192F01212D37019501720F065
:1001A30014080808090909E7F61819E7F61819E702
:1001B300F61819E7F6221212D360E6E869701F08F1
:1001C30008E62480F608E436F618547FB47F0CE67C
:1001D30054806007F6E418F618F622181822E9C6C8
:1001E300CC08C6CD08C6CE08C6CFC0E0E8C0E0EA5A
:1001F300C0E0EBC0E009E9F809E7FA09E7FBE6F933
:1002030018E6F8C3EC98ED99EE9AEBC2E7F5F0EF38
:10021300C2E795F0500E600CEBCFFBEACEFAE9CDC6
:10022300F9E8CCF8EAA2E7D2E7FAEB33FB13F5F0EF
:10023300EEA2E7D2E7FEEF33FFC5F013A2E730E605
:1002430001B313C5F0C3C0E0C0F07F00C39BFB60E4
:100253005B9418600C401AD0E023F9D0E0F8020355
:10026300398AF0E9486003D2F0E4AFF0FAF9F88094
:100273003BEB30E40D89F0EA6003D2F0E4AFF0F930
:10028300CAF8EB30E30D88F0EF6002D2F0AFF0E490
:10029300CAC9F8EB54076014FBC3EA13FAE913F96C
:1002A300E813F8EF135002D2E0FFDBEDD0E0C0E03B
:1002B30030E739C3E49FFFF5F0EC98FC42F0ED9989
:1002C300FD42F0EE9AFE42F0D0E0F9D0E0F8E5F01E
:1002D300607AE923F9EE20E742D8028067C3EF335F
:1002E300FFEC33FCED33FDEE33FE80EAEC28FCED4E
:1002F30039FDEE3AFED0E023F9D0E0F84002801B4E
:10030300C3EE13FEED13FDEC13FCEF135002D2E02A
:10031300FF08B800067F7F74FF802EEF3350178CE1
:10032300F020F00260100CBC000C0DBD00080EBEE6
:10033300000408E860DFE933E813FFEE2313FE4F00
:100343004D4C8008E95480FFE4FEFDFCEE33EF33AF
:10035300F47004FCFD7E80D0E0FBD0E0FAD0E0F83E
:10036300D0E0CFC618CEC618CDC618CCC6F9221217
:10037300125D70041818182212128A700D74FFF699
:100383001819F61819F61819F622E7548066F612AA
:1003930012D3700F1212C970F014F608F608F6089B
:1003A300F680D11212C9700CF608F608768008E6BA
:1003B300447F80EC121129700C12111460BFE654B3
:1003C30080F6E480BB121114700519191980A5E891
:1003D30069700C763F18768018F618F6E8F922E66D
:1003E300CDC0E018ECC0E0E633CD33CDD313F6E750
:1003F30019FCE7191933CC33C3947F400ECD9D50BC
:100403002408E65480F6E418F6800FF4043D1450F3
:100413001408E6447FF6187680E418F618F6D0E060
:10042300FCD0E0FD22CCD313CCFD18E4C6CBC0E056
:1004330018E4C6CAC0E00808ED08C633E613F61888
:10044300E433C675F003C3CA97CA09CB97CB199C8B
:1004530040047D08802EBD000302051B16B6FF0570
:100463000606081618C3CA33CACB33CB33CA27CA06
:1004730009CB37CB193CC37D08803E187D0820E7A4
:100483005CC633C6CA33CACB33CB33DDF1D5F0EB0D
:1004930030E77BCA97CA09CB974ACB199C406F4B6D
:1004A3007025E620E0218066187D08C3CA97CA0933
:1004B300CB97CB199CD3C633C6CA33CACB33CB3302
:1004C30050C9DDE7D5F0E1D3E4C636C608C636C663
:1004D30008C636C608C636C61818188031C3CA9768
:1004E300CA09CB97CB199CB34097C633C6CA33CA44
:1004F300CB33CB33DD34D5F02EC6A2E0C640C8CA19
:1005030027CA09CB37194A70BECB3CB480B9080857
:10051300E63308E633601F181818D0E0FAD0E0FB82
:10052300D0E0FCD0E0FD22187D08CA27CA09CB37EA
:10053300CB193CD3808013F618E4B67F11F618B6B6
:10054300FF0EF618C60470D20808768080CAF61823
:10055300F618F680C50012125D604F12128A6012FF
:10056300E7548066F612111170111212C9703B091B
:100573000909F4F618F618F618F622121126701562
:100583001212D308080860EAE6447FF6187680184A
:10059300E4F618F6221212D360161212C97012E48E
:1005A300F608F608F608E65480F60909091818183B
:1005B30022EAC0E0EBC0E0ECC0E0EDC0E0E687F08B
:1005C300A4FBACF008E687F0A42CFCE435F0FA18A1
:1005D30009E687F0A42C4B60027401CA35F0FCE4F1
:1005E30033FB09E687F0D2F7A42CCB35F0FC1908CE
:1005F300E687F0A42BCC35F0FBE433FD0819E6873E
:10060300F0D2E7A42C4ACB35F0CD3400FC09E687C1
:10061300F0D2E7A42DCC35F0FDE433FA0918E687D0
:10062300F0D2F7A42CCD35F0CA3400FC08E687F0ED
:10063300D2E7D2F7A42ACC35F07A7E20E70B0ACB97
:1006430033CBCD33CDCC33CC33CB3350147004ED1B
:1006530030E00ED2F1E4CD3DCDCC3CCC3B5005DABD
:1006630005C2F1EB547FC63308E63392F0FBE73360
:1006730009E733C39A502D2B70190C0D4C4D70158F
:100683001806E608C333700D20F10AA2F013F6E44E
:1006930018800B4024E4F630F002768018F618F642
:1006A30018F68024D33B14501074FFA2F013F618ED
:1006B3007680E418F618F6800FA2F013F618E633E6
:1006C30003F618ECF618EDF6D0E0FDD0E0FCD0E030
:1006D300FBD0E0FA22C0E074F2120AC7A2AFE433FF
:1006E300FED2AFE5A7FFE5A1F5085F54106006123F
:1006F300223275A1EFE5085F5408600812223875AD
:10070300A1F7802BEFA2E0C0D0E508A2E092F0129F
:10071300119C158182F05017906198E0F8900AEAD5
:10072300E0C398A2D265D0335002E8F075A1FEEE83
:10073300A2E092AF7F01020B26C0E074F2120AC757
:10074300A2AFE433FED2AF9061A4E0F8759B00E55D
:100753009158540860087591F7122280802AE59118
:1007630058541060087591EF122286801BE8A2E0AE
:10077300C0D0E591A2E092F012119C158182F05055
:1007830007E0C2E0F01223CA9061A3E0F8E5E9585C
:100793005404600E1223A075E9FB906193E0A2E676
:1007A30040F2808BC0E074F2120AC7A2AFE433FEBA
:1007B300D2AF9061A5E0F8E5BF585404600675BF59
:1007C300FB1223E2020732C3E498F8E499F9120812
:1007D3000B8026C3E49AFAE49BFBE920E7E91208BD
:1007E3000BE498F8E499F922C3E498F8E499F91230
:1007F300080BE498F8E499F9C3E49AFAE49BFB2222
:10080300EB20E7CFE920E7E0B90010BB0008E88A56
:10081300F084F8AAF022E4FBC8FA22EB70227B10E2
:10082300C833C8C933C9335007C39AC3DBF2800640
:100833009A50012ADBEAC833F4C8C933F4C9FA224F
:1008430075F008E4C833C8C933C933C99AC99B5082
:1008530004C92AC93BD5F0ECFBC833F4C8E4C9FA90
:10086300221208A420F01430E72B74FFFCFBFA7467
:100873007F8022E4FCFBFA7480801AB48008BC00F9
:10088300F2BB00EF800F50EBF9E4C39AFAE49BFB51
:10089300E49CFCE499C6CC18C6CB18C6CA18C6F9A2
:1008A30022E4C9C608CAC608CBC6D3330308CCC6DC
:1008B3003392F0C3947F402E94184019C9B90704AA
:1008C300CACBCC225025C309CA33CACB33CBCC33D2
:1008D300CC33D9F422F4600DC9CCC313CB13CBCAE8
:1008E30013CAD9F6CC22E4FCFBFA2214FCFBFA224D
:1008F300080808EAC0E0EBC0E086F0E7A4FA1809AC
:1009030086F0E7A42AFA180986F0E7A42AFA180958
:1009130086F0E7A42AFA1986F0E7A4FBE5F02AFAA1
:10092300190886F0E7A42BFBE5F03AFA190886F0DC
:10093300E7A42BFBE5F03AFA18180986F0E7A4C5FB
:10094300F02BFBE43AFA1908E7C5F0C6A426F6E54E
:10095300F03BFBE43AFA1886F0E7A4F6E5F0082644
:10096300F6E43B08F6E43A08F6D0E0FBD0E0FA22DE
:10097300080808E630E71112114F12098B0808081E
:10098300C64480C618181822181818E9799EC60894
:10099300CAC608CBC608CCC6C370207996CACBCCCE
:1009A3007019798ECBCC70137986CC700EF9802AAE
:1009B300CA33CACB33CBCC33CC331930E7F2CCCBED
:1009C300CA3350147004EA30E00DE4CA3ACACB3B90
:1009D300CBCC3CCC500209C3E913C6CC182313C6B5
:1009E300CB18C6CA18C6F922E4CFC0E0E4CEC0E0F3
:1009F300E4CDC0E0E4CCC0E075F020C3E633F608F4
:100A0300E633F608E633F608E633F6181818EC333F
:100A1300FCED33FDEE33FEEF33FFC3EC9709ED97A7
:100A230009EE9709EF97191919400FFFEC97FC0985
:100A3300ED97FD09EE97FE191906D5F0BEECF709FF
:100A4300EDF709EEF709EFF7191919D0E0FCD0E03B
:100A5300FDD0E0FED0E0FF222518C582C0E0E519F5
:100A630034FFC583C0E0E518C3958224F810AF08AE
:100A73008583198582188008858319858218D2AFEA
:100A8300CEF0A3E520F0A37808E608F0A3DEFAEFA2
:100A9300F0A3E58124FAF8E608F0A3E608F0A3E65C
:100AA30008F0A30808E608F0A3E608F0A3158115EB
:100AB30081D0E0FED0E0F8158115811581E8C0E012
:100AC300EEC0E022C0D02518C582C0E0E51934FF8E
:100AD300C583C0E0E518C3958224F310AF0885836E
:100AE300198582188008858319858218D2AFC8F0CA
:100AF300A3E9F0A3EAF0A3EBF0A37908E709F0A3D5
:100B0300D8FAECF0A3EDF0A3EEF0A3EFF0A3D0E05E
:100B1300F0A3D0E0F0A3D0E0F0A3E520F0A3E5F04C
:100B2300F0A322851983851882E0C0E0A3E0F9A32E
:100B3300E0FAA3E0FBA37808E0F608A3DFFAE0FC01
:100B4300A3E0FDA3E0FEA3E0FFA3E0C0E0A3E0C0B9
:100B5300E0A3E0F5D0A3E0F520A3E0A3F5F010AF08
:100B6300088583198582188008858319858218D2A0
:100B7300AFD082D083D0E0F8D0E0321212BEB900F9
:100B830003020BC0E490030178B1790E8002F0A355
:100B9300D8FCD9FA9010B1AA82AB8390008678B1C1
:100BA30079018015E493A3AC82AD838A828B83F0B1
:100BB300A3AA82AB838C828D83D8E9D9E775829609
:100BC3007583F97403120FD47582E8758326740054
:100BD300120FD40E0075F0108E1A8F1B85821F859D
:100BE300831E851882851983E0CEA3E0CF851F82FB
:100BF300851E83EBC9EAC8EDCBECCAC3E833C8E969
:100C030033C9EA33CAEB33CBC3EA9EF51DEB9FF539
:100C13001CB35004AB1CAA1DEC33CCED33CDD5F083
:100C2300DAAE1AAF1B2212125D601C12128A601711
:100C33001212D370071212C97001D322C0D012123C
:100C4300C97006D0D0B322C32233D0D0501430E0C1
:100C5300F6C3E7960809E7960809E7960809E796B1
:100C6300B32220E0D5E6970809E6970809E6970836
:100C730009E697B322D083D082ECC0E0EDC0E0E474
:100C830093A3FCE493A3FDED4C600D120D9CEC24A7
:100C9300FFFCED34FFFD80EFE493A3FCE493A3FD9D
:100CA300ED4C600D120E96EC24FFFCED34FFFD803D
:100CB300EFD0E0FDD0E0FCE493A3C0E0E493C0E018
:100CC3002212125D601B12128A60161212D3700771
:100CD3001212C9600CB322C0D01212C97005D0D051
:100CE30022C32233D0D0501330E0EBC3E796080978
:100CF300E7960809E7960809E7962220E0E4E697D5
:100D03000809E6970809E6970809E69722851983F3
:100D1300851882E0A3FEE0A3F5207808E0A3F60897
:100D2300DFFAE0A3FFE0A3C0E0E0A3C0E0E0A3C0DC
:100D3300E0E0A3C0E0E0A3C0E010AF08858218851F
:100D430083198008858218858319D2AFD083D08216
:100D5300020FDAD083D082E9C0E0E493A3C386F024
:100D6300C5F095F0F908E493A386F0C5F095F0700B
:100D73000BE493A3C3994005E9048002A3E475F04F
:100D830002A42582F582E5F03583F583D0E0F9E40A
:100D930093A3C0E0E493C0E022C0E0C3E4939608C9
:100DA3007401939618400FE49366700808740193D6
:100DB300661870007019A3A3C3E493960874019393
:100DC3009618A3A3400DD0E0D0E0D0E0020CB4A36A
:100DD300A3A3A3A3A3D0E022C0E074F2120AC7E541
:100DE30089A2E1500312210C758900C2C57F01025B
:100DF3000B26C0E074F2120AC7E58BA2E05003127F
:100E0300210C758B00C2E880E474048004740280B2
:100E130000CCC0E0EDC0E0E518C39CCCAD19500197
:100E23001D10AF068C188D1980068C188D19D2AF42
:100E3300120F56D0E0FDD0E0FC2274028000CCC03B
:100E4300E0EDC0E0E518C39CCCAD1950011D10AF17
:100E5300068C188D1980068C188D19D2AF120F3499
:100E6300D0E0FDD0E0FC2212125D602512128A60F0
:100E7300201212D370030212C9080808E766701023
:100E83001819E766700A1819E76670041819E766F7
:100E930022F422C0E0C0F088F0E49366700808747E
:100EA300019366187000A8F0A3A3700BD0F0D0E0F4
:100EB300D0E0D0E0020CB4A3A3D0F0D0E022D083E2
:100EC300D082CCC0E0E493A36006120FB51470FA8D
:100ED300E493A360061210BC1470FAD0E0FCE49310
:100EE300A3C0E0E493C0E022C008C3E096F508087D
:100EF300A3E096420808A3E096420808A3E09642BE
:100F030008A2D265D033E5087001D3D00822C0E02F
:100F130074F2120AC7A2AFE433FED2AFC2C0E5D166
:100F2300A2E450031221AEEEA2E092AF7F01020BC6
:100F330026CAC0E0E493A3C582CCC582C583CDC5D0
:100F430083F0A3C582CCC582C583CDC583DAE5D042
:100F5300E0CA22CAC0E0E0A3C582CCC582C583CD66
:100F6300C583F0A3C582CCC582C583CDC583DAE62C
:100F7300D0E0CA22C008C3E096F50808A3E0964271
:100F83000808A3E096420808A3E09645087001D339
:100F9300D008227009080808226016181818C6C35A
:100FA30033C608C633C608C633C608C633C6D5E03B
:100FB300EA22C0E0E493A3D39C5010E493A3C39C20
:100FC300400AD0E0D0E0D0E0020EDEA3A3A3D0E03D
:100FD30022C09FF59FE473D09F22D083D082C09F0D
:100FE300E493C0E0740193C0E0740293F59F22255B
:100FF30018F58210AF08F518400215198008F51886
:1010030040021519D2AF851983227404800A740330
:101013008006740280027401C0E0F404120FF2D05F
:10102300E012129922C0D0251810AF08F51850020B
:1010330005198008F51850020519D2AFD0D022BB8C
:101043000102E722C082C08389828A83BB0003E056
:101053008002E493D083D082226016080808C6C3B6
:1010630013C618C613C618C613C618C613C6D5E0CA
:10107300EA22C0E0C0D0E8C0E0E5A8D2AFC2C7A270
:10108300E792AFD0E0F8D0D0D0E032C3E0C696F616
:1010930008A3E0C696F608A3E0C696F608A3E0C642
:1010A30096F622251810AF08F51840021519800886
:1010B300F51840021519D2AF22C0E0E493A36C7077
:1010C30009D0E0D0E0D0E0020EDEA3A3D0E022C33B
:1010D300E09608A3E09608A3E09608A3E096A2D2C0
:1010E30065D03322E066701008A3E066700A08A397
:1010F300E066700408A3E06622E76670100809E75B
:1011030066700A0809E76670040809E7662218187A
:1011130018E6084608700AE608C3337005E633F498
:10112300220822191919E7094709700AE709C33385
:101133007005E733F4220922C3E096F008A3E09692
:10114300F008A3E096F008A3E096F022181818E43C
:10115300C396F608E496F608E496F608E496F622B3
:10116300E026F608A3E036F608A3E036F608A3E087
:1011730036F622E026F008A3E036F008A3E036F0C6
:1011830008A3E036F022E627F60809E637F6080951
:10119300E637F60809E637F622C0E0E8C0E0E58165
:1011A30024FCF8E6A2E7D0E0F8D0E022E657F60800
:1011B30009E657F60809E657F60809E657F622E066
:1011C30056F008A3E056F008A3E056F008A3E05653
:1011D300F022700422600D18C6C333C608C633C696
:1011E300D5E0F41822E647F60809E647F60809E6CB
:1011F30047F60809E647F622E056F608A3E056F656
:1012030008A3E056F608A3E056F622C6F4C608C6BD
:10121300F4C608C6F4C608C6F4C622C3E09608A3FB
:10122300E09608A3E09608A3E09622C3E796080990
:10123300E7960809E7960809E7962275D0007581B5
:101243004075180175190300020B7EE6F008A3E64A
:10125300F008A3E6F008A3E6F022E6084608C31365
:101263004608336002E633F422600C08C6C313C693
:1012730018C613C6D5E0F422E0F608A3E0F608A3E7
:10128300E0F608A3E0F622E7094709C31347093349
:101293006002E733F422CAC0E0E6F0A308DAFAD02A
:1012A300E0FA22EAF0A3EBF0A3ECF0A3EDF022E0E6
:1012B300FAA3E0FBA3E0FCA3E0FD22E5C754F84456
:1012C30001F5C7790122E7C33319471947194722A3
:1012D300E6C333184618461846222518F582E43526
:1012E30019F58322C2AF75D69F02000022120FDDCB
:1012F300702E00120FDD202F00120FDDD82F0012E9
:101303000FDDA03000120FDD603100120FDDA431BC
:1013130000120FDDC93100120FDD0C3200120FDD98
:10132300593200120FDDB13300120FDD37340012D2
:101333000FDD553400120FDD7F3400120FDD9934B9
:1013430000120FDDA83400120FDDB33400120FDDDD
:10135300733500120FDDCC3500120FDD8E3600120F
:101363000FDD963600120FDD5A3700120FDDC63738
:1013730000120FDDF13800120FDD163900120FDDF8
:101383008C3900120FDD1E3A00120FDDDE3A001217
:101393000FDDFD3A00120FDD0C3C00120FDD1E3C89
:1013A30000120FDD8E3C00120FDDB83C00120FDD82
:1013B300463D00120FDD7F3D00120FDDCB3D0012D5
:1013C3000FDDE73E00120FDD304100120FDD3B4120
:1013D30000120FDD464100120FDD514100120FDDF7
:1013E3005B4100120FDD664100120FDD80410012E8
:1013F3000FDD8A4100120FDD944100120FDD9F4182
:1014030000120FDDC74100120FDD224200120FDD73
:101413002C4200120FDD504200120FDD7442001205
:101423000FDDD24200120FDD164300120FDD3243EF
:1014330000120FDDA94300120FDDE14300120FDD9F
:101443002D4400120FDD8A4400120FDD44450012C3
:101453000FDD284700120FDD814700120FDDB14871
:1014630000120FDDD74800120FDD604A00120FDDB6
:10147300DC4D00120FDDAE4F00120FDD775100126D
:101483000FDD245200120FDD8F5300120FDD2E5497
:1014930000120FDD735400120FDDDD5400120FDD57
:1014A300EC5400120FDD735700120FDD25590012A3
:1014B3000FDD925900120FDD715A00120FDD8A5BA6
:1014C30000120FDD075D00120FDD265D00120FDD38
:1014D3007B5D00120FDD805E00120FDDA85E00123F
:1014E3000FDD005F00120FDDDF5F00120FDD2360F1
:1014F30000120FDD6E6000120FDDD96000120FDDE8
:101503001A6200120FDD7E6200120FDDCC6300123F
:101513000FDD2C6600120FDD5D6600120FDD15680E
:1015230000120FDD6A6800120FDD6E6900120FDD15
:101533000B6A00120FDD646A00120FDD176B0012D5
:101543000FDDB96B00120FDD596C00120FDDFE6C5D
:1015530000120FDD7C8901120FDDBB8901120FDD43
:10156300028C01120FDD4C8C01120FDD678D01120D
:101573000FDDCF8D01120FDD048E01120FDD788F89
:1015830001120FDDFB9101120FDD249301120FDD18
:10159300BA9301120FDDC29C01120FDD579D011298
:1015A3000FDD3EA001120FDD31A101120FDD9FA15E
:1015B30001120FDDE5A201120FDDC7A301120FDD3A
:1015C300ACA501120FDDBDA701120FDD27A8011283
:1015D3000FDDF9A801120FDD27A901120FDDE4A920
:1015E30001120FDDBBAA01120FDD82AB01120FDD69
:1015F30026AC01120FDD4FAC01120FDD71AC0112ED
:101603000FDDC7AE01120FDD9FAF01120FDDE3AF98
:1016130001120FDD4BB001120FDD03B101120FDD1B
:1016230035B101120FDD79B101120FDDAFB1011236
:101633000FDDFBB101120FDD50B201120FDD55B208
:1016430001120FDDA8B201120FDDCDB201120FDDC1
:10165300DCB301120FDD40B401120FDDB0B401128F
:101663000FDD3CB501120FDD09B801120FDDEDB836
:1016730001120FDD70BA01120FDDA6BC01120FDDDE
:1016830054BD01120FDD04BE01120FDD45C001126E
:101693000FDDE8C001120FDD2FC101120FDDDBC228
:1016A30001120FDDEFC201120FDDF9C201120FDDCE
:1016B30021C301120FDD2DC301120FDD4CC3011233
:1016C3000FDD6CC501120FDDBBC601120FDDFFC6B6
:1016D30001120FDDA7C701120FDD8AC801120FDD4A
:1016E30035C901120FDD81CA01120FDD7FCB011253
:1016F3000FDD25CC01120FDDB5CC01120FDDCCCCF3
:1017030001120FDD03CD01120FDD0DCD01120FDD2F
:1017130018CD01120FDD36CD01120FDD7ACD011286
:101723000FDDD7CD01120FDDFCCD01120FDD16CE7B
:1017330001120FDDA2CE01120FDDBFCF01120FDDAB
:101743002CD001120FDD13D101120FDD3AD101129A
:101753000FDDAED101120FDD29D201120FDD2DD322
:1017630001120FDD23D401120FDDD2D401120FDDDC
:10177300E5D501120FDD81D601120FDD0ED701125F
:101783000FDDECD701120FDD24D801120FDD7CD859
:1017930001120FDD45D901120FDD66D901120FDDEC
:1017A300EDD901120FDD11DA01120FDD33DA011267
:1017B3000FDD7CDA01120FDD92DC01120FDD79DD22
:1017C30001120FDD2ADE01120FDD60E001120FDDD1
:1017D300B0E001120FDDF0E001120FDD32E1011282
:1017E3000FDD8EE101120FDDBCE101120FDDE0E13F
:1017F30001120FDD33E201120FDD61E201120FDD91
:101803009AE201120FDDEFE201120FDD55E301123F
:101813000FDDA9E401120FDDCCE601120FDD39E77C
:1018230001120FDD62E701120FDDEDE701120FDD9B
:1018330054E801120FDD9FE801120FDDC3E8011226
:101843000FDDE7E801120FDD42E901120FDD5DE96B
:1018530001120FDD16EA01120FDD0F9204120FDDE4
:101863004E9204120FDD788002120FDDBE80021249
:101873000FDD9E8102120FDDA08202120FDDA38312
:1018830002120FDD2F8502120FDD8D8502120FDD8F
:101893004A8602120FDD688702120FDDD987021212
:1018A3000FDD158802120FDD638802120FDD6D88CC
:1018B30002120FDDB18802120FDD0D8902120FDD56
:1018C300A88902120FDD258A02120FDDF48A0212A3
:1018D3000FDD8D8B02120FDDAD8B02120FDDE38B5B
:1018E30002120FDD148C02120FDDD58C02120FDDF4
:1018F300E58C02120FDD398D02120FDD548D0212B9
:101903000FDD668D02120FDD6F8D02120FDDC98DA3
:1019130002120FDD258E02120FDD718E02120FDD12
:101923008C8E02120FDDBD8E02120FDDDA8E0212D3
:101933000FDDE68E02120FDD5A9002120FDD739057
:1019430002120FDDDA9002120FDDED9002120FDDAD
:10195300FB9002120FDDAF9102120FDD9392021280
:101963000FDD999302120FDD239402120FDD2D94E4
:1019730002120FDD9A9402120FDDB19402120FDDF1
:10198300E39402120FDD1C9502120FDD469502123D
:101993000FDDA79502120FDDC79502120FDDE59546
:1019A30002120FDD2B9602120FDD519702120FDD8B
:1019B3009E9702120FDDCD9702120FDD439802129C
:1019C3000FDD6B9802120FDDA49802120FDDB2989F
:1019D30002120FDD0A9902120FDD599902120FDD6F
:1019E300989902120FDDC89902120FDDF4990212C1
:1019F3000FDDFF9902120FDD1D9A02120FDDDF9A30
:101A030002120FDDE99A02120FDD2A9B02120FDD8B
:101A13007F9B02120FDD939B02120FDDA19C02122A
:101A23000FDDB49C02120FDDC99C02120FDD6B9D0A
:101A330002120FDDEE9D02120FDDAC9E02120FDDCE
:101A4300B79E02120FDDE39F02120FDDFF9F02120A
:101A53000FDD51A002120FDD90A002120FDDA5A031
:101A630002120FDD07A102120FDD96A102120FDD94
:101A7300E1A102120FDD32A402120FDDB0A40212A3
:101A83000FDD25A502120FDD47A702120FDD5FA7A9
:101A930002120FDD62A702120FDD6EA702120FDD25
:101AA30082A702120FDD8AA702120FDDBDA7021261
:101AB3000FDD6DA802120FDDE3A802120FDD56A998
:101AC30002120FDD0AAA02120FDDBFAA02120FDDF6
:101AD300DEAA02120FDD84AB02120FDDAFAB0212DE
:101AE3000FDDB2AB02120FDD1CAC02120FDD44ADF1
:101AF30002120FDD1CAE02120FDDA7AE02120FDDC4
:101B0300C0AF02120FDD7DB002120FDDB6B00212BC
:101B13000FDDE7B002120FDDA5B102120FDDD5B163
:101B230002120FDDB0B202120FDD49B302120FDD54
:101B3300D4B302120FDD85B402120FDD08B5021211
:101B43000FDD3AB502120FDD7BB502120FDD60A780
:101B530003120FDDC5A703120FDD02A803120FDD69
:101B630051A803120FDD67AA03120FDD4AAC03125B
:101B73000FDDB4AF03120FDDEFAF03120FDD11B0B2
:101B830003120FDD74B003120FDDA8B003120FDDD3
:101B9300CBB003120FDDF8B003120FDD54B1031203
:101BA3000FDD9B9B03120FDD199C03120FDD4F9C6E
:101BB30003120FDDBB9C03120FDD2E9E03120FDDFC
:101BC3004A9E03120FDD8F9E03120FDD1D9F03122A
:101BD3000FDD769F03120FDDA3A003120FDDB5A166
:101BE30003120FDD12A203120FDD7EA203120FDD1B
:101BF300DFA203120FDD20A303120FDDCDA3031217
:101C03000FDDDFA403120FDD0AA503120FDD23E4AA
:101C130002120FDD9CA503120FDD2EA603120FDDAA
:101C2300E9A603120FDDA09004120FDD1B9104122D
:101C33000FDDA0B103120FDDAAB103120FDDF6B160
:101C430003120FDD64B203120FDD85B203120FDD41
:101C530035B303120FDDC9B503120FDDD2B503127D
:101C63000FDD25B603120FDD4EB603120FDDB5B639
:101C730003120FDD46B703120FDD88B703120FDD22
:101C8300D2B703120FDD31B803120FDD1F2E00127E
:101C93000FDDEEB803120FDD2DB903120FDD6CB9A2
:101CA30003120FDDA1B903120FDDB3B903120FDD68
:101CB300C5B903120FDDE4B903120FDDEDB9031249
:101CC3000FDDA3BA03120FDDE3BA03120FDDF78DA5
:101CD30004120FDD5D8204120FDD938204120FDD07
:101CE300DC8204120FDD2C8404120FDD50EA011292
:101CF3000FDD8FEB01120FDDCBEB01120FDD8AED50
:101D030001120FDDB3ED01120FDD46F001120FDDFD
:101D13008AF001120FDD13F201120FDDABF2011293
:101D23000FDD13F301120FDDB4F301120FDDF6F330
:101D330001120FDD36F401120FDDC1F501120FDDC3
:101D430031F701120FDD56F901120FDD84F901128B
:101D53000FDDABF901120FDDB4F901120FDD3BFA10
:101D630001120FDD59FD01120FDD3E9304120FDD49
:101D7300549304120FDDC49104120FDDF3F2031226
:101D83000FDD06F303120FDDA3F303120FDDDEF302
:101D930003120FDDF9F303120FDD1EF403120FDD3F
:101DA30063F403120FDD94F403120FDDC5F4031281
:101DB3000FDD4BF603120FDD6A8904120FDDA089D4
:101DC30004120FDDBC8904120FDDFE8904120FDD3E
:101DD3000E8A04120FDDA38A04120FDDAD8A0412EA
:101DE3000FDD58F603120FDDC0F603120FDD4FF7B8
:101DF30003120FDD4BF803120FDD77F803120FDD2B
:101E030072F903120FDD7B8E03120FDDD08E0312E6
:101E13000FDDB98F03120FDD529003120FDD9C907B
:101E230003120FDDF99003120FDD0D9103120FDD85
:101E33003F9103120FDD3D9203120FDD81920312D6
:101E43000FDD9C9203120FDDEB9203120FDD019362
:101E530003120FDD0E9303120FDD429303120FDD06
:101E63005B9303120FDD259403120FDD7F9403129E
:101E73000FDDCD9403120FDDEF9403120FDD669790
:101E830003120FDD949703120FDD249803120FDD65
:101E9300999803120FDD9E9803120FDDDA9803124F
:101EA3000FDD309903120FDDF49903120FDD199A38
:101EB30003120FDD239A03120FDD269A03120FDD9F
:101EC300AF9A03120FDDCA9A03120FDDDD9A0312D4
:101ED3000FDD189B03120FDD1B9B03120FDD269BE7
:101EE30003120FDD629B03120FDD779104120FDDE6
:101EF3008F9104120FDD48C403120FDD97C4031240
:101F03000FDD39C603120FDDF7C703120FDD3FC81C
:101F130003120FDD61C903120FDD92CA03120FDD35
:101F2300B4CA03120FDD10CB03120FDD92CB0312E1
:101F33000FDD68E402120FDD89E402120FDD13E501
:101F430002120FDD98E502120FDD14E602120FDD17
:101F53007DE602120FDDC9E602120FDD48E7021229
:101F63000FDDDAE702120FDD66E802120FDDA8E8E3
:101F730002120FDD14ED02120FDD94EE02120FDDDB
:101F83006AEF02120FDD99EF02120FDD84F10212E4
:101F93000FDD04F402120FDDBDF402120FDDDAF5DA
:101FA30002120FDD31F902120FDD41F902120FDDCA
:101FB300A2FA02120FDD2EFB02120FDD57FC0212F2
:101FC3000FDD48FD02120FDDCAFD02120FDD008096
:101FD30003120FDDBA8003120FDD2C8103120FDD14
:101FE300C88103120FDD388203120FDDF18403125F
:101FF3000FDDC88503120FDD358603120FDDB287AF
:1020030003120FDD7C8803120FDDEC8803120FDD52
:10201300B58A03120FDDC88B03120FDD618C031227
:102023000FDD278D03120FDD4FE803120FDDA3E849
:1020330003120FDDFBE803120FDD46E903120FDD88
:10204300A8E903120FDD14EA03120FDDC7EA031236
:102053000FDD08EB03120FDD1EEB03120FDD7AEB2E
:1020630003120FDDB8EB03120FDD8F8404120FDDB3
:10207300C08404120FDD7A8504120FDDE08504129B
:102083000FDD21FA03120FDDADFB03120FDD2188F3
:1020930004120FDD4B8804120FDDAB8804120FDD31
:1020A300E58804120FDD348904120FDDC99204128E
:1020B3000FDDDA9204120FDD698604120FDD7786D5
:1020C30004120FDD7C9304120FDD0A9004120FDD5E
:1020D3001A9004120FDD359004120FDD969004124E
:1020E3000FDDF58C04120FDD7A8D04120FDDDE8D0A
:1020F30004120FDDE38B04120FDD058C04120FDDD8
:102103006F8C04120FDD7A8C04120FDDBE8C041267
:102113000FDDC6CB03120FDD55CC03120FDD63CCED
:1021230003120FDDA4CC03120FDDBECC03120FDDAF
:102133003BCD03120FDD35CE03120FDD5ACE031252
:102143000FDD77CE03120FDD94CE03120FDDC8CE61
:1021530003120FDDEDCE03120FDD35CF03120FDDBA
:10216300B0CF03120FDDC0D003120FDDE9EB031272
:102173000FDDF7EB03120FDD71EC03120FDD55EDED
:1021830003120FDD0EEF03120FDD1C9304120FDD9C
:102193007FD103120FDDEBD103120FDDAAD203129D
:1021A3000FDDB4D303120FDD0DD503120FDD68D598
:1021B30003120FDDBDD503120FDDC6D503120FDDEC
:1021C300D8D503120FDD42D603120FDD56D6031204
:1021D3000FDD1DDB03120FDD72DB03120FDD6EDD7E
:1021E30003120FDDA0DD03120FDDC2DD03120FDDCD
:1021F300DBDD03120FDDF4DD03120FDDFEDE031260
:102203000FDD99DF03120FDD62FE02120FDD86FE82
:1022130002120FDD9FFE02120FDDD2FE02120FDD4E
:1022230003FF02120FDD31FF02120FDD93FF0212D3
:102233000FDDA2FF02120FDDACFF02120FDDB9FFAB
:1022430002120FDD58FC03120FDD7EFC03120FDDBB
:10225300BBFC03120FDDCAFC03120FDDE9FC031202
:102263000FDD51FD03120FDD5AFD03120FDDB9FD22
:1022730003120FDDDDFD03120FDD9CFE03120FDDE4
:10228300A9FE03120FDDBAFE03120FDDC2FF011216
:102293000FDDDFFF01120FDD10E003120FDD6EE132
:1022A30003120FDD7BE103120FDD8EE103120FDD5D
:1022B300ADE103120FDDC3E103120FDDD7E103121A
:1022C3000FDD4CE203120FDDB1E203120FDD61E318
:1022D30003120FDD36E403120FDD46E403120FDDB4
:1022E30055E403120FDDD18E04120FDDF58E0412B7
:1022F3000FDD1D8F04120FDD458F04120FDD997D55
:1023030000120FDDC07D00120FDDE17D00120FDD35
:10231300467E00120FDD008004120FDD19800412C7
:102323000FDD258004120FDD398004120FDD578085
:1023330004120FDD618004120FDD6B8004120FDDC8
:102343007E8004120FDDD18004120FDD0A81041296
:102353000FDD398104120FDD878104120FDDD68171
:1023630004120FDDF18104120FDDFB8104120FDD76
:102373000C8204120FDD528204120FDD2691041227
:102383000FDD0CBB03120FDD36BB03120FDD52BB97
:1023930003120FDD65BB03120FDD7BBB03120FDDE1
:1023A300D8BB03120FDD0BBC03120FDD47C00312B2
:1023B3000FDD6DC103120FDDA0C103120FDDECC1F0
:1023C30003120FDD18C303120FDD40C303120FDD29
:1023D30055C303120FDD65C303120FDDA9C3031237
:1023E3000FDD0AC403120FDD1AC403120FDDB08A16
:1023F30004120FDDCB8A04120FDDF48A04120FDD01
:102403000E8B04120FDD338B04120FDD528B04127B
:102413000FDD6A8B04120FDD988B04120FDDB28B74
:1024230004120FDD589204120FDD73EF03120FDD58
:102433007AEF03120FDD86F003120FDDB6F00312FD
:102443000FDDDCF003120FDDFFF003120FDD21F1CE
:1024530003120FDD5BF103120FDDC1F103120FDD78
:10246300FAF103120FDD46F203120FDD73F20312CA
:102473000FDD93F203120FDDDAFD01120FDDF2FD22
:1024830001120FDDE0FE01120FDDBFFF01120FDDB0
:10249300E8FE03120FDD5AFF03120FDD98FF03124C
:1024A3000FDDD9FF03120FDD8EE403120FDDADE460
:1024B30003120FDDFCE403120FDD18E503120FDD39
:1024C30049E503120FDD56E503120FDD63E5031241
:1024D3000FDD4FE603120FDD8DE603120FDD9DE7DF
:1024E30003120FDDA8E703120FDDBAE703120FDDB6
:1024F300C3E703120FDDCDE703120FDD60D603122E
:102503000FDDA5DA03120FDDB3DA03120FDD9C92A0
:1025130004120FDD6A8F04120FDD948F04120FDD96
:10252300C3FF02120FDDF49204120FDD5E93041257
:102533000FDD4A6D00120FDD687200120FDDEFE24E
:1025430002120FDD4CE202120FDDFFE002120FDD7B
:10255300AADE02120FDD40DE02120FDDF8DD0212E9
:102563000FDD6ADD02120FDD5DDD02120FDD57DACA
:1025730002120FDDB9D702120FDDF82D00120FDDA5
:10258300B42D00120FDD82D602120FDDD6D5021252
:102593000FDD792D00120FDD532D00120FDD1CD43A
:1025A30002120FDDCCD102120FDD53D102120FDD67
:1025B300FAD002120FDD8AD002120FDD61D00212AF
:1025C3000FDD41CE02120FDD0DCE02120FDDDACD8B
:1025D30002120FDDBECD02120FDDD7CC02120FDDCA
:1025E3008FCC02120FDDDACA02120FDD5ACA0212B1
:1025F3000FDD57CA02120FDD58C902120FDD26C9BB
:1026030002120FDD63C802120FDD8EC602120FDD48
:102613001FC602120FDDF1C502120FDD3A2D0012A3
:102623000FDDE62C00120FDD422C00120FDDB82B5C
:1026330000120FDD572B00120FDDEEC502120FDD66
:10264300DBC502120FDD86C502120FDD052B00125A
:102653000FDD75C502120FDD67C402120FDD31C431
:1026630002120FDDDFC302120FDDF32A00120FDDAA
:102673005DB803120FDD80C302120FDD4FC30212D8
:102683000FDD17C002120FDDD7BF02120FDDCBBF64
:1026930002120FDD2BBF02120FDD6BBE02120FDD24
:1026A300EDBB02120FDD7EB902120FDD3CB902123F
:1026B3000FDD10B802120FDDC5B702120FDD04B72C
:1026C30002120FDDD7B602120FDD1AB602120FDDAA
:1026D300B0B502120FDDEAB502120FDD41E40212BA
:1026E3000FDD55A50300000080FBE47300013636BF
:1026F30001010001020100010301000104010606BA
:1027030005020000070100340801000F090401015C
:102713000D0100FF0E08000017020000190100FF61
:102723001A0100011B0100FE1C0100081D0200002C
:102733001F01000120010001210200002301000FFD
:10274300240200002601000127010008280200FFDF
:102753002A0100072B0102402C0100002D0100017A
:102763002E0100012F0100FF30010B1C3108000076
:102773003A0100083B01000F2F0100000302710220
:1027830030016002110270020102020202028002A1
:10279300100261023A004100630273027202620294
:1027A3004302000213023800000200020402120274
:1027B3000002000200020002040204023700370094
:1027C3003C024402000239000002000265020002DA
:1027D3003502810200020502820283020002030025
:1027E30071003001600011007000310220035004B9
:1027F3008000100061000000140063007300720089
:102803006200430000001300060000000000040003
:102813001200000000000000000004000400370064
:1028230037003C0244000000000000000000650087
:102833000000350081000000050000008300000057
:10284300030471040204600411047004020402040A
:1028530001040204100461040004140463047304F7
:102863007204620443040004130406040004000415
:10287300040412040004000400040004510464006E
:1028830000040004000444040004000400040004E1
:102893006504000435048104640005040004830412
:1028A3000004010371030103010301030103010395
:1028B30022030203010310030003000300030003C8
:1028C3000003000300034203000324030603000381
:1028D3000003040312032503230325032303040333
:1028E3000403000300030003440300030003230362
:1028F300000365032100350381030003050300037F
:102903000003000301017101010101011101010132
:102913003101010101018001100161013B0014003B
:102923006301730172016201430100011301060196
:102933003D01350004011201000100010001000105
:1029430004010401330133013C0144013201360027
:10295300000100016501000135008101000105014D
:1029630082018301000136000100060000000F0010
:1029730000000000000000000000000003FFFF0053
:10298300000403FFFF0000FFFF0FF4010005C40470
:102993000320000100030B000000000000000003FF
:1029A300010F0000E61F1300861F0100E61F02004F
:1029B300501F0300561F04005C1F0500621F060022
:1029C3006E1FFFFF0000019C1506CC1508C6150BF2
:1029D300D81510181502A21505BA1507A8150C7EEF
:1029E300150D9015FF000003EAF5E5D5D5C5B5A58E
:1029F3009595858575756565555545453535252504
:102A0300151505A419D419AA19B019CE19C219BCE0
:102A130019DA19E019E619F219B6199E199819006D
:102A2300160F00000B150B020002220F32000006E6
:102A33008E1AA01AA61A6E19AC1A68197419A81856
:102A4300A218DE18E418D8189018E81A061B0C1BF5
:102A5300EE1AFA1AF41A303016181920231A1C1E0B
:102A6300300C0E020B040B0A0708000F00383C3E23
:102A7300363B3B352B432C303017181921301B1DA7
:102A83001F300001191618161615230300000349F9
:102A930048424D1817250502DC1AB21AB81AC41A8F
:102AA300BE1AC819EC19001BF819FE190204020119
:102AB3000101010902B418BA18AE18EA180000009F
:102AC300000000C018D21800BE040A150004007FDD
:102AD30000E8030C00280000000000090308100CA4
:102AE3000A03080900040001FF1E1E0C05040F0859
:102AF300C082C0838A828B83E0D2E7F0121EB402C5
:102B03003C6AC082C0837900122FBF125CD6C08298
:102B1300C083900334124A5CD083D082C3E09CA369
:102B2300E09D500C1263AAFAA3E0122B3660010950
:102B3300023C6AFBEA75F00BA4FAA8F075F00BEB04
:102B4300A428FB900336E02AF8A3E03B8882F583B0
:102B5300E0540F2274F7120A5B8908122FBF123058
:102B630065ACF075F00BE9A42CF9900336E028FE70
:102B7300A3E039FF740165086006740265087020DC
:102B83008A828B83123051123D3874026508701BA0
:102B9300122F1012309870138E828F83E4F0800B03
:102BA300EA2403FCEB12303312303FEEFAEFFB1250
:102BB300266A023CA274F4120A5B126CD179008E6D
:102BC300828F83E06076890A890B8065E50A75F058
:102BD3000BA4FAA8F075F00BE50B122B437046E536
:102BE3000A75F00BA4F8AAF075F00BE50B12307719
:102BF3008E828F83E0850882850983123159850887
:102C030082850983A3123D38EE2403FCEF12303C86
:102C1300123C71125750AA08AB0912266A79019027
:102C23000334125165E50A2401F50AE50B3400F576
:102C33000B122F18E50A9AE50B9B4090023EE274B3
:102C4300F5120A5BEAFEEBFF740B1212DD123C76FF
:102C5300750A01EC4D602BEC126CEDED125CD61293
:102C63003D307901122634E5084509606F850882F5
:102C7300850983A3126CDB7902AA08AB09122634F7
:102C8300805AE5084509602B125CDA1243A4123C12
:102C930072123082700CEEFAEFFB12262EE9F50A5F
:102CA30080CBEE2403FA122FBA70317903EEFAEFD8
:102CB300FB80CA8E828F83A3E064FE7003A3E0F4DB
:102CC300700BEE24030A0A0A122FBA700CEEFAEF05
:102CD300FB12262EE9F50A8003750A00A90A7F0371
:102CE300020D1074F7120A5B900334123CB2EA4BE4
:102CF300602FEA75F00BA4FAA8F075F00BEBA4288B
:102D0300FBEAFEEBFF121CE0900336123CB2900389
:102D130036124FAA6012EEFCEFFD7900121C4480BC
:102D230007900336E4F0A3F0023CA2900334124769
:102D330014C3EE98EF9922C082C083EC4D60051254
:102D430024A280097C087D007900121C44023C6A9D
:102D530074F6120A5B7900EA4B601878008808124F
:102D6300601DEB1263A660047901780808E8C39438
:102D73000840EA023D4174F7120A5B74F31210A68D
:102D8300ECFEEDFF851882851983E4F0041212DD51
:102D9300EAF0A3EB1254D674031212DDAC82AD83B6
:102DA300EEFAEFFB12261CEEFAEFFB122598023C1B
:102DB3009D74F7120A5B74F31210A6ECFEEDFF8507
:102DC3001882851983E4F0EAFCEBFD74031212DD2B
:102DD30012315274011212DD123D2C8E828F831236
:102DE3003D3874FE68700374FF69600479018002E2
:102DF3007900023C9D74F7120A5BEAFEEBFF122E88
:102E0300567014122E618E828F83E0F4F88A828BBF
:102E130083E058F012266AA908023CA274F7120A4A
:102E23005BEAFEEBFF7508008E828F83E06022125F
:102E33002E56701D122E618A828B83E08F838E82C1
:102E4300F8E058700CE0F88A828B83E048F0122691
:102E53006A80C412264CE9F5087401650822126CD5
:102E6300E6123069122FABFAA3E039FB2274F41295
:102E73000A5B8A088B097C007D00122F1012303FF9
:102E8300122FD0126CD87900850882850983A3E0BC
:102E930064FE7003A3E0F460717E007F008062EE45
:102EA300FAEF122B366057EEFAEFFBEA75F00BA43C
:102EB300FAA8F075F00BEBA428FB900336E02AF593
:102EC3000AA3E03BF50B850882850983A3125424EA
:102ED300850A82850B83A3E06A7003A3E06B701EEF
:102EE300E50A2403FAE50B122FBB700AE50A240353
:102EF300FCE50B12303C122FC47901125CEC123842
:102F0300AF122F18EE9AEF9B4095023EE2EA24039C
:102F13000A0A0AEB229003341258C3C32274F31231
:102F23000A5B8A088B098A828B83A3126CDB122FBC
:102F3300BF126CD8750C00122F10122FBB70547E69
:102F4300007F008049122F9DFAA3E0398A82F5831E
:102F5300E0540F6036122F9DF50AA3E039F50BE517
:102F63000A2403FCE50B1230463400FB12249CE9CF
:102F730064017017850A82850B83A3125984A312F7
:102F83003D38122FC4750C01125CEC1238AF122DB0
:102F93002E40B2A90C7F05020D10EEF8EFF9E8758B
:102FA300F00BA4F8122FAB22AAF075F00BE9A42AB8
:102FB300F9900336E02822EF12309222126CECEBE8
:102FC30022122FD0125CE7EEF0A3EFF022E50812F5
:102FD3006CEDE5092274F5120A5BEAFEEBFF8E82C3
:102FE3008F83A3126CDB7C007D00EE24030A0A0AA4
:102FF300EF12303FEEFAEFFB12264CE9F50A7401AB
:10300300650A7029126CE6123065AAF075F00BE9B7
:10301300123077850882F583123051123082700D99
:10302300E5082403FCE50912303312303F022CDF9C
:103033003400FDEE2403FAEF221230463400FB1273
:10304300261C223400FDE5082403FAE50922A31215
:1030530030562212305A22E0F8A3E0F98E828F8391
:10306300A322123069223400F583124718E875F061
:103073000BA4F822122FB1F508A3E039F50922E8D1
:10308300F0A3E9F0E5082403FAE5091230922212CD
:1030930030986401223400FB122598E92274F3125C
:1030A3000A5B74E61210A6126CD1750C0175080048
:1030B300750900750A00750B00851882851983E46C
:1030C300F0EE2403FCEF3400FD74031212DD123121
:1030D30052E964017023740B1212DD123D30740146
:1030E3001212DD1254287003A3E06960518518821F
:1030F300851983858208858309740D1212DDE41214
:103103003159740E1212DD123D38740D1212DDAAFC
:1031130082AB831212F0E96401700B740D1212DD9D
:1031230085820A85830B780A121015AC08AD09EE67
:10313300FAEFFB1226287402121028E9F50CEEFAB6
:10314300EFFB121C8CA90C741A121028022F981270
:1031530034251212F622123CAD12471422C082C04B
:1031630083780079008003123250122F18E89AE90D
:103173009B5029E8FAE9FBEA75F00BA4FAACF07569
:10318300F00BEBA42CFB900336E02AFCA3E03B8C72
:1031930082F583E0540F70CF790080027901023CFD
:1031A3006AC082C083902ACE12476AEC75F012A4DB
:1031B300FCA8F075F012EDA428FD79FF7A597B0B7A
:1031C300121C44023C6A74F7120A5BE9FEEAFF7AB6
:1031D300007B00780079008028E8FCE9FDEC75F0BD
:1031E30012A4FC85F00875F012EDA42508123665CB
:1031F300C39E400AE0FCEFC39C40031237841232A3
:103203005012365940D3023CA2C082C08378007961
:10321300008003123250123244501F123669F47088
:10322300F2E875F012A4F8AAF075F012E9A42AF9ED
:10323300745928FA740B39FB80047A007B00023C32
:103243006A902ACE12371AC3E89AE99B22E824012E
:1032530008E93400F92274F0120A5B74F31210A621
:103263008A0A8B0B8C0C8D0D8908EC450D6016AA10
:103273000CAB0D1213448A0E8B0FAE0EAF0FEE4F35
:10328300600302331712131A8A0E8B0FA80EA90FAD
:10329300E8FEE9FFE849607C902ADC12337960227A
:1032A3007403650860067404650870167A0479036C
:1032B300121314902ADC12339040077A007B000229
:1032C3003376902ADA123379601B7401650860063D
:1032D30074026508700F7A027901121314902ADAC6
:1032E30012339050D68518828519837401F0121217
:1032F300DD125750AC0CAD0D74031212DD12341EE7
:10330300740B1212DD123C7E124118E4125738126C
:1033130017E88004EE4F604A780074FF2508C394D1
:1033230004500278048E828F831257508E828F83CB
:10333300A3A3A3A3E508F0E88E828F83A3A3A3A38B
:10334300A31257581208031237318E828F83A3A317
:10335300A3A3A3A3A3F01237281212B2125CD012B4
:1033630012A612337E40059010B5E4F01216C2EE99
:10337300FAEFFB02471E12587249227A04790012AF
:103383001314902ACE12638CEA98EB99221233A974
:1033930075832A7582CEE493C398F8A3E49399F9CD
:1033A300C3EA98EB9922E493F8740193F92274F237
:1033B300120A5B74F31210A68A088B09ECFEEDFF68
:1033C300750A00EEFAEFFB1213448A0C8B0DA80C5E
:1033D300A90DE849603E88828983E065087004A3EB
:1033E300E06509602F88828983A3A3A3A3E0C39424
:1033F300055021125B7E8518828519837401F012B2
:1034030012DD125B82EEFCEFFD74031212DD123447
:103413001E750A01A90A740D02521C1234251213D7
:103423000222AA82AB8312261C851882851983AADD
:1034330082AB832274F6120A5B123473600FA3A368
:10344300A3A3E014C3940450047901800279000219
:103453003D4174F6120A5B123473600FA3A3A3A356
:10346300E014C394025004790180027900023D41C3
:1034730012133E8A828B83E58245832274F6120AF5
:103483005B123473600BA3A3A3A3E07004790180E0
:10349300027900023D41C082C083EAFCEBFD7A0061
:1034A3007B00023C67C082C0837C007D00023C67D6
:1034B30074F4120A5B74F31210A6EAFEEBFF8C0A93
:1034C3008D0BC3EC94F8ED94FF4007EE4F700302AD
:1034D300356C750800750900802E8518828519835F
:1034E3007401F01238D71212DD1238E56013740339
:1034F3001212DDAC82AD83EEFAEFFB12249CE9706D
:1035030049E5082401123705902ACEE412587AE5DA
:103513000898E509995052E50875F012A4F8AAF045
:1035230075F012E509A42AF91263BF60D4EE4F7057
:10353300A974FF650A700474FF650B60C41238C771
:10354300650A7004A3E0650B70B7E50875F012A473
:10355300F508A8F075F012E509A428F509745925B2
:1035630008FA740B3509FB80047A007B00023EDD08
:1035730074F4120A5B74F31210A675080012134454
:103583008A0A8B0BAE0AAF0BEE4F602A8518828531
:1035930019837401123CA7F8A3E0F9740B1212DD2E
:1035A300123DBB12257A7C127D0079FFEEFAEFFB08
:1035B300121C4475080112337E50099010B5740132
:1035C300F01216C2A908023EDD74F7120A5BE9FE87
:1035D30074FE6A700374FF6B780079007005805283
:1035E300123250123659504AE8FCE9FDEC75F012DC
:1035F300A4FCAFF075F012EDA42F123665F460E071
:10360300E8FCE9FDEC75F012A4FC75F012EDA42FB3
:10361300FD74592CF582740B3DF583E06A7003A3A6
:10362300E06B70BC800912366914C394044017120E
:1036330032501232445018EE70EC12366964016055
:1036430005E0640370E91238B8FAA3E0FB80047A5A
:10365300FE7BFF023CA2902ACE12476EC3E89CE990
:103663009D221237B922E8FAE9FBEA75F012A4FAAF
:10367300ACF075F012EBA42CFB745D2AF582740B8D
:103683003BF583E022121356023C6AC082C0837961
:103693000180F274F0120A5B8A0A8B0B7A047901B7
:1036A3001213148A0C8B0DEA450D603EEAC333FAFC
:1036B300EB33FB121CE08A088B09AE08AF09EE4F0F
:1036C30060237AFE7BFF12135C74FE6A700374FF3F
:1036D3006B601B850882850983123CB2E5082402CE
:1036E30012370580E1750C0080047E007F00850A97
:1036F30082850B83E50CF0EEFAEFFB024723E50826
:103703002407F508E5093400F50922902ACE12476B
:103713006EC3EA9CEB9D22E493FA740193FB22129D
:103723001C38740322125CE1E4F090892722E88EAE
:10373300828F83A3A3A3A3A3A3A3A31237537401C9
:10374300123753A3F0EE2410125CE4E4F0A3F0224A
:10375300124124A3A3A322C082C0837A007B0080EA
:10376300041912378412370E50101237A3C394056D
:1037730050F0E970EC12378D80047A007B00023C34
:103783006AEA24010AEB3400FB22EA75F012A4FA78
:1037930075F012EBA428FB74592AFA740B3BFB2235
:1037A300EAFCEBFDEC75F012A4FCA8F075F012ED49
:1037B300A4281237B922FD745D2CF582740B3DF5F4
:1037C30083E02274F7120A5B74F31210A67E007F63
:1037D3000002386BE50875F017A4F8A9F01266200B
:1037E300FAA3E0FBEEF8EFF9E875F012A4F8ACF0F9
:1037F30075F012E9A42C1238C66A7003A3E06B605B
:103803003FE50875F017A4F8AAF0EA12661FF8A3BB
:10381300E0F974011212DDE0687003A3E06960202F
:10382300E50875F017A4F8EAF974D528FC740C3987
:10383300FD74031212DDAA82AB8312249CE9601487
:10384300E50875F017A4F8A9F074D328FA740C39B5
:10385300FB1217F40508902AE1E493F8E508C398EE
:1038630050030237D71238AF902ACE126966503907
:10387300EEF8EFF91238B8F47003A3E0F460E685CC
:1038830018828519837401F0EEF8EFF9E875F012E8
:10389300A4F875F012E9A42AF91238D71212DD122E
:1038A30038E560C175080080AD023C9DEE24010E31
:1038B300EF3400FF22E875F012A4F8AAF075F012B5
:1038C300E9A42AF91238CB22745928F582740B39EA
:1038D300F583E022745B28F582740B391247127466
:1038E3000B22E8F0A3E9123DC31212FCE922C082C5
:1038F300C08390033D74B4F0A37415F090033F7438
:10390300AEF0A37415F090034374CEF0A37413F0D8
:10391300023C6A74F7120A5BEAFEEBFF900377E05E
:103923006408601BE0640460168E828F83E0540396
:1039330064017048123C71124219E06406703D8EB6
:10394300828F83A3A3E064FE7003A3E0F4602D8E53
:10395300828F83A3A3123D2C900368E0687003A3B6
:10396300E069700BEE2415F582EF1263A66008126E
:103973001662E9F508800812166880F67508C2EE2B
:10398300FAEFFB121CE6022E1A74F4120A5B8A0881
:103993008B098A828B83E0F8A3E0FAE82AFAE434FD
:1039A30000FB121CE08A0A8B0BAE0AAF0BEE4F60D2
:1039B30063850882850983E0FC7D007900121C443D
:1039C3008E828F83A3A3126CDB1216A48E828F8345
:1039D300A3A3A3A3123CB2850882850983E0F8EE72
:1039E30028F8EF3400123D34850882850983A3E06B
:1039F300C0E0EE240D125CD3D0E0F01216B6EE2434
:103A03000E125CD3E9125385E0C0E0EE2411125C80
:103A1300D3D0E0F0EEFAEFFB023EE274F6120A5B5B
:103A230074EB1210A6EAFEEBFF124FA76003023AF3
:103A3300C27A077B00121CE0900339123CB2124F8A
:103A4300A760788E828F831212B290033A12421CBF
:103A53001212A6126B9FC0E0123ACED0E0F0EE2411
:103A630005FAEF3400FB8A088B098A82F583E0C0EC
:103A7300E0123AC9D0E0123ED9E0C0E0123AC9A33D
:103A8300D0E0123D1E1212B28518828519831212DC
:103A9300A688828983E0C0E074051212DDD0E0F0CD
:103AA300850882850983E0C0E074041212DDD0E04A
:103AB300F074071212DD123C04800679108002793B
:103AC300017415023D3E123ACEA322900339E0FA67
:103AD300A3E0F5838A82A3A3A3A322C082C0831297
:103AE3004FA7600D9003391258B1900339E4F0A346
:103AF300F01215D2121794023C6A74F0120A5B7426
:103B0300EB1210A6ECFEEDFF890874251212DD7886
:103B13000C12127B74291212DDE0F9742A1212DDE1
:103B2300E0FC742B1212DDE0FD740F697005740F55
:103B33006C6012901100E06402700579C1023BFFD2
:103B4300E9C39C40F6900378780C12124EE5089076
:103B5300037EF0E990037CF0ECA3F0ED90037FF09B
:103B630074FF6A700374FF6B701D90110BE0F470A7
:103B730003A3E0F47005121C56800C90110B123C49
:103B830087E8F0A3E98007900375EAF0A3EBF0EE72
:103B93004F6017EEFAEFFB121854E96401700BEE55
:103BA300FCEFFD7A897B031224A2900368E4F0A35F
:103BB300F090036BF0A3F0900388F0901100E064A1
:103BC30002700890037C740FF0A3F09003777405E0
:103BD300F0141212DDE4F09003781212B285188209
:103BE3008519831212A690037EE0C0E074051212B9
:103BF300DDD0E0F074071212DD123C0474150247A5
:103C030020E4123DC31224CC22C082C08390033827
:103C1300E07003121F8012139E804CC082C08390F9
:103C23000338E09010B47004E4F0802D7401F09038
:103C33000338E0F460237C41E0C394415002E0FC8C
:103C4300ECF8E0C398F0EC75F0E8A4CCA8F075F0BC
:103C530003A428FD7A801247767AB47B1079411247
:103C630024BA800312134AD083D082020FDAEE12F1
:103C73005CE222E0F508A3E0F50922123C8222125D
:103C8300305AA3221247149003752274F7120A5B69
:103C9300EB90037FF01215C08005740D1210287F7E
:103CA30001020D10123CADA3E022123D1EA322EA35
:103CB300F0A3EBF02274F7120A5B74F81210A6EA71
:103CC300FEEBFF7900900377E06408704485188267
:103CD30085198374FDF0A374FFF012169E7402120B
:103CE30012DD123CB274051212DDE4123CADE0C0E9
:103CF300E074041212DDD0E0123D19C0E074061224
:103D030012DDD0E0F074071212DDE4123DBF12168B
:103D1300E07408023C9F123D1EE022F08E828F83E6
:103D230022F08518828519832212471422E0F8A312
:103D3300E0F9125CE1E8F0A3E9F0221210287F0217
:103D4300020D10C082C083900349745EF0A3741403
:103D5300F09003EF743AF0A37417F090034D74944A
:103D6300F0A37414F090034F745EF0A37414F090F6
:103D73000351749AF0A37414F0023C6A74F4120AA7
:103D83005B74F91210A68A088B098C0A8D0B8518AF
:103D930082851983780812124E74041212DDE9F039
:103DA30074051212DDE4F074061212DDE4123DBF55
:103DB3001213867407023EDFE8F0A3E9123DC32223
:103DC300123D24AA82AB832274F4120A5B8A088B05
:103DD300098A828B83125CEFEE4F7003023ED79009
:103DE3000312124FAA60158A828B83A3A3E0F9EE14
:103DF300FAEFFB90031312421C1226ED8E828F837F
:103E0300A3A3A3A3A3A3A3A3A3E0640270748E82BA
:103E13008F83A3A3A3A3A3A3E054027003023EA929
:103E2300850882850983A3A3E064E960798E828F84
:103E330083A3A3A3A3A3A3A3A3A3A3E07014901199
:103E430003E0048E828F83A3A3A3A3A3A3A3A3A3AB
:103E5300A3F08E828F83A3A3A3A3A3A3A3A3A3A34C
:103E6300E014123ED9A3A3A37404F09011041257D3
:103E73002AE8F0A3E91268038B0BEA450B700312DF
:103E830061E18E828F83A3A3A3A3A3A3A3A3A3E030
:103E9300640260128E828F83A3A3A3A3A3A3A3A30D
:103EA300A3E06406702E8E828F83A3A3A3A3A3A390
:103EB300E0A2E0501F850882850983A3A3E0F9EE01
:103EC300FAEFFB1225CE8E828F83A3A3A3A3A3A312
:103ED300E054FEF0800912412022740D1210287F55
:103EE30004020D1074EC120A5B74DD1210A6EAFED4
:103EF300EBFF8C088D0974371212DD780C12127BDC
:103F0300750A0074051212DDAC82AD83122550745C
:103F1300121212DDE0700874151212DDE0602074D5
:103F2300051212DDE0A2E6501E8E828F83A3A3A3A7
:103F3300A3A3A3A3A3A3125424121716E960087919
:103F43000312248A02410674051212DDE0540C6444
:103F5300047005750B018003750B00E0A2E5503575
:103F6300750A01E50BA2E0402C1216A48A108B11EE
:103F7300A810A911123C71E0687003A3E0696015F1
:103F830074051212DD126CE21254201225DAE96074
:103F930004790480AC74051212DDE0A2E6502274A9
:103FA300061212DDE05403701874051212DDE0549A
:103FB3000C640C600CE0540C6408600575100180FF
:103FC3000375100074051212DDE05403F8740268DF
:103FD300700C126CE212542012253E024106740149
:103FE30068703AE510A2E0500312410E74051212F4
:103FF300DDA882A98374031212DDE8F0A3E9124756
:1040030008851882851983124118E0C0E0740212F2
:1040130012DDD0E0123DBF1226BE024106E8600366
:1040230002410690035FE0640170108E828F83A3C8
:10403300A3A3A3A3A3E07003023F9474221212DD8F
:104043007402124708741A1212DD123D38E510A2E9
:10405300E0500874051212DD12410EE50BA2E05088
:104063006AEE240FF582EF1263A6C0E074171212F2
:10407300DDD0E0F0900314124FAA70030241061240
:1040830016A48A128B13A812A913741A1212DDE054
:10409300687003A3E069706B780C12100D780A1234
:1040A30010197808121015A910740C1212DDAC82C5
:1040B300AD8374211212DDAA82AB839003141242E2
:1040C300191226ED74071210288038780C12100D7F
:1040D300780A1210197808121015900375120E1031
:1040E300EE2412F582EF1260D474231212DDAC8237
:1040F300AD83740E1212DDAA82AB831225C274093A
:1041030012102874231210280267CE126CE2125880
:10411300BF12254A22E8F0A3E912412022124124CA
:1041230022F08E828F83A3A3A3A3A3A32274F712E7
:104133000A5B121E6C023CA274F7120A5B121E7217
:10414300023CA274F7120A5B121E7E023CA2C082DA
:10415300C083121E78023C6A74F7120A5B121E8433
:10416300023CA274F7120A5B74091212DDE0F5082F
:104173007808121019121E907401023C9FC082C06D
:1041830083121E9C023C6AC082C083121EA2023CA0
:104193006A74F7120A5B121EA8023CA274F7120A91
:1041A3005BEAFEEBFF89087401650870147900125D
:1041B30014D6902AECE493FC7900EEFAEFFB121488
:1041C3004C023CA274F4120A5B74F91210A6E9FEC5
:1041D3008A088B098C0A8D0B74131212DD12542476
:1041E3009005CD124FAA6027EE851882851983F0BA
:1041F30074011212DD780812124EEAF8EBF9740515
:104203001212DD123DBB9005CD1242191226ED02AA
:104213003DB6FB90034BE0F8A3E0F583888222C010
:1042230082C083121ED8023C6A74F7120A5B901094
:10423300B7E0F97E00800B126392540D64017001A4
:10424300190E1244265003E970ED023CA274F712D2
:104253000A5B9010B8E0F97E00800B126392548DD4
:1042630064817001190E1244265003E970ED023C7B
:10427300A274F2120A5B890BE975F006A4240CF50B
:1042830008E5F01237098A0CE508250CFAE509342C
:1042930000FB121CE08A0C8B0DAE0CAF0DEE4F60D1
:1042A30027AC08AD097900121C44123C71E50BF0F0
:1042B300EE2508F8EF3509F98E828F83A3A3A3A314
:1042C300A3A3A3A3A3123D38EEFAEFFB02521F747C
:1042D300F6120A5BEAFEEBFF1214289010B6E0F820
:1042E300E9C398400990034512542412142EEE2476
:1042F30002F8EF125A349003471258EE900347E046
:1043030004F0EEFAEFFB121434850882850983E08A
:10431300025EEAC082C083790090034580010912DE
:1043230054248A828B83E582458370F2023C6A744B
:10433300F7120A5BEAFEEBFFEE4F6056900345125D
:104343004FAA604E888289837A007B00EE65827073
:1043530003EF6583600FAA82AB83124398E582451E
:1043630083602F80E79003451243A4687002EF69CE
:104373008E828F837008123D2C9003458003126751
:10438300E0123D38EEFAEFFB12268EEEFAEFFB1247
:104393001CE6023CA212439C22124718888289839E
:1043A30022124714EE22C082C08390034580048802
:1043B300828983124FAA600B88828983124A5CEC3C
:1043C3004D70EC8A828B83E4F0A3F0E849600688A1
:1043D3008289838003900345123CB2023C6A74F7DE
:1043E300120A5B90034580048A828B831244214B1B
:1043F30060257E0080010E12442650ECEE75F00617
:10440300A4FCADF0EA2CFCEB3DFDEC2410F582EDB1
:1044130012447670E180047A007B00023CA21258B9
:10442300C3EA2212447FEEC3982274F7120A5B7D1B
:104433000080010D12447BEDC3985034ED75F006F6
:10444300A4FEA8F0E8FFEA2EFEEB3FFFEE2410F5F2
:1044530082EF12447670DCED75F006A4FEE8FFEA05
:104463002EFAEB3FFBEA2411F582EB1263A64CF024
:10447300023CA21263B2692212447F22126CECEB5B
:104483003400F583E0F82274F6120A5B12154E7AB3
:10449300007B008025EAF8EBF9E875F006A4F8AC98
:1044A300F075F006E9A42C125898126BADA3E41230
:1044B300598EF0A3126BB3126D2A902AD612338849
:1044C30040D37A007B00801C8A088B097403780828
:1044D3001211D512534CA374FEF0A30412576EA30A
:1044E300E4126D2A902AE012452940DC7A007B0011
:1044F300801D8A088B09740378081211D574FB1286
:10450300601E740F12686574FEF0A304126D2A9086
:104513002AE612452940DB902AEAE493900353F0FC
:10452300124533023D41E493F8C3EA98EB94002229
:104533007CE87D037A107B009003C2E0F9121D9A98
:104543002274F0120A5B74F51210A68A088B09898B
:104553000A8C0BE9A2E050147508FC7509FFA2E16F
:104563005005D2E4024606D2E302460612520B700D
:1045730003A3E069700579000246D3AC0A7902AA65
:1045830008AB0912152AE960EDE50AF50C780C125F
:10459300101979027CFE7DFFAA08AB09124F86121F
:1045A3001028E960030246D1E50AC2E5F50A900343
:1045B300B5E07051E50AA2E6404B74031212DDAC7C
:1045C30082AD83AA08AB09122592E970321248A77B
:1045D3008A0C8B0DA80CA90DE8FEE9FFE8496025BC
:1045E300EE24020A0AEF123098601AEE2402FCEF5E
:1045F3003400FD74031212DDAA82AB831224A2E5F8
:104603000AD2E5F50A900348E0F50C900368E0F55B
:104613000EA3E0F50F780E1210157D017C009003B8
:1046230048E0F9AA0EAB0F1214E27402121028E943
:10463300F8900348E004F0E860030246D1E50AA2DB
:10464300E55004740E80027406C0E074011212DD9A
:10465300D0E0125D008A0E8B0FAE0EAF0FEE4F60EF
:10466300691246F1124708888289837401F07478CD
:10467300550AA3126CF2E50C126CF2A3E508F0E5FF
:10468300091246E0E4F0E50AA2E5500F74031212A2
:10469300DDAC82AD83E824061246D78E828F83A3D6
:1046A300A374FDF0A374FFF0E50B6015902AEDE40D
:1046B30093F8E50BC3985009EE2413125CD3E50B72
:1046C300F0EEFAEFFB12137A80067910800279C7B5
:1046D300740B8049FAE93400FB1224A222888289F0
:1046E30083A3A3A3A31246EC22125A67A322EE24A8
:1046F30017125CE47401F012169EEE241A125CE4A5
:10470300EAF0A3EB22F0126CE6340012471222F512
:104713008312471822E0F8A3E0F922740D1210283F
:104723007F08020D1074F6120A5B7A007B10126187
:10473300EE60089003D47401F0802990066EE06463
:10474300019011017006E0FC79018004E0FC79031B
:104753007A007B0012144C902AD412476A7A007BA9
:1047630010124778023D4112476E22E493FC740114
:1047730093FD227B009003C2E0F9121D942274EC96
:10478300120A5B8A088B098C0C8D0D890E74141226
:1047930012DD12516574161212DDE0F510A3E0F577
:1047A30011121716E960077AFF7BFF0248A49011E4
:1047B30000E0640260030248977900AA08AB09127B
:1047C3001530A90E1215248A128B13AE12AF13EEF5
:1047D3004F700302487F8E828F83A3A3A3A3A3E01A
:1047E30064018E828F83A3A370691254248E828FF7
:1047F30083A3A3A3A3A3A3E054186043902AEBE4E9
:10480300938E828F83A3A3A3A3F0EA650C7003EBBB
:10481300650D6014EA650A7003EB650B600AEA65CF
:10482300107003EB6511701F7810121015AC0AADF0
:104833000BAA0CAB0D1218127402121028800890E8
:1048430003671261D8A3F074FE6A700374FF6B6090
:104853001D804EA3A3A3E0640360298E828F83A3EC
:10486300A3A3A3A3E0640470057AFE0247AC8E827F
:104873008F83A3A3A3A3A3E0640270089003B4E00F
:10488300640270101248A78B0BEA450B6006AA0856
:10489300AB09800DAA08AB099003491242191226ED
:1048A300ED0267CE900375124F8C1217D62274F760
:1048B300120A5BEAFEEBFF12132CE9700AEEFAEF21
:1048C300FB121338E96006EEFAEFFB80047AFE7BF5
:1048D300FF023CA274F0120A5B8A0A8B0B8C0E8DCA
:1048E3000F8909750800121716E979006003024A57
:1048F3004EAA0AAB0B121530A9091215248A0C8B88
:104903000DAE0CAF0DEE4F60198E828F83A3A3A360
:10491300A3A3E0640270559003B4E0640270030241
:104923004A4CAA0AAB0B90034F1242191226ED12FE
:10493300133E8A0C8B0DA80CA90DE8497003024A9B
:104943004C88828983A3A3A3A3A3E0A2E04003022C
:104953004A4C750C01A2E150687901AC0AAD0BAA6F
:104963000EAB0F12147CE97064024A4C8E828F8363
:10497300A3A3A3A3A3E064037005750C0280528E66
:10498300828F83A3A3A3A3A3E064016003024A4C21
:10499300900375124A5C8E828F83124DB18A0C8B01
:1049A3000DA80CA90DE84960D1902AE4E493FA8894
:1049B300828983E0C39A50C2A3E06003024A4C8019
:1049C300B988828983A3A3A3A3A3D2E1F0EE4F60A6
:1049D3003A8E828F83A3A3A3A3A3A3E05418602BCF
:1049E3007508018E828F83A3A3120E10750CFE75BA
:1049F3000DFF780C1210157900AC0AAD0BAA0EABA3
:104A03000F1215427404121028803E900368E0656B
:104A13000E7004A3E0650F7014902AECE493FCA9D4
:104A230009AA0AAB0B12144C750801801CA90CAC23
:104A33000AAD0BAA0EAB0F12147CE9700C750801BA
:104A4300A909AA0AAB0B1214D6A908024723E50C3D
:104A53002415F582E50D125CE71257442274EA121D
:104A63000A5B74F01210A68A0C8B0D8C088D0974E6
:104A7300261212DDE0F514A3E0F515751206900376
:104A8300F5124FAA6023900375124A5CAA08AB097A
:104A93001218008A108B11EA4511600D8A828B83EC
:104AA300A3E070057900024D99E50C241DF50EE590
:104AB3000D3400F50F850E82124F96F51388828907
:104AC30083A3A3A3E0FA88828983A3A3A3A3E0F922
:104AD300EA2400FEE439FFAA08AB091214DC850EB0
:104AE30082850F83124DD4E029F50BE50AA2E55028
:104AF3000375120E7487550A70177418550A6418D3
:104B0300600FE50C2417F582E50D1263A6651260AC
:104B130007790112248A808C530A78C3EE94F8EF44
:104B230094FF501D7900EEFAEFFB124DA36012883B
:104B3300828983A3A3A3A3A3A3E054186003024A17
:104B4300A778081210157D00124DC7121028E9F836
:104B53007403687003024AA7E86003024C127418D6
:104B6300550A7003024CC7E50AD2E0F50AA2E450E5
:104B730004D2E1F50AA90A12541D124DA360538809
:104B8300828983A3A3A3A3A3A3E0541860448882C8
:104B93008983A3A3A3A3A3E064017036E5104511A1
:104BA3006030900375124A5C88828983124DB18A02
:104BB3000E8B0FA80EA90FE849601788828983A37B
:104BC300E0600F851082851183A3125EF550030206
:104BD3004AA7E50AF50E780E121019124DBA1210F3
:104BE30028E9702B7C007D0085148285158374FF72
:104BF300F0A3F0850C82850D83A3A3A3A3A3A3A392
:104C0300A3E06003124A51A90B12541D121E96858C
:104C13001482851583E0F47003A3E0F460399003F4
:104C2300B4E064027003024AA7125156E0FAA3E00B
:104C33001242151226EDEA65087003EB650960035D
:104C4300024AA7EEFAEF1242151226ED8514828569
:104C53001583EAF0A3EBF078081210157D01124DCD
:104C6300C7121028A90AEEFAEFFB1215308A088B37
:104C730009A808A909900368E0687003A3E06960C4
:104C830003024D8AEEFAEFFB12133E8A088B09A842
:104C930008A909E849606E88828983A3A3A3A3E0D6
:104CA3006401600D88828983A3A3A3A3E0640270D7
:104CB30054851882851983AC82AD83EEFAEFFB121B
:104CC30025928055900361E0600FE50AF50E780E9A
:104CD300121019124DBA121028E50AF50E780E12A9
:104CE300101979027CFE7DFFEEFAEFFB124F86125C
:104CF3001028E96003024C1285148285158374FF22
:104D0300F0A3024C5912169EEAFCEBFD851882852E
:104D13001983AA82AB831224A2850C82850D83A3F7
:104D2300A3A3A3A3A3A3A3E06401700F124A517426
:104D3300081212DDAA82AB831224A2124F60125B07
:104D43006C4430F508780812101974011212DD85CD
:104D530082088583097808121015740B1212DD85F9
:104D630082088583097808121015E513F508780879
:104D73001210197900EEFCEFFD12541D1214767413
:104D830006121028024AA7124F60125CD6124DD4A5
:104D9300E50BF01216B674101210287F0E020D10D8
:104DA3001215248A0E8B0FA80EA90FE84922A3A37C
:104DB3001258C3121800227901AC08AD091258B871
:104DC300124F8622AC0BA9131258B81214E27402C4
:104DD30022125B74A3A3A3A32274F0120A5B74F0E0
:104DE3001210A68A0C8B0DECFAEDFB750F089003DD
:104DF300F5124FAA6014125EEE8A828B83E5824518
:104E0300836007A3E07003024F5B124F603400120C
:104E13004F96F50B88828983124F69E0FBEC2400DF
:104E2300FEE43BFF88828983A3A3124F69A3A3E017
:104E3300FBECF508E43BF50988828983A3A3A3A3CC
:104E4300A3A3A3E0F50EE50AA2E45003750F10A295
:104E5300E550067408250FF50F748F550A700FE59A
:104E63000C2417F582E50D1263A6650F600879011E
:104E730012248A024F5B530A707800E50AA2E450B9
:104E830022124F601263A62408FCA3E03400FD74D1
:104E9300081212DDAA82AB831224A27808E50AC2A3
:104EA300E4F50AE50AA2E55028124F601263A6282A
:104EB300F8A3E03400F9E82408FCE93400FD851880
:104EC30082851983AA82AB831224A2E50AC2E5F57F
:104ED3000AAC0EA90BEEFAEFFB1214E8E9F874031F
:104EE300686075900368E06E7003A3E06F605EE82E
:104EF3007054E50AF50F780F121019124F7712103C
:104F030028E97054780A12101974011212DD85828F
:104F13000C85830D780C121015740B1212DD85822B
:104F23000C85830D780C121015E50BF50A780A121F
:104F33001019A90EAC08AD09EEFAEFFB1214767442
:104F4300061210288012740468700D80B7780A1254
:104F53001019124F771210287410024720E50C2401
:104F63001DF582E50D22A3A3A3E0FC88828983A318
:104F7300A3A3A322790112515D125CE7124F8C1295
:104F83004F86221214A0740122E0FCA3E0FDAA08BC
:104F9300AB0922F58312439CA3E0F50A8882898337
:104FA300A3A3E02290033912591F2274E8120A5B6B
:104FB30074F51210A6EAFEEBFF8C088D09891474B0
:104FC300231212DDE0F50F74241212DDE0F512A3B3
:104FD300E0F51374261212DDE0F516A3E0F517745D
:104FE300281212DDE0F50EA90F1214EE8A108B11B0
:104FF30074011212DD7408F0E50EA2E4500374107C
:10500300F0E50EA2E55004E02408F0851882851926
:1050130083AA82AB831216FE8A0C8B0DEA450D70B0
:105023000302513DEA2417F582EB12514F12169EEB
:10503300E50C241AF582E50D125CD6123CB274031A
:105043001212DDAC82AD83AA10AB11122592E96076
:105053001D12514774031212DDA882A983E50C24A3
:1050630018F582E50D125CD6E8F0A3E98024E50E7D
:10507300A2E4501FE5106E7003E5116F7015125115
:1050830047E50C2418F582E50D125CD6E512F0A372
:10509300E513F0125156125165850A82F5837402A5
:1050A300F0A3E50E12516DE50FF0EE850A82850B34
:1050B30083A3A3A3F0EF850A82850B83A3A3A3A3F2
:1050C30012516DA3A3A3E508F0E509850A82850BB8
:1050D30083A3A3A3A3A3A3F0AA10AB111214DCE927
:1050E3002514850A82850B83A3A3A3A3A3A3A3F0FB
:1050F300750800E50EA2E45011AC12AD13E50A24C5
:1051030008FAE50B1246D9750808E50EA2E5501416
:10511300AC16AD17E50A2508F8E50B3400F9E824C9
:10512300081246D7850C82850D83A3A3E510F0A34F
:10513300E511F0AA0CAB0D12137A740B1210287F31
:1051430010020D10E50C2416F582E50D125CE774D0
:1051530001F02212515D125CE722E50C126CEDE5C1
:105163000D22E0F50AA3E0F50B22F0850A82850BF8
:1051730083A3A32274F2120A5B8A088B09ECFEED67
:10518300FF890A790012520B7003A3E06970047956
:10519300018073750B01900368E065087004A3E058
:1051A3006509601F750B00780B121019A90AEEFC34
:1051B300EFFDAA08AB091217527401121028E9F582
:1051C3000B80417900EEFAEFFB121524EA4B602BBA
:1051D3008A828B83A3A3A3A3A3A3E05418601C75A3
:1051E30008FE7509FF78081210158A828B83A3A322
:1051F300120E10126B0212102880097901EEFAEFD9
:10520300FB1213FEA90B80141215308A0C8B0DA808
:105213000CA90D900368E068221210287F06020D86
:105223001074F4120A5B75084375090E7A1012683C
:105233000A8B0BEA450B7003124533900353E014BA
:10524300F0700C902AEAE493900353F012153C7E1D
:10525300007F00806C850882850983A3A3A3A3E054
:105263006059F46056E5082404F582E5091261D219
:105273007049850882850983A3A3A3A3A3E06403DC
:1052830070197902850882850983124A5C85088230
:10529300850983A3A312542412147C8508828509EB
:1052A30083A3A3A3A3A3E0640160108508828509F7
:1052B3008374FEF0A30412537EE4F01238AF123766
:1052C30001902AD8126966408C7E007F00803912D3
:1052D30016448E088F09740378081211D574BB2500
:1052E30008FC740F3509FD7A887B14121632EA4BD9
:1052F30070DD8E088F09740378081211D512534C90
:10530300126BADE4F01238AF902AE0E493F8C3EEE9
:1053130098EF9400501B8E088F09740378081211BC
:10532300D5125354E82407F582E91261D270D6806E
:10533300A17E007F00800A12535F600214F01238CE
:10534300AF12696340F1023EE212535488828983AB
:105353002274BB2508F8740F3509F922EEF8EFF92A
:10536300E875F006A4F8AAF075F006E9A42AF97422
:105373005B28F582740F39F583E022125385A3A3CA
:10538300A322F0850882850983A3A32274F7120A56
:105393005B74E11210A6ECFEEDFF750800EE4F60A2
:1053A300728A828B83E0241C126203124FAA606309
:1053B3008A828B83125424851882851983AC82AD2B
:1053C30083EA241BF582EB1260D4EA241CF582EBFA
:1053D300125420121686740B1212DD125428700315
:1053E300A3E069702E74021212DDE064017024746C
:1053F3001D1212DD124219E064017017741D12129E
:10540300DD12421BA3A3E0F88E828F83E068700352
:10541300750801A908741F023C9F12515D3400F501
:10542300831258C322123056E0682274F4120A5BC6
:10543300E97024790090034D1242191226ED8A0A6D
:105443008B0BAE0AAF0B74FE6E700374FF6F701A92
:10545300902AE7E4936013790190034D12421912E5
:1054630026ED8A0A8B0BAE0AAF0B1216C2023A174D
:1054730074F6120A5B74F31210A6121C568A088B78
:1054830009AE08AF09900368E06E7003A3E06F6094
:10549300E91216AAEA6E7002EB6F60DEEEFAEFFB1A
:1054A300121716E970D4EE4F60D0851882851983E0
:1054B300E4F0041212DDEEF0A3EF1254D6E970BA51
:1054C30074FE6E700374FF6F60B0EEFAEFFB740D41
:1054D300023D3E123DC31212F022C082C083121657
:1054E300C2023C6A7F0A020D1074F2120A5BEAFEE2
:1054F300EBFF8C0A8D0B8908740E1212DDE0F5099F
:1055030074FC6E700374FF6F7005790002521F798B
:10551300001215308A0C8B0DAE0CAF0D900368E0B2
:105523006E7003A3E06F7006E509A2E650DCA909DB
:105533001269F0706179007AFE7BFF1269F0705690
:1055430074185509700302562378007900800312FA
:105553003250902AD81232474003025623E8FAE920
:10556300FBEA75F007A4FAACF075F007EBA42CFB8B
:1055730074492AF582740E3BF583E0541870D0E821
:1055830075F007A4F8AAF075F007E9A42AF97443A3
:1055930028F8740E39F988828983A3A3A3A3A3A34C
:1055A300E05418600974185509700302550D888278
:1055B3008983EEF0A3EFF074FE650A700474FF654F
:1055C3000B600312574A88828983A3A3A3A3A3A3CF
:1055D300E509F0A2E0500D88828983A3A3A3A3A3C6
:1055E300A3D2E2F07401650888828983A3A3A3A3ED
:1055F300A37038740112576EE054186028902AEB98
:10560300E49388828983A3A3A3A3125738121800B3
:105613008B0DEA450D600302550D78007900803942
:10562300790202550F900367E080D7E064017003AD
:1056330002550D88828983A3A3A3A3A3A3E05418CF
:105643006007902AEBE4938004900366E01246E03F
:10565300E508F002550D123250902AE1E493FAC3A3
:10566300E89AE99400400302550D7A007B00804BD1
:10567300EAFCEBFDEC75F007A4FCAEF075F007ED6A
:10568300A42EFD74452CF582740E3DF583125CEF58
:10569300E8FCE9FDEC75F017A4FC85F00975F0173B
:1056A300EDA42509FD74D32CF582740C3DF583E03C
:1056B3006E7003A3E06F609E123784902AD812376E
:1056C3001140AD12476AEC6A7002ED6B7088E875A1
:1056D300F017A4F8AAF075F017E9A42AF974D328EF
:1056E300FE740C39FF7C177D007900EEFAEFFB1294
:1056F3001C448E828F8312575090037512572AA32E
:10570300A3A3A3A3A3E8F0A3E91257307401F0EE17
:10571300240E125CD37401125758120803EE240DA1
:10572300125CD3E8025655123C82A3A322F0EE2466
:105733000F125CE422F0125741AA0AAB0B2290032A
:1057430075E0FCA3E0FD2288828983A3A3E50AF028
:10575300A3E50BF022F012575D22902AE4E4932490
:1057630001F8E43400F97A027B00221246ECA3220A
:1057730074ED120A5B8A088B09890E1258A1400541
:10578300790502586F121EDEAA08AB0912597390ED
:105793002AD6125872650A7003E9650B70077AFE00
:1057A3007BFF125973902AD6E412587AE50A98E5DA
:1057B3000B99400302586D12587E6012E50A75F08A
:1057C30006A4F875F006E50B1258C9121CE6E50E9F
:1057D3006018E50A75F006A4F8AAF075F006E50B63
:1057E3001258F5701A790102586FE50A75F006A48C
:1057F300F8AAF075F006E50B1258D6E4F0A3F0E52D
:105803000A75F006A4F8AAF075F006E50B1258968F
:10581300A3125B8288828983A3AA82AB831258E492
:105823008A828B83E0603F12587E603A8E108F111C
:105833007512007810121011E50EC333FCE433FD2A
:10584300E50A75F006A4F50AA8F075F006E50BA4C1
:1058530028F50B745F250AF582740F350B12542259
:10586300123722121028790080027907026A061281
:1058730033A9E822902ACE12638D22E50A75F00639
:10588300A4F8AAF075F006E50B1258D1F8A3E0F9D5
:10589300E84922A42A125A2A88828983A322ECFE89
:1058A300EDFF902AE2E493F8E9C39822F5831258B6
:1058B300C3121CE622E50C126CEDE50D3400F583F2
:1058C300E0FAA3E0FB221258D1FAA3E0FB2212581C
:1058D300D6E022A42AF9745F28F582740F39F58380
:1058E30022E50EF09011021258EE22E0888289839D
:1058F300F022125A4EF50CE93400F50DE50EC333D0
:10590300FAE433FB121CE0850C82850D83EAF0A3D5
:10591300EBF0850C82850D8312591F22124718E87C
:10592300492274F4120A5BECFEEDFF740C1212DDD3
:10593300123D2C88088909125973AC0AAD0BECF897
:10594300EDF9902AD612597B5021E875F006A4F898
:10595300AAF075F006E9125896E08E828F831259E9
:105963008E125984123D38790080027904023EE296
:105973001214B28A0A8B0B2212371AC3EC9AED9BCC
:105983002212471485088285098322125A632274DE
:10599300F6120A5B7E007F008028EEF8EFF9E875C7
:1059A300F006A4F8ACF075F006E9A42CF9745D28B0
:1059B300F582740F1266116A7003A3E06B605712CD
:1059C30038AF12696340D312695E7002E96F7046A3
:1059D30074FE6A700374FF6B703C7E007F0080036B
:1059E3001238AF126963502E12535F70F3EEF8EF63
:1059F300F9E875F006A4F8125A20125A55601712E6
:105A03005A3CF8E9125A3488821258AF85088285C5
:105A13000983E4F0A3F0EEFAEFFB023D4175F006D3
:105A2300E9125A2822A42AF9745B28F8740F39F969
:105A3300223400F98808890922EEF8EFF9E875F0B5
:105A430006A4F875F006E9125A4E22125A28E824E1
:105A53000422A3A374FE125A6012591F22F0A30456
:105A6300125A6722F088828983A3A3A3A32274F620
:105A7300120A5BEA241DF582EB125B6CF9604BEAB8
:105A8300241DF582EB1263A62402FCA3E03400FD7F
:105A93001258A54003025B5F780080298C828D83B6
:105AA300E0F508A3E0FFE5082400E43FF509E83347
:105AB300FEE433FF74A32EF582740F3FF583125B6C
:105AC30082125B6208E8C39940D28A828B83A3A3C4
:105AD300A3A3A3A3A3A3A3124A5C900368E06C70DF
:105AE30003A3E06D700F7CA37D0F122FBF12542010
:105AF3001214A68067EA2411F582EB1263A6605C98
:105B0300FC74FF2CF075080178081210197508A3AE
:105B130075090F7808121015E9F50878081210199D
:105B2300EA2412F582EB1263A6F50878081210191D
