:020000040000FA
:0300000002007388
:100013000201AF00000080FB1200A3B9000302003D
:100023005DE4900F00780679018002F0A3D8FCD933
:10003300FA900F05AA82AB839000A6783A790180E3
:1000430015E493A3AC82AD838A828B83F0A3AA8247
:10005300AB838C828D83D8E9D9E77582AB75830234
:100063007400120085758216758300740012008572
:1000730075D0007581BF75100075110F759F000253
:10008300001BC09FF59FE473D09F22D083D082C012
:100093009FE493C0E0740193C0E0740293F59F2240
:1000A300790122CAE4C8EBD6B8C1EEB4ED2D2D2DEB
:1000B3002D00BDABC7D0BBBBD6C1D5FDB3A3C4A375
:1000C300CABD2D2D2D2D00BDABC7D0BBBBD6C1CF17
:1000D300DED0D0C4A3CABD2D2D2D2D0012008ECE8F
:1000E300010012008EFD010012008E260200120094
:1000F3008E5D020012008E7302002510C582C0E0DF
:10010300E51134FFC583C0E0E510C3958224F810E0
:10011300AF0885831185821080088583118582103D
:10012300D2AFCEF0A3E520F0A37808E608F0A3DE73
:10013300FAEFF0A3E58124FAF8E608F0A3E608F065
:10014300A3E608F0A30808E608F0A3E608F0A31561
:10015300811581D0E0FED0E0F8158115811581E885
:10016300C0E0EEC0E022851183851082E0A3FEE0AB
:10017300A3F5207808E0A3F608DFFAE0A3FFE0A3E5
:10018300C0E0E0A3C0E0E0A3C0E0E0A3C0E0E0A3E0
:10019300C0E010AF08858210858311800885821026
:1001A300858311D2AFD083D08202008BC0E0C0D050
:1001B300C082C083C28BE5C1900F03F0900F04741B
:1001C30001F0D083D082D0D0D0E0327800790080A3
:1001D30019EC2401FCED3400FDC3EC94F4ED94011F
:1001E30040EFE82401F8E93400F9C3E89AE99B50A9
:1001F300067C007D0080E202008B53C680E59EA250
:10020300E640FA53C6B8E5F1F875F10043F33C5301
:10021300FF3F75C50975C23B43C480C2E975A88415
:1002230002008BC082C083D290C2917ADC7B05121C
:1002330000DFC290C2917A907B011200DFC290D29C
:10024300917ADC7B051200DFC290C2917A907B0128
:100253001200DFD083D08202008BC082C083C290A1
:10026300D2917AE87B031200DFD083D08202008B25
:1002730074F71200FD78007900801E8A828B83E078
:10028300F5C18A828B83A3AA82AB83A2E950FCC205
:10029300E9E82401F8E93400F9C3E89CE99D40DB6F
:1002A3004386C07F010201691200E51200EB438619
:1002B30080900F027472F0900F007466F0900F013B
:1002C3007472F08024900F01E0646670197C157DD0
:1002D300007A297B0F1200F7900F01E0900F00F0D6
:1002E300900F027466F04386C0900F02E0249A6078
:1002F3000924F470081200EB80031200F1900F043C
:10030300E06401700E900F047400F0900F03E0900E
:100313000F01F0438680900F01E06472601D900F1F
:1003230001E0646660157C0F7D007A057B0F120087
:10033300F7900F00E0900F01F080AB900F01E0F811
:10034300900F00E068609F900F01E0647260030209
:1003530002C87C157D007A147B0F1200F7900F0101
:0E036300E0900F00F0900F027472F00202E9B9
:040000050000007384
:00000001FF
