:020000040000FA
:030000000200CB30
:0300130002045B89
:03004B000203901D
:10006B0002053B00000080FB1200FBB900030200FD
:10007B00B5E4900F00780779018002F0A3D8FCD982
:10008B00FA900F06AA82AB839000FE78D679018096
:10009B0015E493A3AC82AD838A828B83F0A3AA82EF
:1000AB00AB838C828D83D8E9D9E77582657583071D
:1000BB0074001200DD75826E75830074001200DD12
:1000CB0075D0007581BF75100075110F759F0002FB
:1000DB000073C09FF59FE473D09F22D083D082C062
:1000EB009FE493C0E0740193C0E0740293F59F22E8
:1000FB007901222A2ABDBBCDA8B5C6BFAAC6F40A70
:10010B0000BCECB2E2D6B8CABEB5C6D5FDB3A30AE5
:10011B00BDF8C8EBD5FDB3A3CDA8D0D0B9DCC0EDED
:10012B000ABFD8D6C6B7BDCABDA3BAC9CFCEBBBB53
:10013B00FAA3A8722DD5FDB3A3CDA8D0D0A3AC66DE
:10014B002DCFDED0D0A3AC772DCDA8D0D0A3A90ACC
:10015B00CFB5CDB3B1BEB5D8A3A8B5A5BBF7B0B4D9
:10016B00BCFC535731D4DAD5FDB3A3CDA8D0D0A165
:10017B00A2CFDED0D0A1A2CDA8D0D0BCE4C7D0BB3B
:10018B00BBA3A900CAE4C8EBD6B8C1EEB4ED0A0014
:10019B00BDF8C8EBD5FDB3A3C4A3CABD0A00BDF817
:1001AB00C8EBCFDED0D0C4A3CABD0A00BDF8C8EBE4
:1001BB00CDA8D0D0C4A3CABD0A00D6B8C1EED6B460
:1001CB00D0D0B3C9B9A60A001200E6ED05001200A3
:1001DB00E62606001200E62F06001200E63806009F
:1001EB001200E67606001200E6B406001200E6CC1A
:1001FB0006001200E6EB06001200E6F20600120003
:10020B00E60107001200E61807001200E6260700B9
:10021B001200E64F07001200E65A07002510C582B0
:10022B00C0E0E51134FFC583C0E0E510C39582241F
:10023B00F810AF088583118582108008858311859E
:10024B008210D2AFCEF0A3E520F0A37808E608F039
:10025B00A3DEFAEFF0A3E58124FAF8E608F0A3E6B3
:10026B0008F0A3E608F0A30808E608F0A3E608F0F8
:10027B00A315811581D0E0FED0E0F815811581150D
:10028B0081E8C0E0EEC0E022851183851082E0A3F7
:10029B00FEE0A3F5207808E0A3F608DFFAE0A3FF61
:1002AB00E0A3C0E0E0A3C0E0E0A3C0E0E0A3C0E0B7
:1002BB00E0A3C0E010AF088582108583118008850C
:1002CB008210858311D2AFD083D0820200E3C0D0DD
:1002DB002510C582C0E0E51134FFC583C0E0E510F1
:1002EB00C3958224F310AF08858311858210800893
:1002FB00858311858210D2AFC8F0A3E9F0A3EAF091
:10030B00A3EBF0A37908E709F0A3D8FAECF0A3ED7F
:10031B00F0A3EEF0A3EFF0A3D0E0F0A3D0E0F0A3B6
:10032B00D0E0F0A3E520F0A3E5F0F0A32285118344
:10033B00851082E0C0E0A3E0F9A3E0FAA3E0FBA301
:10034B007808E0F608A3DFFAE0FCA3E0FDA3E0FEEB
:10035B00A3E0FFA3E0C0E0A3E0C0E0A3E0F5D0A3DF
:10036B00E0F520A3E0A3F5F010AF0885831185829B
:10037B00108008858311858210D2AFD082D083D0B4
:10038B00E0F8D0E032C0E0C0D0C082C08353AFFEF3
:10039B0075C000900F02E02401F0A3E03400F09050
:1003AB000F01E06003020452900F02C3E094F5A327
:1003BB00E094015009C290D291D294020452900F52
:1003CB0002C3E094E9A3E09403505DD290D29490E1
:1003DB000F02C3E09427A3E094025004D2918067EC
:1003EB00900F02C3E0948BA3E094025004C291805F
:1003FB0056900F02C3E094BDA3E094025004D29137
:10040B008045900F02C3E09421A3E094035004C2F3
:10041B00918034900F02C3E09453A3E094035004F3
:10042B00D2918023C291801F900F02C3E094DDA371
:10043B00E094055008D290D291C294800A900F029A
:10044B007400F0A37400F0D083D082D0D0D0E0320F
:10045B00C0E074F21202D9C28BE5C1900F04F09088
:10046B000F04E0F912020F900F04E06472601A900F
:10047B000F04E064666012900F04E06477600A7A00
:10048B00977B0F120215020536900F01E0900F00BB
:10049B00F0900F04E064727008900F017400F0800C
:1004AB001E900F04E064667008900F017401F080D9
:1004BB000E900F04E064777006900F017402F090B9
:1004CB000F00E0F8900F01E0686060900F00E064AF
:1004DB000170051201E5800B900F00E064027003C0
:1004EB001201EB900F00E070031201FD900F01E081
:1004FB00700C7AA37B0F1202151201F78026900F56
:10050B0001E06401700C7AB17B0F1202151201D954
:10051B008012900F01E06402700A7ABF7B0F120207
:10052B00151201DF7ACD7B0F1202157F0102033802
:10053B00C0E074F21202D9E589A2E140030205E39F
:10054B00900F01E0900F00F0900F01E07008900FFA
:10055B00017401F08016900F01E064017008900F98
:10056B00017402F08006900F017400F0900F00E010
:10057B00F8900F01E0686060900F00E06401700577
:10058B001201E5800B900F00E0640270031201EB87
:10059B00900F00E070031201FD900F01E0700C7AD8
:1005AB00A37B0F1202151201F78026900F01E06456
:1005BB0001700C7AB17B0F1202151201D9801290C7
:1005CB000F01E06402700A7ABF7B0F120215120151
:1005DB00DF7ACD7B0F120215758900C2C57F010230
:1005EB0003387C007D00801EE82401F8E93400F913
:1005FB00C3E89490E99401A2D265D03340EAEC248D
:10060B0001FCED3400FDC3EC9AED9BA2D265D03317
:10061B0050067800790080D80200E3C290D291D2C4
:10062B00940200E3D290C291D2940200E374F712C9
:10063B000227D290D291D2947E007F00801AC29072
:10064B007AF47B011201D3D2907AF47B011201D39D
:10065B00EE2401FEEF3400FFC3EE9402EF9400A2F0
:10066B00D265D03340D87F0102029374F712022770
:10067B00D290D291D2947E007F00801AC2917AF4EC
:10068B007B011201D3D2917AF47B011201D3EE24B8
:10069B0001FEEF3400FFC3EE9402EF9400A2D2658B
:1006AB00D03340D87F0102029353F4EC43FE135333
:1006BB00FDFD538FFD43F720D290D291D2940200CF
:1006CB00E3C082C083900F027400F0A37400F0901B
:1006DB000F057400F0D2DED2B9D083D0820200E3D2
:1006EB00C2DEC2B90200E375DAF475DB0143E5043F
:1006FB0075E40E0200E353F1FE43F30C75C23B7538
:10070B00C50975C4807586C0D2AA0200E389C1E50C
:10071B0086A2E150FA5386FD0200E374F71202271A
:10072B00EAFEEBFF80128E828F83E0F912020F8EAE
:10073B00828F83A3AE82AF838E828F83E070E77F3D
:10074B0001020293D2BD43AB02438C010200E3755D
:10075B00B91475A912D2AF0200E353C680E59EA26D
:10076B00E640FA53C6B81201F11202031202091243
:10077B00021B1202217A067B0F1202157A147B0FD1
:0E078B001202151201F7900F017400F080FEAB
:04000005000000CB2C
:00000001FF
