:020000040000FA
:1000000002006000000080FB120090B900030200B3
:100010004AE4900001780D79018002F0A3D8FCD960
:10002000FA90000DAA82AB83900093783E790C8001
:1000300015E493A3AC82AD838A828B83F0A3AA825A
:10004000AB838C828D83D8E9D9E775821F75832BAA
:1000500074001200727582037583007400120072BE
:1000600075D0007581BF751080759F0075931E0255
:100070000008C09FF59FE473D09F22D083D082C038
:100080009FE493C0E0740193C0E0740293F59F2253
:10009000790122202000B4AB00C1D600D4B200BB4D
:1000A000B600D3AD00CAB900D3C300D2DA00D1D0B4
:1000B00000B5E700D7D300BFAA00B7A200B0E500A3
:1000C000BBB000B6C8006C6967687420414F205609
:1000D0004F4C5441474500763A25303464206D76C4
:1000E0002C206C696768743A2564000D0A00C1D63B
:1000F000D4B2D4B2003233303731353132313032CC
:1001000035000A00C1D6D4B2D4B2323330373135DB
:10011000313231303235202020000D000000000047
:1001200000000000000000000000000000000000CF
:10013000000000000000000000000000100000802F
:1001400060F807404848E85F4848484040000100E0
:1001500000FF0000020B1222D20A0600000013006A
:100160001010D0FF9010001010D0FFD01010100011
:10017000040300FF001108040300FF00030408004B
:10018000160000FE0282BAAAAAAAAAAABA8202FE8F
:10019000000000FF404F605048464850604F40FF0D
:1001A0000000190004244484649C40300FC80808EF
:1001B0002818000010080601824C201806010618B5
:1001C000204080001C00404042CC0000FC040200A3
:1001D000FC0404FC00000040201F20404F4442402B
:1001E0007F42444340001F008060F80704E4242459
:1001F00024FF242424E404000000FF00808145291A
:10020000112F41418181800022000000FE22222224
:1002100022FE22222222FE00000080601F02020233
:10022000027F020242827F0000002500008060F809
:1002300007000404844424140C040000010000FF9F
:100240000000384641404040404078002800048487
:10025000E45C44C48082FE828282FE8280000201CD
:100260007F10103F80601F000000FF0000002B0087
:100270000000F888888888FF88888888F80000004F
:1002800000001F080808087F888888889F80F00081
:100290002E0080828282828282E2A2928A8682807C
:1002A0008000000000000040807F0000000000008F
:1002B0000000310080828282FE8282828282FE82FF
:1002C00082828000008040300F0000000000FF00AC
:1002D0000000000034000000181610D0B89790906D
:1002E0009092941000000020108C838041462810CA
:1002F00028444380800037001010D0FF901000FC8D
:1003000024E4242223E20000040300FF0083601F92
:1003100080412618264180003A00404042CC00002F
:1003200020242424FE22232220000000007F20100D
:1003300000FE4242434242FE00003D000000FC2419
:100340002424FC252624FC242424040040308F800F
:10035000844C55252525554C8080800000000000E8
:1003600000000000002F000000000700070000143C
:100370007F147F1400242A7F2A120062640813234A
:1003800000364955225000000503000000001C22E1
:100390004100000041221C000014083E081400081F
:1003A000083E0808000000A06000000808080808CF
:1003B000000060600000002010080402003E514967
:1003C000453E0000427F4000004261514946002105
:1003D00041454B31001814127F100027454545391F
:1003E000003C4A494930000171090503003649497A
:1003F000493600064949291E000036360000000033
:10040000563600000008142241000014141414147D
:100410000000412214080002015109060032495926
:10042000513E007C1211127C007F49494936003E42
:1004300041414122007F4141221C007F49494941FD
:10044000007F09090901003E4149497A007F0808F7
:10045000087F0000417F4100002040413F01007FB4
:1004600008142241007F40404040007F020C027F80
:10047000007F0408107F003E4141413E007F090992
:100480000906003E4151215E007F091929460046B8
:10049000494949310001017F0101003F4040403F8F
:1004A000001F2040201F003F4038403F00631408D9
:1004B00014630007087008070061514945430000B4
:1004C0007F41410000552A552A55000041417F00D7
:1004D00000040201020400404040404000000102CC
:1004E0000400002054545478007F484444380038B5
:1004F0004444442000384444487F0038545454183D
:1005000000087E0901020018A4A4A47C007F08044E
:1005100004780000447D4000004080847D00007F1E
:10052000102844000000417F4000007C041804783B
:10053000007C0804047800384444443800FC242437
:1005400024180018242418FC007C0804040800481F
:100550005454542000043F444020003C4040207C40
:10056000001C2040201C003C4030403C004428102F
:100570002844001CA0A0A07C004464544C441414E3
:10058000141414140000000000000000000000001B
:1005900000000000000000F8000000000000003330
:1005A0003000000000100C06100C060000000000D7
:1005B0000000000040C07840C0784000043F0404C0
:1005C0003F040400007088FC08300000001820FF81
:1005D000211E0000F008F000E018000000211C03BC
:1005E0001E211E0000F00888700000001E21232438
:1005F0001927211010160E00000000000000000056
:1006000000000000000000E01804020000000007E5
:100610001820400000020418E000000000402018EC
:1006200007000000404080F0804040000202010FBF
:1006300001020200000000F0000000000101011FA3
:1006400001010100000000000000000080B0700007
:100650000000000000000000000000000001010197
:100660000101010100000000000000000030300026
:100670000000000000000000806018040060180600
:100680000100000000E010080810E000000F10203A
:1006900020100F00001010F8000000000020203F84
:1006A000202000000070080808887000003028240E
:1006B00022213000003008888848300000182020AF
:1006C00020110E000000C02010F8000000070424D4
:1006D000243F240000F80888880808000019212019
:1006E00020110E0000E0108888180000000F112073
:1006F00020110E0000380808C83808000000003F2C
:10070000000000000070880808887000001C22218A
:1007100021221C0000E010080810E0000000312237
:1007200022110F00000000C0C000000000000030D7
:100730003000000000000080000000000000806029
:1007400000000000000080402010080000010204AA
:100750000810200040404040404040000404040491
:10076000040404000008102040800000002010084D
:1007700004020100007048080808F0000000003082
:1007800036010000C030C828E810E0000718272410
:1007900023140B000000C038E0000000203C2302BE
:1007A0000227382008F8888888700000203F202021
:1007B00020110E00C0300808080838000718202053
:1007C0002010080008F808080810E000203F20204A
:1007D00020100F0008F88888E8081000203F20202B
:1007E0002320180008F88888E8081000203F20001F
:1007F00003000000C0300808083800000718202057
:10080000221E020008F808000008F808203F210115
:1008100001213F20000808F8080800000020203FC0
:100820002020000000000808F8080800C080808030
:100830007F00000008F888C028180800203F200129
:100840002638200008F8080000000000203F202083
:100850002020300008F8F800F8F80800203F003F9A
:10086000003F200008F830C00008F808203F2000B2
:1008700007183F00E01008080810E0000F102020C3
:1008800020100F0008F808080808F000203F210198
:1008900001010000E01008080810E0000F182424EF
:1008A00038504F0008F8888888887000203F200062
:1008B000030C302000708808080838000038202118
:1008C00021221C00180808F8080818000000203F22
:1008D0002000000008F808000008F808001F202089
:1008E00020201F000878880000C83808000007385A
:1008F0000E010000F80800F80008F800033C0700AB
:10090000073C0300081868808068180820302C0312
:10091000032C30200838C800C83808000000203FE9
:100920002000000010080808C838080020382621D8
:1009300020201800000000FE020202000000007FDC
:1009400040404000000C30C00000000000000001EA
:100950000638C00000020202FE00000000404040D5
:100960007F000000000004020202040000000000FA
:100970000000000000000000000000008080808077
:10098000808080800002020400000000000000005F
:1009900000000000000080808080000000192422F8
:1009A00022223F2008F8008080000000003F112034
:1009B00020110E000000008080800000000E112039
:1009C00020201100000000808088F800000E112017
:1009D00020103F200000808080800000001F222225
:1009E00022221300008080F0888888180020203F91
:1009F000202000000000808080808000006B9494A4
:100A00009493600008F8008080800000203F21005F
:100A100000203F2000809898000000000020203F28
:100A200020200000000000809898000000C0808016
:100A3000807F000008F8000080808000203F2402B2
:100A40002D302000000808F8000000000020203FA2
:100A5000202000008080808080808000203F200057
:100A60003F20003F8080008080800000203F2100E8
:100A700000203F200000808080800000001F202098
:100A800020201F00808000808000000080FFA120C7
:100A900020110E000000008080808000000E1120D8
:100AA00020A0FF80808080008080800020203F2167
:100AB000200001000000808080808000003324241A
:100AC00024241900008080E0808000000000001FC6
:100AD000202000008080000000808000001F202077
:100AE00020103F20808080000080808000010E3038
:100AF0000806010080800080008080800F300C0399
:100B00000C300F0000808000808080000020312E9B
:100B10000E312000808080000080808080818E7077
:100B20001806010000808080808080000021302C29
:100B30002221300000000000807C02020000000042
:100B4000003F404000000000FF00000000000000E7
:100B5000FF0000000002027C800000000040403FD7
:100B60000000000000060101020204040000000071
:100B7000000000000000004500404E450000C84253
:100B800030313233343536373839414243444546C3
:100B900000286E756C6C20706F696E746572290028
:100BA0003F3F3F000000807F0000803F00000000CA
:100BB000F9021550B743BA510000204100E7DB2E7F
:100BC0000000A04010000000080000000A00000023
:100BD00012007BAB240012007B74250012007BA363
:100BE000250012007BC8250012007BEF25001200B3
:100BF0007B16260012007B52260012007B83260003
:100C000012007B43270012007BE5270012007BDAED
:100C1000280012007B61290012007B142A001200B8
:100C20007B312A0012007B652A0012007B742A00A7
:100C300012007B752C0012007B9C2C0012007BFDA7
:100C40002C0012007B6A160012007B481B00C008B3
:100C5000C3E096F50808A3E096420808A3E0964290
:100C60000808A3E0964208A2D265D033E5087001D7
:100C7000D3D00822080808E630E7111214B0120C8D
:100C80008C080808C64480C618181822181818E9D5
:100C9000799EC608CAC608CBC608CCC6C3702079E0
:100CA00096CACBCC7019798ECBCC70137986CC7068
:100CB0000EF9802ACA33CACB33CBCC33CC331930AC
:100CC000E7F2CCCBCA3350147004EA30E00DE4CA2A
:100CD0003ACACB3BCBCC3CCC500209C3E913C6CCBF
:100CE000182313C6CB18C6CA18C6F922120D2C2019
:100CF000F01430E72B74FFFCFBFA747F8022E4FCD5
:100D0000FBFA7480801AB48008BC00F2BB00EF804C
:100D10000F50EBF9E4C39AFAE49BFBE49CFCE499E2
:100D2000C6CC18C6CB18C6CA18C6F922E4C9C6086C
:100D3000CAC608CBC6D3330308CCC63392F0C394DB
:100D40007F402E94184019C9B90704CACBCC225051
:100D500025C309CA33CACB33CBCC33CC33D9F42225
:100D6000F4600DC9CCC313CB13CBCA13CAD9F6CCCC
:100D700022E4FCFBFA2214FCFBFA22E6C3331846F9
:100D80001846184622E7C33319471947194722184E
:100D90001818E6084608700AE608C3337005E633FB
:100DA000F4220822191919E7094709700AE709C34B
:100DB000337005E733F4220922E6084608C31346D8
:100DC00008336002E633F422E7094709C3134709F1
:100DD000336002E733F422120DB96025120DC860AA
:100DE00020120D7B7003020D85080808E76670105D
:100DF0001819E766700A1819E76670041819E7668B
:100E000022F422120DB9601C120DC86017120D7B5E
:100E10007007120D857001D322C0D0120D857006A7
:100E2000D0D0B322C32233D0D0501430E0F6C3E781
:100E3000960809E7960809E7960809E796B322207D
:100E4000E0D5E6970809E6970809E6970809E697C6
:100E5000B322120DB9601B120DC86016120D7B7003
:100E600007120D85600CB322C0D0120D857005D01D
:100E7000D022C32233D0D0501330E0EBC3E7960822
:100E800009E7960809E7960809E7962220E0E4E6D4
:100E9000970809E6970809E6970809E697220012DD
:100EA0000DB9604F120DC86012E7548066F6120D3E
:100EB0008F7011120D85703B090909F4F618F618A8
:100EC000F618F622120DA47015120D7B08080860A2
:100ED000EAE6447FF618768018E4F618F622120D3A
:100EE0007B6016120D857012E4F608F608F608E627
:100EF0005480F609090918181822EAC0E0EBC0E08E
:100F0000ECC0E0EDC0E0E687F0A4FBACF008E687BB
:100F1000F0A42CFCE435F0FA1809E687F0A42C4B79
:100F200060027401CA35F0FCE433FB09E687F0D2B5
:100F3000F7A42CCB35F0FC1908E687F0A42BCC35B0
:100F4000F0FBE433FD0819E687F0D2E7A42C4ACB86
:100F500035F0CD3400FC09E687F0D2E7A42DCC357E
:100F6000F0FDE433FA0918E687F0D2F7A42CCD356A
:100F7000F0CA3400FC08E687F0D2E7D2F7A42ACC06
:100F800035F07A7E20E70B0ACB33CBCD33CDCC3393
:100F9000CC33CB3350147004ED30E00ED2F1E4CDFD
:100FA0003DCDCC3CCC3B5005DA05C2F1EB547FC6BD
:100FB0003308E63392F0FBE73309E733C39A502D49
:100FC0002B70190C0D4C4D70151806E608C33370C4
:100FD0000D20F10AA2F013F6E418800B4024E4F689
:100FE00030F002768018F618F618F68024D33B14F9
:100FF000501074FFA2F013F6187680E418F618F675
:10100000800FA2F013F618E63303F618ECF618ED8D
:10101000F6D0E0FDD0E0FCD0E0FBD0E0FA22120DEB
:10102000C86046120DB9603DE9687008F618F618F8
:10103000F618F622748067F71210520909097480B5
:1010400067F722120DB9601D120DC8700519191924
:10105000801A120D8F701F120DA4C37003E6673340
:1010600019191940071818182208080874FFF618EB
:10107000F618F618F622120DA46017120D857021CD
:1010800092F0120D7B7019501720F014080808090F
:101090000909E7F61819E7F61819E7F61819E7F637
:1010A00022120D7B60E6E869701F0808E62480F6CE
:1010B00008E436F618547FB47F0CE654806007F6D7
:1010C000E418F618F622181822E9C6CC08C6CD088E
:1010D000C6CE08C6CFC0E0E8C0E0EAC0E0EBC0E0A2
:1010E00009E9F809E7FA09E7FBE6F918E6F8C3ECBD
:1010F00098ED99EE9AEBC2E7F5F0EFC2E795F05064
:101100000E600CEBCFFBEACEFAE9CDF9E8CCF8EAB9
:10111000A2E7D2E7FAEB33FB13F5F0EEA2E7D2E752
:10112000FEEF33FFC5F013A2E730E601B313C5F0BD
:10113000C3C0E0C0F07F00C39BFB605B9418600CF1
:10114000401AD0E023F9D0E0F80212218AF0E948F1
:101150006003D2F0E4AFF0FAF9F8803BEB30E40D35
:1011600089F0EA6003D2F0E4AFF0F9CAF8EB30E3BB
:101170000D88F0EF6002D2F0AFF0E4CAC9F8EB548A
:10118000076014FBC3EA13FAE913F9E813F8EF1345
:101190005002D2E0FFDBEDD0E0C0E030E739C3E43D
:1011A0009FFFF5F0EC98FC42F0ED99FD42F0EE9ACD
:1011B000FE42F0D0E0F9D0E0F8E5F0607AE923F9FA
:1011C000EE20E742D8028067C3EF33FFEC33FCED3B
:1011D00033FDEE33FE80EAEC28FCED39FDEE3AFEFD
:1011E000D0E023F9D0E0F84002801BC3EE13FEEDFF
:1011F00013FDEC13FCEF135002D2E0FF08B8000619
:101200007F7F74FF802EEF3350178CF020F0026048
:10121000100CBC000C0DBD00080EBE000408E860F8
:10122000DFE933E813FFEE2313FE4F4D4C8008E94E
:101230005480FFE4FEFDFCEE33EF33F47004FCFD5C
:101240007E80D0E0FBD0E0FAD0E0F8D0E0CFC61846
:10125000CEC618CDC618CCC6F922120DB970041826
:10126000181822120DC8700D74FFF61819F6181907
:10127000F61819F622E7548066F6120D7B700F12ED
:101280000D8570F014F608F608F608F680D1120DF8
:1012900085700CF608F608768008E6447F80EC122C
:1012A0000DA7700C120D9260BFE65480F6E480BB6F
:1012B000120D92700519191980A5E869700C763F16
:1012C00018768018F618F6E8F922E6CDC0E018EC9A
:1012D000C0E0E633CD33CDD313F6E719FCE7191997
:1012E00033CC33C3947F400ECD9D502408E6548008
:1012F000F6E418F6800FF4043D14501408E6447F19
:10130000F6187680E418F618F6D0E0FCD0E0FD225E
:10131000CCD313CCFD18E4C6CBC0E018E4C6CAC0D9
:10132000E00808ED08C633E613F618E433C675F096
:1013300003C3CA97CA09CB97CB199C40047D088088
:101340002EBD000302140316B6FF05060608161884
:10135000C3CA33CACB33CB33CA27CA09CB37CB195D
:101360003CC37D08803E187D0820E75CC633C6CAB2
:1013700033CACB33CB33DDF1D5F0EB30E77BCA9703
:10138000CA09CB974ACB199C406F4B7025E620E0E9
:10139000218066187D08C3CA97CA09CB97CB199CD0
:1013A000D3C633C6CA33CACB33CB3350C9DDE7D536
:1013B000F0E1D3E4C636C608C636C608C636C60847
:1013C000C636C61818188031C3CA97CA09CB97CB3E
:1013D000199CB34097C633C6CA33CACB33CB33DD6F
:1013E00034D5F02EC6A2E0C640C8CA27CA09CB37FA
:1013F000194A70BECB3CB480B90808E63308E6331E
:10140000601F181818D0E0FAD0E0FBD0E0FCD0E064
:10141000FD22187D08CA27CA09CB37CB193CD380D7
:101420008013F618E4B67F11F618B6FF0EF618C64C
:101430000470D20808768080CAF618F618F680C5BF
:10144000E4CFC0E0E4CEC0E0E4CDC0E0E4CCC0E056
:1014500075F020C3E633F608E633F608E633F608FF
:10146000E633F6181818EC33FCED33FDEE33FEEFDF
:1014700033FFC3EC9709ED9709EE9709EF97191918
:1014800019400FFFEC97FC09ED97FD09EE97FE1947
:101490001906D5F0BEECF709EDF709EEF709EFF7FD
:1014A000191919D0E0FCD0E0FDD0E0FED0E0FF2219
:1014B000181818E4C396F608E496F608E496F608B9
:1014C000E496F622E3F60809E3F60809E3F60809CC
:1014D000E3F622E0F608A3E0F608A3E0F608A3E0AE
:1014E000F622C9C0E0E7F20809E7F20809E7F208C6
:1014F00009E7F2D0E0F922CAC0E0E6F30908DAFA17
:10150000D0E0FA22CAC0E0E2F30908DAFAD0E0FA41
:1015100022CAC0E0E0F208A3DAFAD0E0FA22C3E47B
:1015200098F8E499F912155F8026C3E49AFAE49BCF
:10153000FBE920E7E912155FE498F8E499F922C382
:10154000E498F8E499F912155FE498F8E499F9C37E
:10155000E49AFAE49BFB22EB20E7CFE920E7E0B92D
:101560000010BB0008E88AF084F8AAF022E4FBC867
:10157000FA22EB70227B10C833C8C933C933500735
:10158000C39AC3DBF280069A50012ADBEAC833F41F
:10159000C8C933F4C9FA2275F008E4C833C8C9339E
:1015A000C933C99AC99B5004C92AC93BD5F0ECFB81
:1015B000C833F4C8E4C9FA22600C08C6C313C618BD
:1015C000C613C6D5E0F422700422600D18C6C333DA
:1015D000C608C633C6D5E0F41822E473D083D0829F
:1015E0002510F8C510C39824FACEF208E520F208B9
:1015F000E9C0E07908E709F208DEFAD0E0F9EFF295
:1016000008D0E0FFD0E0FED0E0F208EEF208EFF202
:1016100008E473A810E2FE08E208F520E9C0E079CA
:1016200008E208F709DFFAE208FFD0E0F9E208C0B3
:10163000E0E208C0E0E208C0E0881002007874022E
:1016400080027401C9C0E0E510C399F510C91214F5
:10165000F7D0E0F92274028000C9C0E0E510C39918
:10166000F510C9121504D0E0F92274F21215DC1538
:101670001015101510E5102402F8E9F28A088B09FC
:101680008C0A8D0BE5102413F8E2FE08E2FFA81087
:10169000E4F208F28E828F83A3AA82AB83900B1EA2
:1016A000780C1214D37808790C120DD770188E822A
:1016B0008F837469121ADC746EF0A37466F0A30A47
:1016C0000AAB83021AC378087908120DD760118E0D
:1016D000828F83746E121ADC7461F0A3746E80DDE5
:1016E000900B22780C1214D37808790C120E035048
:1016F00003021779900B26780C1214D37808790C12
:10170000120DD760030217CBE5102415F8E2700321
:10171000021809A810121B19121AF3EC950CED957A
:101720000DA2D265D0335022C3EC94FCED94FFA2FD
:10173000D265D0334014E5102402F8E4F2181812F0
:101740001B19C3E29CF208E29DF2E5102411F81285
:101750001B3EE5102416F8E2700302180618E40296
:101760001808900B2A780C1214D37808790C1212EE
:101770005AA810E2240A122437900B2E780C121467
:10178000D37808790C120E0340D8900B32780C12E3
:1017900014D37808790C120E034003021708900B3B
:1017A00032780C1214D37808790C12125AA810123D
:1017B000243480D6900B2A780C1214D37808790C34
:1017C000120E9EA810E224F6121B41900B36780CE4
:1017D0001214D37808790C120E5240D8900B22784C
:1017E0000C1214D37808790C120E52400302170819
:1017F000900B32780C1214D37808790C120E9EA834
:1018000010121B3E80D67401F212244C60077A003D
:101810007B00021909121B1140030218A38E828F4C
:10182000837430F0EAFEEBFF121B06EC4D7008E506
:10183000102416F8E2600B8E828F83742EF0A30EB4
:10184000AF837A007B00800D8E828F837430121AF2
:10185000EC18121B3EEA24FF1AEB34FFFBA810120F
:101860001AF3E50C9AE50D9BA2D265D0335012E530
:10187000102411F8E2F50C08E2F50DE50C450D70A9
:10188000C7A81012235C74FFC39CF874FF9DF9C3B2
:10189000EA98EB99A2D265D03350030219E57A0198
:1018A000021810121B32806185080C85090D850A0B
:1018B0000E850B0F780C120CECAC0CE50D3395E09B
:1018C000F50EF50F780C120C747808790C12101EB6
:1018D000900B32780C1214D37808790C120E9EEC0F
:1018E000121AE6EAF8EBF9E824010AE93400FBE809
:1018F000497016121B06EC4D7008E5102416F8E22C
:101900006007742EF0A30EAF83121B06C3EC9AED92
:101910009BA2D265D0335090900B3A780C1214D31E
:101920007808790C120E0340030219E57C01EE24BD
:10193000FFFAEF34FFFBE5102413F8E2F50808E2A4
:10194000F5098A828B83E0642E6010E02CF0643A03
:1019500070077430F07C0180027C00EAF8EBF9E853
:1019600024FF1AE934FFFBC3E50898E5099940D242
:10197000ECA2E0507012244C603FEEFAEF800DE0D4
:101980008A828B83F0EA24FF1AEB34FFFBC3E5085D
:101990009AE5099B501C121ACE642E70E2EA24FECE
:1019A000F582EB34FFF583E08A828B83F01AE9FB42
:1019B00080D3A81012243480228E828F83A3AE821B
:1019C000AF83EEFAEF800A121ACE8A828B83F01A66
:1019D000E9FBC3E5089AE5099B40ECE510241312E6
:1019E0001B017431F0E5102415F8E27005801A1E11
:1019F000AF83EE24FFF582EF34FFF583E0643060BF
:101A0000EEE0642E70031EAF8312244C7003021AA2
:101A1000BF121AE8A3AB83121B118E828F83500F63
:101A2000742DF00EEBFF121B32181223E2800674A5
:101A30002BF00EEBFF7C007D00EE240AFEEF34005D
:101A4000FFEC24010CED3400FD121B24121557EAA3
:101A5000121AE6121B24121557E8FAE9FB1223E0CA
:101A600018E24B70DCC3EC9402ED1222F740D2EC8A
:101A7000FAEDFBC3E49CF8E49DF9EE28F582EF391A
:101A8000F583E0C0E0C3E49AF8E49BF9EE28F8EFB0
:101A900039F9E82CF8E93DF9E824F5F582E934FF55
:101AA000F583D0E0F0EC24FF1CED34FFFDC3EC9493
:101AB00001ED1222F750BCEE24F6FEEF34FFFFEEEC
:101AC000FAEFFB0510051005107F08021613EA2433
:101AD000FFF8EB34FFF988828983E022F0EAFEEB1D
:101AE000FF8E828F832224308E828F83F0A3AE827A
:101AF000AF8322E2F50C08E2F50DC322F9E51024CC
:101B000015F812246B22E5102411F8E2FC08E2FD1E
:101B100022181808E212241C22E2FC08E2FDE5105B
:101B20002411F822A810122392EAF8EBF97A0A7B22
:101B3000002218122392C3E49AFAE49BFB22E224C7
:101B4000FFF208E234FFF22274F21215DCE51024F1
:101B5000AFF510A8101223F22415F8ECF208EDF2FC
:101B6000E510240DF8E4F208F2E5102450FAE5102F
:101B70002419F8EAF208E593F2E510241F18181862
:101B8000F208E5938015122357E9F8E2F9121AFDDD
:101B90001215DAE510240DF812231DF2A8101223F5
:101BA00040A910E582F309E583F3E8090909F37414
:101BB00025686013E9F8E270CDE510240D1223606A
:101BC0002451F510021AC91223266425700A122422
:101BD00025122357792580B5E510240CF8E4F21876
:101BE000F218F2E5102405F8E4F2E5102417F819CC
:101BF00019E2F30809E2F3800F1222EE7007E510F4
:101C00002405F8E9F21223E0A8101223ADF924E02C
:101C100060E724FD601724F860E424FE600624FDDC
:101C200060118015E510240AF8E20480D7E510243D
:101C30000B80F5E510240C80EFE0642A705112232C
:101C40006DE8FCE9FD8C828D83E5102408F8E0F254
:101C5000A308E0F2EC24020C0CED3400FDE51024A6
:101C600061121B01ECF0A3EDF0E5102408F808E286
:101C7000FDC31222F7501318E2FCC3E49CFCE49D60
:101C8000FDECF208EDF208E204F21223E08052E5E6
:101C9000102408F8E4F2088039E510240812235BC8
:101CA000EA75F00AA4FAA8F075F00AEBA428FBE59F
:101CB000082AF8E43BF9E824D0FAE934FFFBE51000
:101CC0002408F8EAF208EB1223E8A318E582F208E8
:101CD000E5831223E8E0F50874D02508C3940A4090
:101CE000B8E510240AF8E260040808E4F21223269A
:101CF000642E706212242518E2F582E0642A701EB8
:101D000012236D88828983E0FEA3E0FFE82402FAB3
:101D1000E9122366A810121B02122425803C7E00C3
:101D20007F00122326F50874D02508C3940A502A90
:101D3000EE75F00AA4FEA8F075F00AEFA428FFE5FE
:101D4000082EF8E43FF9E824D0FEE934FFFFA3A809
:101D50001012242780CC7EFF7FFF7900181223AD5C
:101D600024B4600824E4600524FC700509181223DB
:101D7000E21812232C122425EA080808F270030244
:101D8000221224BB700302213024FE7003022117AB
:101D900024EF7003021EE024F57003021E27147066
:101DA00003021F6014700302213014700302212EFD
:101DB00014700302211724FE7003021F6024FB60CD
:101DC00024147003021ED0147003021EE024FD7060
:101DD00003021E5824FE7003021EE024FD7003025D
:101DE0001EE002221A122378E5105025240D121B42
:101DF0000A3395E0FE8A828B83E0F8A3E0F58388BE
:101E000082ECF0A3EDF0A3EEF0A3F0122477021B16
:101E10009C240DF88A828B83E0F9A3E0F583898204
:101E2000E2F008A3E280E3E5102461F8122340E029
:101E3000F5838882E0C0E0E510241FF8D0E0F212BC
:101E40002477E5102417121B01A3E510240FF8E5F1
:101E500082F208E583022231122398E0F8A3E0F928
:101E6000E8FCE9FD12248CE5102402F8ECF208ED00
:101E7000F2EC4D700818740BF208740BF21222F594
:101E800050047E107F27080808E4F2088004181226
:101E9000231DF212244CFA08E2FB8A828B8312245F
:101EA000258A828B83E0600808080812237F40DEC1
:101EB00012244C122337E5101223EF2406F8121BCC
:101EC00033E510240F12234AF8EAF208EB0222311C
:101ED000E510240BF8E26008EE4F70047E017F00ED
:101EE000E5102461F812232CA3E0FBE5102404F88C
:101EF000E2647070298A828B831223091214E21221
:101F0000248C900B3E78081214D3E510241BF8742F
:101F1000081214E2E5102405F8E4F2021FB8E9A261
:101F2000E08A828B83501178081214D31223151281
:101F300014E2EA2404FA800B1223091214E2EA24C0
:101F4000020A0AEB122366E5102404F8E2646F70BB
:101F500005900B4280AFE2647570A7900B4680A598
:101F60001223788A828B83500A78081214D31222A3
:101F7000FB8012E0F508A3E0F5093395E0F50AF5DA
:101F80000B1224A1181223C41214E2900B26780815
:101F9000120C4E40111223FA1214C478081214B312
:101FA0001223151214E2900B4678081214D3E51090
:101FB000241BF874081214E2E5102419F9E5102422
:101FC00002F8E3F20908E3F219E510240FF8E3F24E
:101FD0000908E31224011214C4E5084509450A451D
:101FE0000B60047A0180027A00EE4F7008EAA2E0EA
:101FF000400302209712245318ECF208EDF219194D
:1020000019780C1214C4E510241BF978081214C4B2
:10201000780C790812144074FA2508F582740A3590
:1020200009F583E0C0E0122462D0E0F0E51024114D
:10203000F9780C1214C4E510241BF978081214C4A2
:10204000780C7908121440E5102411F8740C12145D
:10205000E2E5102411F978081214C4E50845094591
:102060000A450B70901222F5502DE510240CF8E271
:1020700060251222EE6004D2F08002C2F008080847
:10208000A2F0E433FCE29CFE08E29400FF80081812
:10209000ECF208ED12243E122453E5102419F9182D
:1020A000E2F508E3C39508F5080809E2F509E395A8
:1020B00009F509C3E5089EE50912238A40D1E51018
:1020C000240BF8E27003022232EAA2E0400302226B
:1020D00032E5102404F8E264786005E26458701C6C
:1020E0008C828D83E2F0E58224FFFAE58334FFFBE6
:1020F0001818EAF208EB12243E022232E2646F6002
:10210000030222321818122328643070030222328C
:1021100018ECF208ED80DF08087401F208E4F21808
:102120001818E224FEF2EE4F700C7E01800FE4F2EC
:102130000808E4F208F21222F550047E067F00122D
:10214000239878081214D31222FB1223C41214E22B
:10215000900B26780C1214D37808790C120E52507A
:10216000101223FA1214C4E50BB2E712231312144F
:10217000E2E5102408122360241712234A1223F1E7
:10218000240BF8E2F5087808121642E5102407F847
:10219000E2F5087808121642E5102404F8121655E4
:1021A0008E088F09780812163EE510240AF8E2FE20
:1021B000E5102417F978081214C4AA08AB09AC0A70
:1021C000AD0BEEF9120C42E5102406F5101223EFC8
:1021D000240CF8E2605C1222EE6004D2F08002C2AD
:1021E000F0080808A2F0E433FAE29AFE08E294004C
:1021F000FF122447FAE3C39AFA0809E2FBE39BFBC8
:10220000122386502D18122331EAF208EB12243ED5
:1022100080DFA8101223311223E2E5102402F874A3
:102220001AF208740BF2E510240FF8741DF208740A
:102230000BF2122447FEE3C39EFE0809E2FFE39F70
:10224000FFE5102408F812237F5008181818E4F24C
:1022500008802B1222EE6004D2F08002C2F008083F
:1022600008E2C39EFA08E29FFBA2F0E433F8EA9882
:10227000FAEB9400FBE5102406F8EAF208EBF2080A
:102280000808E2701080091223CF1215DA12242FE9
:1022900012240A50F21222EE6028E510245F122365
:1022A000601222F0121AFC1215DA8013122359124E
:1022B0002462E0121AFC1215DA122462122425128A
:1022C000242FEE24FF1EEF34FFFFC31222F7E51088
:1022D00050DA240AF8E27003021B9C12240A50030D
:1022E000021B9C1223CF1215DA12242F80EDE51069
:1022F0002405F8E222C3EF12241D22EA2404FAEB9B
:102300003400FBE5102461F822E0F508A3E0F509AC
:10231000E4F50AF50BE5102411F8740822E2240113
:10232000F208E2340022A8101223BB221223BBFAC7
:1023300022E2122337182224FFFA08E234FFFB229C
:10234000122344221223BFF8A322F8E22AFA08E259
:102350003BFBE510240222E510245FF812239222B1
:10236000122391E510223400FB12249322E510245D
:1023700061F8122344E0F9221223A0E9A2E022121C
:10238000239212238622C3EA9EEB9FA2D265D0330A
:1023900022F8E2FA08E2FB221223A08A828B83222F
:1023A000E5102461F81223BFFAA3E0FB22E2240126
:1023B000FA08E23400FB181223BB221223BF2212B8
:1023C000246FE022122498E5102411F8740822E505
:1023D00010245F1223917920E510241512246A221B
:1023E000A810EAF208EBF222F2A81012246B2224C1
:1023F0000FF8EAF208EBF2E51022E5102405F87474
:102400002DF2E5102411F9780822E5102406F8E2EF
:1024100024FFF208E234FFF212241C22C39400A22B
:10242000D265D03322A318E582F208E583F222E5D3
:1024300010240DF8E22401F208E23400F222F2182E
:1024400012246B7430F022E510240FF9E5102402F9
:10245000F8E222E5102402F8E224FFFC08E234FF4F
:10246000FD22E510240212246A22F812246F22E2CF
:10247000F58208E2F58322E5102461F81223BB24DB
:1024800002FAA3E03400FB18122498221224A112AD
:10249000249322E5102461F812246FEAF0A3EBF0F4
:1024A00022EA24020A0AEB3400FB2274F91215DC3A
:1024B000EAFCEBFD7E117F00780079008008E824BB
:1024C00001F8E93400F9C3E89EE99FA2D265D03350
:1024D000400302256BE8FAE9FBEA75F022A4CA85FD
:1024E000F00875F000A42508F50875F022EBA42586
:1024F00008FB74942AF58274003BF583E0FAA3E0AC
:10250000F5838A82E0FA8C828D83E06A70B0E8FA03
:10251000E9FBEA75F022A4CA85F00875F000A4254D
:1025200008F50875F022EBA42508FB74942AF582BF
:1025300074003BF583E0FAA3E0F5838A82A3E0FA16
:102540008C828D83A3E06A60030224BEE875F022CA
:10255000A4C8AAF075F000A42AFA75F022E9A42A0A
:10256000F9749628FA740039FB80047A967B007F10
:10257000010216137C007D008019E82401F8E9347B
:1025800000F9C3E89458E9940240EFEC2401FCED13
:102590003400FDC3EC9AED9B50067800790080E290
:1025A000020078801C78087907E8FCE9FDEC24FF3C
:1025B000F8ED34FFF9EC4D70F0EA24FFFAEB34FF4C
:1025C000FBEA4B70E002007878087400D280780053
:1025D0008009D293D292E9C333F908E8C394085032
:1025E0000BC29274805970EAC29380E80200787836
:1025F000087400C28078008009D293D292E9C33374
:10260000F908E8C39408500BC29274805970EAC26A
:102610009380E802007874F81215DCE9FF8A08EF6D
:10262000C394805028E508C394085021740F5FFEBE
:10263000EFC4540F5407F50974B02508F9120BE8DC
:10264000EEF9120BE874104509F9120BE87F02024B
:10265000161374F91215DCE9FF7E00800FEFF912F2
:102660000BE20508E508C3948040F20EEEC394081F
:10267000500CEEFA7900120BEE75080080E67F012F
:1026800002161353F3EE43FD1153F47343FE8C53C0
:10269000F3FE43FD0153F47343FE8CD292C2977A4A
:1026A000327B00120BDCD29779AE120BE879001264
:1026B0000BE87910120BE87940120BE87981120BC4
:1026C000E879CF120BE879A1120BE879C8120BE870
:1026D00079A6120BE879A8120BE8793F120BE8797A
:1026E000D3120BE87900120BE879D5120BE8798048
:1026F000120BE879D9120BE879F1120BE879DA12AA
:102700000BE87912120BE879DB120BE87940120B17
:10271000E87920120BE87902120BE8798D120BE8A8
:102720007914120BE879A4120BE879A6120BE87958
:10273000AF120BE87900120BF47A007900120BEE5D
:1027400002007874F31215DCE9FEEAFF8C0C8D0DA3
:10275000750E00750B00750A008047850B0875091A
:1027600000E50EA80E7900E875F006A4C8AAF07579
:10277000F000A42AFA75F006E9A42AF974D628F81C
:10278000740239F9E82508F582E93509F583E0F99D
:10279000120BE2050BE50BC3940640BF74062EFE38
:1027A000050A850A08750900E50C2508F582E50D7E
:1027B0003509F583E0601D850A08750900E50C25DB
:1027C00008F582E50D3509F583E024E0F50EEEC34A
:1027D000947F40057F07021613EFFAEEF9120BEE15
:1027E000750B0080B074F21215DCE9FEEAFF8C0E66
:1027F0008D0F750C007508007509008047E50CA861
:102800000C7900E875F010A4C8AAF075F000A42AAD
:10281000FA75F010E9A42AF985080A750B00E82575
:102820000AF8E9350BF9740628F582740539F58341
:10283000E0F9120BE20508E508C3940840BF7408EC
:102840002EFE050985090A750B00E50E250AF5829D
:10285000E50F350BF583E0607C85090A750B00E513
:102860000E250AF582E50F350BF583E024E0F50C23
:10287000EEC3947940037E000FEFFAEEF9120BEEEF
:10288000750800803AE50CA80C7900E875F010A4F2
:10289000C8AAF075F000A42AFA75F010E9A42AF984
:1028A00085080A750B00E8250AF8E9350BF974FE6E
:1028B00028F582740439F583E0F9120BE20508E586
:1028C00008C3940840BF74012FFAEEF9120BEE759D
:1028D00008000228377F0802161374F51215DC89E8
:1028E000088A09ECFAEDFB750C007E007F00EA4BCC
:1028F000606A120BD08A0A8B0BAE0AAF0BAA09A929
:1029000008120BEE750C008017850C0A750B00EE93
:10291000250AF582EF350BF583E0F9120BE2050C81
:10292000E50CC3941040E274012509FAA908120BC2
:10293000EE750C00801F850C0A750B00EE250AF859
:10294000EF350BF9E82410F582E93400F583E0F95E
:10295000120BE2050CE50CC3941040DA7F05021659
:102960001374F41215DC15101510E9FE8A098C0C8D
:102970008D0D7508007F0079007C007A007B009047
:102980000001E510A8107402121511E50C450D6048
:102990007AAA0CAB0D120C3CEAF5087F00EFC39548
:1029A0000850688F0A750B00E50C250AF582E50DC5
:1029B000350BF583E0C39480401E8F0A750B00E54C
:1029C0000C250AFCE50D350BFDAA09EEF9120C0CDD
:1029D0000F0F74102EFE802D8F0A750B00E50C254D
:1029E0000AF582E50D350BF583E0C0E0E510A8108F
:1029F000D0E0F2E510AC10AD93AA09EEF9120C0686
:102A00000F74082EFEEEC394804092051005107FCF
:102A10000602161375F10075F30C53FF3F438680D1
:102A200043C50B43C2D8C2E943864043A884020091
:102A300078EEC0E078007900801E8A828B83E0F512
:102A4000C18A828B83A3AA82AB83A2E950FCC2E92C
:102A5000E82401F8E93400F9C3E89CE99D40DBD0A3
:102A6000E0FE02007853C6BFE59EA2E640FA53C6D8
:102A7000B802007874F81215DCEAFC7508017509D3
:102A800000E978081215C7E50842F27508017509D2
:102A900000E978081215C7E50842F2EC494480F5D0
:102AA000B643B43043B440E5B4A2E750FAA8BA88BC
:102AB00082758300AA82AB83E5BBFE7F00E4CEFF74
:102AC000EE4AFAEF4BFBEC70118A088B0974097817
:102AD000081215B8AA08AB09804074106C70118AEE
:102AE000088B09740778081215B8AA08AB09802A60
:102AF00074206C70118A088B09740678081215B856
:102B0000AA08AB09801474306C700F8A088B0974A2
:102B10000478081215B8AA08AB097F02021613E55B
:102B20001024F4F5107E007F00E510A8107400F268
:102B3000087400F2900003E5102402F8740A1215DC
:102B400011750800120C24120C18120BFA7C407D2F
:102B5000007A017900120C007A307906120C2A8A68
:102B6000088B09AE08AF09C3EE9401EF940850E852
:102B70007400C39EFE74089FFF8E088F09E4F50A57
:102B8000F50B7808120C8F900AEE780C1214D3789B
:102B900008790C12125A900AF2780C1214D37808A1
:102BA000790C120E9E7808120CECE510A810E508BE
:102BB000F208E509F28E088F09E4F50AF50B7808AA
:102BC000120C8F900AEE780C1214D37808790C123C
:102BD000125A900AF6780C1214D37808790C120E57
:102BE0009E7808120CECE508F508750900780812C3
:102BF000163EE5102402F81216557C517D00E510B2
:102C00002406FAAB93120C36E5102404F510E510F7
:102C10002402FAAB93120C3CEAFCEBFDE510240213
:102C2000FAAB93120C1E7C027D007A657B00120CBD
:102C30001EE5102402FCAD937A067900120C007C8C
:102C4000687D007A027900120C127C6F7D007A0494
:102C50007900120C127C017D007A7C7B00120C1E24
:102C60007C157D007A7E7B00120C1E7AD07B0712C9
:102C70000BD6022B588A828B83E0F8A3E0F5838879
:102C800082E9F08A828B83E02401FCA3E03400FD1A
:102C90008A828B83ECF0A3EDF0020078C008C009B3
:102CA000E51024FCF5102402F8EAF208EBF2ECFA45
:102CB000EDFBE5102404181818F208E593F2E5106E
:102CC000F508859309780812163EE5102404F508E6
:102CD000780812163E7C307D0C120C48E510240456
:102CE000F5102402F8E2F58208E2F583E4F005101D
:102CF000051005100510D009D0080200788A828BD3
:102D0000838001A3E070FCE582C39AFAE5839BFB14
:032D100002007846
:040000050000006097
:00000001FF
